:0400000080319F2884
:100008007E1480310B1D2428200060086104031928
:1000180012280130E0020030E13B13281010640878
:10002800650403191B28FF30E407031CE5035C087B
:100038005D0403192328FF30DC07031CDD030B11C3
:100048002000911C9D285E085F0403196F28013069
:10005800DE020030DF3B7A2822000E158E170A30A8
:100068002000DE00DF0102306C28E8302000DE00CE
:100078000330DF0022000E176C2822000E13200028
:10008800101B4E286530E70A6702031C4F28210021
:10009800A0014F28E7012000901A5B2804302100B6
:1000A800A000E8302000DE000330DF005F28101ACF
:1000B8005F282100A00101302000DE00DF017A283E
:1000C80022000E118E137A2822000E118E1305308D
:1000D8002100A0007A2821002008840006300402AC
:1000E80003187A2888310435003E820020006C0805
:1000F8006D04031984280130EC020030ED3B86289A
:1001080022008E1220006E086F0403199028013017
:10011800EE020030EF3B9428E830EE000330EF00A9
:100128006208630403199C280130E2020030E33BB3
:1001380091107E1009008031A128E830EE000330CC
:10014800EF00543084000030850018308731FA27DA
:100158007E10200086312F2ED5281430CE28273047
:10016800CE283430CE283E30CE284630CE284C30EB
:10017800CE285130CE285530CE285830CE285B3086
:10018800CE285E30CE286030CE286230CE28663049
:10019800CE287030F600D128F601F701F801F901F0
:1001A800E7287508003A0319DA28D0287408FA3EB7
:1001B800031CD0288400143004020318D028873187
:1001C8000435AE3E820076086B2BF200F103E22381
:1001D80080317C30D62380310030D62380317108BD
:1001E800F300CF30F305720BFB28F317FD28C0305E
:1001F800F3047308D6238031E72B25082202013E39
:10020800F1000230E92020002108F7002008F6005C
:10021800973119278031250803191D296908031DFD
:100228001729241E1A296908303E1B2920307521F8
:1002380080312000241E23292E3075218031200092
:100248006B08031D2E296908031D2E292408183957
:10025800031931296B08303E32292030752180314D
:100268002000A41D3A292E3075218031200066080F
:10027800031D48296B08031D48296908031D4829DF
:1002880024081C3903194B296608303E4C292030B4
:10029800752180312000241D54292E30752180318C
:1002A80020006808031D65296608031D65296B0879
:1002B800031D65296908031D652924081E390319CA
:1002C80068296808303E692920307521803120006E
:1002D800A41C71292E307521803120006A08303E17
:1002E8007529F100E22380317C30D62380314030FB
:1002F800D62380317108D6238031E72BFC002000FB
:1003080010100330F423803122008C138D120C134B
:100318006630F0002B30F100A92280317C08F00013
:10032800F101A9228031382AAA307806031DA029B4
:100338009030F4009230B329A1307806031DA82923
:100348005E30F4009330B329A2307806031DB0293B
:10035800DF30F4009030B3299030F4009130F5008C
:100368007430F6009130F700D62280316730F00003
:100378002B30F100A92280316430F000F101EC2328
:1003880080310530FB000F30FA00F430F900F90B2A
:10039800CB29FA0BCB29FB0BCB296430F000F101F8
:1003A800EC23803125008C1DD6290330FB00083052
:1003B800FA007830F900F90BDF29FA0BDF29FB0B7B
:1003C800DF29352A6830F0002B30F100A92280316E
:1003D800AA307806031DF4296730F4009330032A05
:1003E800A1307806031DFC297F30F4009330032ADE
:1003F800A2307806031D082ADF30F4009030F5009B
:100408006330F60092300F2A4C30F4009330F50038
:100418006430F6009230F700D62280312930FB0094
:100428009630FA00A630F900F90B182AFA0B182AA8
:10043800FB0B182A6C30F4009030F5006F30F60092
:100448009330F700D62280313D30FB00E130FA00CE
:100458007A30F900F90B2E2AFA0B2E2AFB0B2E2ADA
:100468000032FF30FC00402A7C08013A0319982921
:10047800033A0319E629402A6930F0002B30F100CD
:10048800A9228031AA307806031D4E2A1D30F400B7
:100498009130612AA1307806031D562A6030F40095
:1004A8009230612AA2307806031D5E2ADF30F400FC
:1004B8009030612A4A30F4009030F5006630F6003A
:1004C8009130F700D622803125008C19682A033034
:1004D800FB000830FA007830F900F90B712AFA0BA2
:1004E800712AFB0B712AAA307806031D7F2A1D305A
:1004F800F4009130922AA1307806031D872A6030D3
:10050800F4009230922AA2307806031D8F2ADF3039
:10051800F4009030922A4A30F4009030F500FB3015
:10052800F6009130F700D622803125008C1D992ADB
:100538000330FB000830FA007830F900F90BA22AE2
:10054800FA0BA22AFB0BA22A83298B1322000F1174
:100558000000000000000000000000000000000093
:100568000000F201701CBB2A22000F15BD2A2200D0
:100578000F111030F136F00CF20A7202031CB62A81
:1005880000000000000000000000000022000F151D
:100598000000000000000000000000000000000053
:1005A8008B17080056238031452380317508F200E7
:1005B8007408F10083238031E72280317708F20044
:1005C8007608F100832BE22380317C30D6238031FA
:1005D8000030D6238031C030D62380312330F1005B
:1005E800F10BF42A0032E72B0330F4238031220088
:1005F8008C138D120C13200010103930F00030309D
:10060800F100A9228031E830F0000330F100EC233A
:10061800803156238031452380317908F2007808EB
:10062800F10083238031E72280317B08F2007A08C9
:10063800F1008323803129302000A2009630A100E8
:10064800A630A000A00B262BA10B262BA20B262B35
:10065800FC30F4009130F5008E30F6009030F70051
:10066800D622803119302000A2005A30A100C830AB
:10067800A000A00B3D2BA10B3D2BA20B3D2B003264
:100688000D2BE22380317C30D62380310030D623F5
:1006980080318030D62380312330F100F10B522B8A
:1006A8000032E72BE22380317C30D62380310030C2
:1006B800D62380310130D62380310B30F2006230EE
:1006C800F100F10B652BF20B652B0000E72BF30013
:1006D800E22380315C30D62380310030D62380314C
:1006E8007308D6238031E72380316830F200E43084
:1006F800F100F10B7D2BF20B7D2B00000800E223AB
:1007080080317C30D62380314030D6238031710847
:10071800840072088500120003199D2B710884005B
:10072800720885000008D6238031F10A0319F20AFD
:100738008B2BE72BF400E22380317C30D6238031E9
:100748000030D62380313930D62380311C30D6236F
:10075800803174087038D62380315030D6238031E8
:100768006C30D6238031710BBC2B3830D6238031C6
:1007780002307106031DC32B3430D62380310C3070
:10078800D62380310630D62380310130D6238031FC
:100798000B30F3006230F200F20BD02BF30BD02BAE
:1007A8000000E72BF000700891001418D92B1608E8
:1007B8001F39031DDB2B141D0800DB2B2400161426
:1007C800161C0800E42B24001615161D0800E92B3A
:1007D80071082000ED007008EC0022008E16080059
:1007E800F0000A2C22000F168F160F17080022009F
:1007F8000F168F120F17080022000F128F120F13F7
:10080800080022000F128F120F17080070088400CA
:100818000430040203180800883104350C3E8200B5
:10082800080053305424843171082000C80070082F
:10083800C70000304802053003194702031C512C39
:100848004808F9004708F800C22584317808A30051
:100858007908A4007A08A5009A30A0005930A100B0
:100868004030A2001A2584312008AF002108B000CA
:100878002208B1008030AC01AD00C130AE00662462
:1008880084312C08B8002D08B9002E08BA00D225EA
:100898003908C6003808C5000800C501C6010800A7
:1008A800F3008B13730821009D009D18592C1C0818
:1008B800F500F4011B08F4048B177508F10074089F
:1008C800F00008002C08B2002D08B3002E08B40070
:1008D8000310330D340DB7002F08B2003008B300F1
:1008E8003108B4000310330D340DB600370803196E
:1008F800892C3608370236080318912CB2003708BD
:10090800B20219303202031C902C2F08AC003008B8
:10091800AD003108AE000800360803190800370892
:10092800360203189F2C3708B2003608B202193075
:100938003202031808000630B500AE1BB517B11B0C
:100948003517AD17AE01B017B101360837020318D5
:10095800C42CAF35B00DB10DB603360837060319F0
:10096800BF2CB503350807390319BF2CAD2CAE369B
:10097800AD0CAC0CB70A370836060319DE2CBB2CB5
:10098800370836020318DE2CAC35AD0DAE0DB703B3
:10099800360837060319DA2CB50335080739031961
:1009A800DA2CC82CB136B00CAF0CB60A37083606AC
:1009B800031DD62CB51FE92CFF30AC06AD06AE06DC
:1009C800AC0A0319AD0A0319AE0A351FF42CFF301F
:1009D800AF06B006B106AF0A0319B00A0319B10A87
:1009E800B5012C08AF072D08B03D2E08B13DB11F49
:1009F800082DFF30AF06B006B106AF0A0319B00ADA
:100A08000319B10AB501B50A2F08F0003008F10042
:100A18003108F2003708F3003508F400842570081F
:100A2800AC007108AD007208AE0008002008FB0099
:100A38002108FC002208FD0003107C0D7D0DA60096
:100A48002608031D2B2DA001A101A20108002308DF
:100A5800FB002408FC002508FD0003107C0D7D0D1B
:100A6800AB002B08031D3C2DA001A101A201080029
:100A78002B087B3EA6072208AB002508AB06803072
:100A8800AB05FF30A117A417A305A4050730A501DE
:100A9800A701A801A901AA00201C582D2308A7070F
:100AA8002408A83D2508A93DA236A10CA00CA33511
:100AB800A40DA50DAA0B502D0930AA00201C6A2DE3
:100AC8002308A7072408A83D2508A93DA236A10C9C
:100AD800A00CA936A80CA70CAA0B622D2708F000B9
:100AE8002808F1002908F2002608F3002B08F40072
:100AF80084257008A0007108A1007208A2000800EF
:100B0800730803198C2D720871047004031D942D49
:100B1800F001F101F2010800F30AF236F10CF00CD1
:100B2800FE3072050319A22D902DF30AF00A03195D
:100B3800F10A0319F20AF236F10CF00CFF307205D3
:100B48000319AF2D992D02307302031CB12DF30345
:100B5800F035F10DF20DF11FA72D731CF113F336CB
:100B68007308F700F601F5017508F0047608F1043A
:100B78007708F2047408031DF21708007808F000DB
:100B88007908F1008E30F201F300F4018425700831
:100B9800F8007108F9007208FA0008003808BC006B
:100BA8003908BD003A08BE0003103D0D3E0DC400D3
:100BB8004408031DE42DB801B901BA01BB010800BE
:100BC8003808BC003908BD003A08BE001730BE36E8
:100BD800BD0CBC0C890BEB2D3C08BF00B917BA0142
:100BE8003808C0003908C1003A08C2008E30C30175
:100BF800C402C41F0B2E4408803A8F3E031CDF2D0D
:100C0800C336C20CC10CC00CC40F042E182E1830E9
:100C180044020318DF2D44080319182EC035C10DEE
:100C2800C20DC30DC4030F2E3F080319262EC00999
:100C3800C109C209C309C00A0319C10A0319C20AB2
:100C48000319C30A4308BB004208BA004108B900A7
:100C58004008B80008007A3021009900D03095008B
:100C6800200095010B118B160F3021008C00CF301E
:100C78008D001A308E008B308F00F63090002F30A8
:100C880026008C00EF308D0020008C018D018E0134
:100C980040308F00900125008C018D0124008D01CA
:100CA8008F01900123008C010C308D000F308F00D4
:100CB8000430900028008C018D0188315320863142
:100CC80088315A20863105302100A00020008C127E
:100CD800C830F000F1018331EC23863120008C16F6
:100CE80088316F2086313830F100083083319E23F7
:100CF80086314C30F4009330F5007D30F6009030AA
:100D0800F7008231D622863120000C168B1722007C
:100D18008E1703302000CB000830CA007830C90095
:100D2800C90B942ECA0B942ECB0B942EAA30F0002C
:100D3800F1008231A922863185302000C900C90B13
:100D4800A32E5530F000F1008231A922863185307A
:100D58002000C900C90BAE2E200010102100961DDE
:100D6800BA2E0230F80181318221863125008C1D8E
:100D7800C82E4C30F8009330F9006630FA009130F4
:100D8800FB008231F8228631FF30F4009030F50004
:100D9800AE30F6009030F7008231D62286310C3022
:100DA800F400F5018031B020863100308331F4231E
:100DB800863102302000CB000430CA00BA30C900A6
:100DC800C90BE42ECA0BE42ECB0BE42E00005F30D7
:100DD800843154248631AF302000E0000E30E10029
:100DE8000E2F5F30843154248631003071027B30FD
:100DF80003197002031C192F843115248631003021
:100E080046021E30031945020318192F60086104B1
:100E18000319192F5F308431542486310030710250
:100E2800683003197002031CF52E5F308431542496
:100E380086310030710268300319700203182C2FB4
:100E48009E30F8009130F900EE30FA0091305C2FB6
:100E58005F30843154248631003071027B300319AD
:100E68007002031C3F2F9E30F8009130F900D430F7
:100E7800FA0091305C2F8431152486310030460207
:100E88003C3003194502031C512F3F30F8009130C4
:100E9800F9009C30FA0092305C2F60086104031D51
:100EA800602F9E30F8009130F9008430FA009230BB
:100EB800FB008231F822863101308331F4238631F8
:100EC8001030F400F5018031B02086310430200064
:100ED800CB000C30CA003530C900C90B712FCA0BC2
:100EE800712FCB0B712F0032AF302000E0000E3095
:100EF800E1008831D728F4302000E4000130E50013
:100F08008A2F20006408650403198D2F25008D1988
:100F1800852FC730F000F00B8F2F0032F201F1015E
:100F280027000C1625008D199B2FF2369D2F0314D0
:100F3800F20C27000C128530F000F00BA12F0830BE
:100F4800F10A7102031C942F8530F000F00BAA2FD0
:100F5800720808008031B1288031B3288031B52863
:100F68008031B7288031B9288031BB288031BD282D
:100F78008031BF288031C1288031C3288031C528FD
:100F88008031C7288031C9288031D0288031CB28CA
:100F98008031D0288031D0288031D0288031D028A5
:100FA8008031CD2825008D19D62FC730F000F00BE1
:100FB800DB2F0032F201F10127000C1625008D19F4
:100FC800E72FF236E92F0314F20C27000C128530B4
:100FD800F000F00BED2F0830F10A7102031CE02F2E
:100FE8008530F000F00BF62F7208080064008001CD
:100FF8000131890BFB2F003480316828803130287B
:1010080080313928803141288031642880317A281C
:101018008331F62B8331FB2B8431002C8431052C52
:1010A600833022009700A33021009E0008000630FE
:1010B60020009C00FA309B002100911404302B0084
:1010C6009700FF3096000C302C009C000130250064
:1010D6009F002C009A0108008C160530F2000F3094
:1010E600F100F430F000F00B7628F10B7628F20BC5
:1010F600762821008E150E162400941728309500A8
:10110600143092000800F10026000D1027000D1083
:101116008530F000F00B8D28F201711C9528270010
:101126000D14972827000D108530F136F000F00BCE
:101136009A280830F20A7202031C902827000D1420
:101146008530F000F00BA52808005F308431542468
:101156008831003071027B3003197002031CE228CB
:10116600633084315424883100307102F53003191C
:1011760070020318E2286330843154248831013028
:101186007102483003197002031CE22884311524C9
:101196008831003046023C30031945020318E22824
:1011A600600861040319E2285F30843154248831D1
:1011B60000307102683003197002031CA8288431BC
:1011C600152488314608CD004508CC005F308431AF
:1011D60054248831003071026830031970020318F4
:1011E600F828AC30F800913015295F30843154244A
:1011F6008831003071027B3003197002031C072905
:10120600AC30F80091302829633084315424883179
:1012160000307102F5300319700203181A293B30A9
:10122600F8009130F900EE30FA009130632963300E
:101236008431542488310130710248300319700218
:10124600031C2D293B30F8009130F900D430FA0008
:1012560091306329003020004D023C3003194C02C6
:10126600031C58294D08A1004C08A0000530A20017
:10127600A301A401A501A50A8131012188311530F8
:101286002000CB004B30CA00D130C900C90B492918
:10129600CA0B4929CB0B49290000BD30F800923012
:1012A600F9009C30FA009230632960086104031D3E
:1012B6006729AC30F8009130F9008430FA0092309A
:1012C600FB008231F822883120000C1DD429003021
:1012D6008331F42388311330F4009030F500AE30BA
:1012E600F6009030F7008231D622883122008C1722
:1012F60003302000CB000830CA007830C900C90B83
:101306008229CA0B8229CB0B82296C30F4009230D9
:10131600F5001930F6009030F7008231D622883178
:1013260022000E158E1703302000CB000830CA00AD
:101336007830C900C90B9D29CA0B9D29CB0B9D2965
:1013460022000E1715302000CB004B30CA00D130DA
:10135600C900C90BAC29CA0BAC29CB0BAC290000C0
:1013660022000E135C302000CB005130CA00BA3088
:10137600C900C90BBC29CA0BBC29CB0BBC29000070
:1013860022000E118E1303302000CB000830CA0055
:101396007830C900C90BCD29CA0BCD29CB0BCD2975
:1013A600ED291330F4009030F5005530F6009330F7
:1013B600F7008231D622883107302000CB00173063
:1013C600CA006F30C900C90BE629CA0BE629CB0B48
:1013D600E629000027000C1203302000CB0008305D
:1013E600CA007830C900C90BF629CA0BF629CB0BFF
:1013F600F62927000C1603302000CB000830CA005F
:101406007830C900C90B052ACA0B052ACB0B052A59
:1014160027000C120830F4009230F500AC30F600CC
:101426009230F7008231D622883120000030D20176
:10143600D001D101512AA13053060319632AA230E3
:1014460053060319632A5108A1005008A0000B3067
:10145600A200A301A401A501813101218831200048
:101466005308A0000530A101A200A301A401A50113
:1014760081310121883102302000CB000430CA00BE
:10148600BA30C900C90B452ACA0B452ACB0B452AD7
:1014960000002000D00A0319D10A0030510264303E
:1014A600031950020318632A0130883186208831D7
:1014B60087317F2788312000D300AA3A031D1E2AD0
:1014C600003051020A3003195002031C762A783084
:1014D600F8009230F9001330FA009330FB008231A5
:1014E600F82288319C2A5108A1005008A0000B3030
:1014F600A200A301A401A5018131012188312000A8
:101506005308A0000530A101A200A301A401A50172
:1015160081310121883102302000CB000430CA001D
:10152600BA30C900C90B952ACA0B952ACB0B952A46
:101536000000AA30200053060319A52AA23053063C
:10154600031D172B0430F4009330F5002630F60007
:101556009030F7008231D6228831103088318620CB
:1015660088318731D62788312000D200EE3A031D14
:10157600C42A1530F8009230F9004830FA0092304B
:10158600CF2A1A3052060319D32A7830F80092303F
:10159600F9001C30FA009330FB008231F8228831C2
:1015A600BA30F4009130F5005A30F6009230F70068
:1015B6008231D622883120308831862088318731A1
:1015C600D62788312000D200CF002130CE018831C5
:1015D600862088318731D62788312000D200CE0474
:1015E600AA305306031D042B20304F064E04031960
:1015F600172B5430F8009230F9005830FA00913029
:10160600132BA2305306031D172B4E084F04031944
:10161600172B5430F8009230F9003830FA00903029
:10162600FB008231F8228831AA30200053060319C4
:10163600202BA1305306031DA42B0C30F400F5011A
:101646008031B0208831B230F4009230F500AE30EF
:10165600F6009030F7008231D622883125008C1EA4
:101666000C1D992B30308831862088318731D6275A
:1016760088313A3A031D912B02302000CB0004300A
:10168600CA00BA30C900C90B462BCA0B462BCB0B76
:10169600462B000025008C1A0C19892B3130883115
:1016A600862088318731D62788313A3A031D812B27
:1016B60002302000CB000430CA00BA30C900C90B82
:1016C600622BCA0B622BCB0B622B000025008C1EF3
:1016D6000C1D792BB230F4009230F5006230F60022
:1016E6009330F7008231D6228831A42B0030F800DF
:1016F6009030F9001630FA009330A02B7830F800BD
:101706009230F900B830FA009330A02BBF30F800C1
:101716009030F900A030FA009230A02B7830F80013
:101726009230F900BB30FA009330A02B0030F8005D
:101736009030F9000D30FA009330FB008231F82228
:101746008831AA30200053060319AD2BA130530669
:10175600031DFA2D0F30F400F5018031B0208831D9
:101766001F30F4009330F500AE30F6009030F700ED
:101776008231D622883141308831862088318731BE
:10178600D62788314A3A031DCD2C34302000CA00B2
:10179600F130C900C90BCD2BCA0BCD2B0032250069
:1017A6008C180C1CC52C4030883186208831873136
:1017B600D62788314A3A031DBD2C34302000CA0092
:1017C600F130C900C90BE52BCA0BE52B0032250009
:1017D6008C1C0C1CB52C4130883186208831873111
:1017E600D62788314A3A031DAD2C22008D160230C9
:1017F6002000CB000430CA00BA30C900C90B012C46
:10180600CA0B012CCB0B012C0000403088318620FE
:1018160088318731D62788314A3A031DA52C0230F4
:101826002000CB000430CA00BA30C900C90B192CFD
:10183600CA0B192CCB0B192C0000DC302000E2005F
:101846000530E300292C25008C182E2C2000620878
:101856006304031D262C25008C180C1C9A2C2200D0
:101866008D1241308831862088318731D6278831DC
:1018760004302000CB000C30CA003530C900C90B3B
:10188600422CCA0B422CCB0B422C00324030883102
:10189600862088318731D627883168302000CA00F3
:1018A600E430C900C90B552CCA0B552C0000250085
:1018B6008C1C0C1C922C4130883186208831873153
:1018C600D62788314A3A031D8A2C34302000CA00B4
:1018D600F130C900C90B6D2CCA0B6D2C00322500E6
:1018E6008C180C1C822C1F30F4009330F500CD3080
:1018F600F6009330F7008231D6228831D82CDC30BE
:10190600F8009230F9001630FA009330D42C783073
:10191600F8009230F900BE30FA009330D42C3A30F9
:10192600F8009330F900EF30FA009030D42C84316F
:10193600152488313A30F8009330F9002C30FA003B
:101946009130D42C7830F8009230F900A830FA00A3
:101956009330D42C7830F8009230F900B030FA0089
:101966009330D42C3A30F8009330F900A030FA00C6
:101976009230D42C7830F8009230F900C130FA0059
:101986009330D42CDC30F8009230F9000D30FA0098
:101996009330D42C7830F8009230F900C430FA0035
:1019A6009330FB008231F82288312830F4009330DE
:1019B600F500AE30F6009030F7008231D62288313D
:1019C60051308831862088318731D62788315A3A76
:1019D600031DEF2D34302000CA00F130C900C90BB9
:1019E600F22CCA0BF22C003225008C180C1CE72DA9
:1019F60050308831862088318731D62788315A3A47
:101A0600031DDF2D34302000CA00F130C900C90B98
:101A16000A2DCA0B0A2D003225008C180C18D72D5A
:101A260051308831862088318731D62788315A3A15
:101A3600031DCF2D22000C1702302000CB000430EE
:101A4600CA00BA30C900C90B262DCA0B262DCB0BEE
:101A5600262D000050308831862088318731D627E0
:101A660088315A3A031DC72D02302000CB000430BE
:101A7600CA00BA30C900C90B3E2DCA0B3E2DCB0B8E
:101A86003E2D0000DC302000E2000530E3004E2D44
:101A960025000C18532D200062086304031D4B2DEE
:101AA60025008C180C1CBF2D22000C1351308831D8
:101AB600862088318731D627883104302000CB0034
:101AC6000C30CA003530C900C90B672DCA0B672D0B
:101AD600CB0B672D00325030883186208831873114
:101AE600D627883168302000CA00E430C900C90B07
:101AF6007A2DCA0B7A2D000025008C180C18B72DEC
:101B060051308831862088318731D62788315A3A34
:101B1600031DAF2D34302000CA00F130C900C90BB7
:101B2600922DCA0B922D003225008C180C1CA72D65
:101B36002830F4009330F500CD30F6009330F700EE
:101B46008231D6228831FA2DE630F8009230F9003B
:101B56001630FA009330F62D7830F8009230F900FE
:101B6600C730FA009330F62D4330F8009330F90071
:101B7600EF30FA009030F62D4330F8009330F9003C
:101B86002C30FA009130F62D7830F8009230F900BA
:101B9600B430FA009330F62D7830F8009230F90020
:101BA600AC30FA009330F62D4330F8009330F9004C
:101BB600A030FA009230F62D7830F8009230F90015
:101BC600CA30FA009330F62DE630F8009230F9006C
:101BD6000D30FA009330F62D7830F8009230F90087
:101BE6008430FA009330FB008231F8228831AA3023
:101BF600200053060319032EA1305306031D382F68
:101C06007730F4009330F5004430F6009230F70058
:101C16008231D622883170308831862088318731EA
:101C2600D62788312000D20070308831862088314E
:101C36008731D62788312000D2005208031D2B2E6B
:101C46007830F8009230F9008830FA009330592E37
:101C5600520A031D362E7830F8009230F9008C3087
:101C6600FA009330592EB4305202031C422E3C30F7
:101C7600F8009230F9008230FA009130592E9930EE
:101C8600520203184E2E3C30F8009230F900CF3045
:101C9600FA009030592E9E30520203185D2E3C30C9
:101CA600F8009230F9002F30FA009230FB008231B2
:101CB600F82288317730F4009330F5003130F600A1
:101CC6009330F7008231D62288311C302000E000A4
:101CD6005830E10010140530CB000F30CA00F43044
:101CE600C900C90B742ECA0B742ECB0B742E773019
:101CF600F4009330F500E930F6009130F7008231B8
:101D0600D622883160308831862088318731D627BF
:101D160088312000D20060308831862088318731B2
:101D2600D62788312000D2005208031DA22E783013
:101D3600F8009230F9009030FA009330C42E520A1F
:101D4600031DAD2E7830F8009230F9009430FA0079
:101D56009330C42E79305202031CB92EE130F800BC
:101D66009130F9008230FA009130C42E5A30520276
:101D76000318C82EE130F8009130F9002F30FA0030
:101D86009230FB008231F82288317730F4009330AC
:101D9600F500F030F6009230F7008231D622883115
:101DA6007730F4009330F5001630F6009130F700E6
:101DB6008231D62288312000D001D101F22E0530A1
:101DC600CB000F30CA00F430C900C90BE82ECA0B8D
:101DD600E82ECB0BE82E2000D00A0319D10A0030DA
:101DE60051020A30031950020318042F613088315A
:101DF600862088318731D62788312000D200520BC1
:101E0600E22E5203031D132F7730F4009330F500B2
:101E1600AF30F6009030F7008231D6228831362F67
:101E260002305206031D1F2F7730F8009330F90059
:101E36005B30FA009030322F03305206031D2B2FF1
:101E46007730F8009330F9000E30FA009130322FD7
:101E56007830F8009230F9009830FA009330FB00A1
:101E66008231F822883120001010A2305306031D5B
:101E76005E2FC730F4009130F500AD30F60090309B
:101E8600F7008231D6228831A03088318620883109
:101E96008731D62788312000D200AA3A03195E2F4F
:101EA6007830F8009230F900A430FA009330FB0045
:101EB6008231F8228831AA302000530603196B2F8D
:101EC600A130530603196B2FA2305306031D8D2F25
:101ED6004A30F4009130F500AD30F6009030F7004E
:101EE6008231D62288318230883186208831873106
:101EF600D62788312000D2008A3A03198D2F7830F0
:101F0600F8009230F900A030FA009330FB008231DD
:101F1600F8228831AA30200053060319962FA130E3
:101F26005306031DB82FD230F4009230F500FA3074
:101F3600F6009230F7008231D6228831813088311E
:101F4600862088318731D62788312000D2008A3A08
:101F56000319B82F7830F8009230F9009C30FA0057
:101F66009330FB008231F8228831AA3020005306D4
:101F76000319C52FA13053060319C52FA2305306E6
:101F8600031DF12F9F30F4009030F5002230F6004B
:101F96009230F7008231D6228831903088318620FF
:101FA600883126000D1403302000CB000830CA000B
:101FB6007830C900C90BDD2FCA0BDD2FCB0BDD2F07
:101FC60025008D18E32FC830F4009230F500A730B5
:101FD600F6009230F7008231D6228831200053086D
:101FE600F800013081318221883120005308F80041
:101FF60001308131822180319F28523465346C341E
:10200600613479342034643465342D3465346E3467
:1020160065347234673469347A3465346434003430
:102026005034693463346B34693474342034503436
:1020360072346F346734723461346D346D3469349C
:102046006E346734003445344534503452344F349A
:102056004D34203472346534613464342F3477342B
:10206600723469347434653400342034453472343F
:1020760072346F34723420344D3465346D345F34C9
:1020860063346F34703469346534723400344D34DB
:1020960075346C34743469345F34523458342034B3
:1020A60054346534733474346A34693467340034B0
:1020B6004434653463346F346434653420344F34C7
:1020C6006C34643420342D344634613469346C34D1
:1020D600003454346534733474346A346934673480
:1020E600203450346F347734653472342D3475347B
:1020F6007034003454346534733474342D344A34B3
:10210600693467347C3453347434613472347434CF
:10211600753470340034203474346F34203472349F
:1021260065347334743461347234743420347434E2
:102136006534733474340034373473346534673437
:102146002C342034623475347A347A3465347234FB
:102156002C342034203400344434653463346F34F2
:102166006434653420344E346534773420342D3469
:1021760020344F344B340034523465346C3461347B
:102186007934203465346E34653472346734693496
:102196007A3465346434003420344534723472340D
:1021A6006F34723420342D3420344D346934633422
:1021B600723465346C3400344D3465346D345F34B8
:1021C60043346F3470346934653472342034503497
:1021D600613473347334003450345434433420340B
:1021E6004534723472346F34723420347234653448
:1021F600733465347434003450346F347734653452
:10220600723469346E346734203462346F34613426
:102216007234643400344534723472346F34723438
:1022260020342D3420344434653463346F346434BC
:102236006534003443346F346E3464346F3433346D
:10224600203454346534733474346A3469346734EE
:1022560000345034543443342034453472347234A8
:102266006F34723420347434723469347034003408
:102276003134363476342D343134323476342034B5
:1022860073347534703470346C34793400344D34AE
:1022960061347334743465347234203445347234A2
:1022A6006134733465342034003420344534723458
:1022B60072346F347234203443346F346E34643481
:1022C6006F34333400342D343E34203449346E3484
:1022D60073346534723474342034503443344234A5
:1022E60000342034523465346D346F3476346534BA
:1022F600203462346F3461347234643400342034F0
:102306004534723472346F34723420342D342034B0
:10231600483469346734683400344D3475346C3469
:10232600743469345F345234583420345034613450
:102336007334733400343134323476342D343534D6
:102346007634203473347534703470346C347934A4
:1023560000343134363476342D3435347634203402
:1023660073347534703470346C34793400345434C6
:10237600653473347434203445344534503452341F
:102386004F344D34203400345434343420346234E1
:102396007534733420342834433441344E3429346C
:1023A600003456346F346C3474342034453472340B
:1023B60072346F3472342034483400345434653403
:1023C6007334743420345234463420345234533403
:1023D60053344934003456346F346C3474342034F6
:1023E6004534723472346F34723420344C340034D1
:1023F6002034503472346534733473342034533497
:1024060054344134523454340034453473347434BF
:10241600613462346C3469347334683469346E34CC
:102426006734003445344534503452344F344D34D7
:1024360020346534723472346F347234003420348C
:1024460062347534743474346F346E3420347434B6
:102456006534733474340034203445347234723441
:102466006F34723420342D3420344C346F34773446
:10247600003454346534733474342034523446345E
:1024860020343334763433340034203452346534D3
:10249600613464342F345734723469347434653497
:1024A600003445344534503452344F344D3420349E
:1024B600733469347A3465340034523458343334DE
:1024C600203454346534733474346A34693467346C
:1024D6000034573461346934743469346E34673483
:1024E600203466346F347234003443346F346D34C0
:1024F6006D34733420344534723472346F3472342C
:10250600003454342D346F347534743420344534E7
:10251600723472346F347234003443346F346E3430
:1025260064346F3433342034503461347334733448
:102536000034433475347234723420344534723482
:1025460072346F3472340034203466346F3472342B
:10255600203463346F346D346D3473340034543442
:102566006534733474342034523465346C346134D5
:102576007934003431343634763420347334753457
:10258600703470346C34793400347734613469349F
:10259600743469346E346734203420340034533450
:1025A600653474342034233420346F346634203454
:1025B600003443344834323420342D3420344F34FC
:1025C60046344634003443344834333420342D34CE
:1025D60020344F3446344634003452345334533462
:1025E600493420342D3420344F344B3400342034D5
:1025F6006334683461346E346E3465346C347334E9
:102606000034543465347334743469346E34673446
:102616002034003420344534723472346F347234CA
:1026260020343134003420344534723472346F34FB
:102636007234203432340034543465347334743490
:1026460020344334483432340034543465347334DB
:1026560074342034433448343334003433347634D9
:10266600333420342D3420344F344B340034433447
:102676004834323420342D3420344F344E34003430
:1026860043344834333420342D3420344F344E34DC
:1026960000344D3475346C34743469345F345234D8
:1026A60058340034203473346B34693470347034E5
:1026B600653464340034523458343334203450345E
:1026C600613473347334003443346F346E34643499
:1026D6006F343334203400347734613469347434DD
:1026E6002E342E342E34003454346534733474341A
:1026F600203452344634003452345834333420347F
:102706000034203431343034003420343134313420
:10271600003420343134323400342034313433340C
:1027260000342034313434340034203431343534F8
:1027360000342034313436340034203431343734E4
:1027460000342034313438340034203436346134A3
:102756000034203438346134003420343634623462
:1027660000342034383462340034203433340034B6
:1027760020343434003420343534003420343634B4
:1027860000342034373400342034383400342034D4
:0A279600393400346F346B34003422
:102E32007608EA001F30EA057708F9007608F800FC
:102E42000530FA00790DF90CF80CFA0B232F7808EB
:102E5200E8000F30E8057708F9007608F800093035
:102E6200FA00790DF90CF80CFA0B322F7808E6000B
:102E72000F30E6057708F9007608F8000D30FA0001
:102E8200790DF90CF80CFA0B412F7808EB0007309A
:102E9200EB056B08660768070907EA076A08F0008E
:102EA2006730F101F200F301EB2797317008F80067
:102EB2007108F9000A30FA00790DF90CF80CFA0BD6
:102EC2005D2F7808E900F630F0006908C8279731CD
:102ED200EA070930F0006B08C8279731F800680844
:102EE20068076807780766076907E800F000673037
:102EF200F101F200F301EB2797317008F800710835
:102F0200F9000A30FA00790DF90CF80CFA0B842F4B
:102F12007808E900F630F0006908C8279731E80719
:102F22000530F0006608C82797316B076907E6008D
:102F3200F0006730F101F200F301EB2797317008DE
:102F4200F8007108F9000A30FA00790DF90CF80C52
:102F5200FA0BA62F7808E900F630F0006908C827B6
:102F62009731E6076B080907090709076907EB00AC
:102F7200F0001A30F101F200F301EB2797317108EA
:102F8200E900F630F0006908C827EB070800F200F4
:102F9200F10170087218F107F0357008F218F107A4
:102FA200F03570087219F107F0357008F219F1075F
:102FB200F0357008721AF107F0357008F21AF1074D
:102FC200F0357008721BF107F0357008F21BF1073B
:102FD20071080800F401F501701CF32F7208F40760
:102FE2007308F53DF235F30DF136F00C70087104FB
:0E2FF200031DED2F7508F1007408F0000800B3
:020000040001F9
:04000E004CCFFFDBF9
:00000001FF
