:04000000803195288E
:100008007E1480310B1D222820005B085C04031934
:1000180011280130DB020030DC3B5F086004031963
:100028001928FF30DF07031CE00357085804031999
:100038002128FF30D707031CD8030B112000911C7F
:10004800932859085A04031966280130D902003048
:10005800DA3B702822000E158E170A302000D900CE
:10006800DA0102306428E830D9000330DA002200CF
:100078000E17632822000E132000101B4A28653033
:10008800E20A6202031C4B28E9014B28E201901A9C
:1000980054280430E900E830D9000330DA00572842
:1000A800101A5728E9010130D900DA017028220016
:1000B8000E118E13702822000E118E1305302000A9
:1000C800E9007028690884000630040203187028C3
:1000D800863104356E3E82002000670868040319E3
:1000E8007A280130E7020030E83B7C2822008E1293
:1000F80020006A086B04031986280130EA020030E0
:10010800EB3B8A28E830EA000330EB005D085E0428
:10011800031992280130DD020030DE3B91107E1079
:10012800090080319728E830EA000330EB004F30AF
:100138008400003085001830863182267E10200029
:1001480088310B28CB281430C4282730C4283430F1
:10015800C4283E30C4284630C4284C30C428513006
:10016800C4285530C4285830C4285B30C4285E30B1
:10017800C4286030C4286230C4286630C42870306F
:10018800F600C728F601F701F801F901DD2875081E
:10019800003A0319D028C6287408FA3E031CC6285A
:1001A8008400143004020318C628863104351A3E28
:1001B80082007608AF29F200F103262280317C30D4
:1001C8001A22803100301A2280317108F300CF30B2
:1001D800F305720BF128F317F328C030F304730802
:1001E8001A2280312B2A25082202013EF100023012
:1001F800DF20803120002108F7002008F600302297
:1002080080312508031913296408031D0D29241EAC
:1002180010296408303E112920306B2180312000DC
:10022800241E19292E306B21803120006608031DF9
:1002380024296408031D24292408183903192729A7
:100248006608303E282920306B2180312000A41D0B
:1002580030292E306B21803120006108031D3E2992
:100268006608031D3E296408031D3E2924081C391D
:10027800031941296108303E422920306B21803121
:100288002000241D4A292E306B218031200063086C
:10029800031D5B296108031D5B296608031D5B2993
:1002A8006408031D5B2924081E3903195E296308A5
:1002B800303E5F2920306B2180312000A41C672943
:1002C8002E306B21803120006508303E6B29F1000B
:1002D800262280317C301A22803140301A22803127
:1002E80071081A2280312B2A262280317C301A226A
:1002F800803100301A228031C0301A2280312330F8
:10030800F100F10B852900322B2A262280317C301E
:100318001A22803100301A22803180301A2280312E
:100328002330F100F10B962900322B2A2622803146
:100338007C301A22803100301A22803101301A2292
:1003480080310B30F2006230F100F10BA929F20B79
:10035800A92900002B2AF300262280315C301A22BA
:10036800803100301A22803173081A2280312B2202
:1003780080316830F200E430F100F10BC129F20B52
:10038800C12900000800262280317C301A228031E1
:1003980040301A22803171088400720885001200EA
:1003A8000319E129710884007208850000081A22DF
:1003B8008031F10A0319F20ACF292B2AF4002622E8
:1003C80080317C301A22803100301A228031393055
:1003D8001A2280311C301A228031740870381A228F
:1003E800803150301A2280316C301A228031710BE2
:1003F800002A38301A22803102307106031D072A7C
:1004080034301A2280310C301A22803106301A22F8
:10041800803101301A2280310B30F3006230F20053
:10042800F20B142AF30B142A00002B2AF000700890
:10043800910014181D2A16081F39031D1F2A141DA0
:1004480008001F2A24001614161C0800282A240055
:100458001615161D08002D2A7608E5001F30E5053B
:100468007708F9007608F8000530FA00790DF90CDC
:10047800F80CFA0B3A2A7808E3000F30E3057708FE
:10048800F9007608F8000930FA00790DF90CF80C33
:10049800FA0B492A7808E1000F30E1057708F900DE
:1004A8007608F8000D30FA00790DF90CF80CFA0B03
:1004B800582A7808E6000730E605660861076307EA
:1004C8000907E5076508F0006730F101F200F3015C
:1004D800022380317008F8007108F9000A30FA0028
:1004E800790DF90CF80CFA0B742A7808E400F63048
:1004F800F0006408DF228031E5070930F000660863
:10050800DF228031F8006308630763077807610713
:100518006407E300F0006730F101F200F301022301
:1005280080317008F8007108F9000A30FA00790D76
:10053800F90CF80CFA0B9B2A7808E400F630F00066
:100548006408DF228031E3070530F0006108DF220C
:10055800803166076407E100F0006730F101F200BE
:10056800F301022380317008F8007108F9000A309D
:10057800FA00790DF90CF80CFA0BBD2A7808E4009A
:10058800F630F0006408DF228031E10766080907C9
:10059800090709076407E600F0001A30F101F200C4
:1005A800F301022380317108E400F630F00064089A
:1005B800DF22E6070800F200F10170087218F1075F
:1005C800F0357008F218F107F03570087219F10764
:1005D800F0357008F219F107F0357008721AF10752
:1005E800F0357008F21AF107F0357008721BF10740
:1005F800F0357008F21BF10771080800F401F501E5
:10060800701C0A2B7208F4077308F53DF235F30DD8
:10061800F136F00C70087104031D042B7508F10005
:100628007408F000080053308F31C62783317108F1
:100638002000C8007008C7000030480205300319C0
:100648004702031C542B4808F9004708F800B32454
:1006580083317808A3007908A4007A08A5009A30A5
:10066800A0005930A1004030A2000B24833120089B
:10067800AF002108B0002208B1008030AC01AD0005
:10068800C130AE00572383312C08B8002D08B900BB
:100698002E08BA00C3243908C6003808C500080067
:1006A800C501C60108002C08B2002D08B3002E08A9
:1006B800B4000310330D340DB7002F08B200300812
:1006C800B3003108B4000310330D340DB6003708F9
:1006D80003197A2B3608370236080318822BB20022
:1006E8003708B20219303202031C812B2F08AC00E4
:1006F8003008AD003108AE000800360803190800BC
:10070800370836020318902B3708B2003608B202B1
:1007180019303202031808000630B500AE1BB517B1
:10072800B11B3517AD17AE01B017B1013608370246
:100738000318B52BAF35B00DB10DB6033608370623
:100748000319B02BB503350807390319B02B9E2BB5
:10075800AE36AD0CAC0CB70A370836060319CF2BEA
:10076800AC2B370836020318CF2BAC35AD0DAE0DC8
:10077800B703360837060319CB2BB50335080739F5
:100788000319CB2BB92BB136B00CAF0CB60A37080E
:100798003606031DC72BB51FDA2BFF30AC06AD0696
:1007A800AE06AC0A0319AD0A0319AE0A351FE52BCC
:1007B800FF30AF06B006B106AF0A0319B00A031935
:1007C800B10AB5012C08AF072D08B03D2E08B13D80
:1007D800B11FF92BFF30AF06B006B106AF0A0319F7
:1007E800B00A0319B10AB501B50A2F08F00030089C
:1007F800F1003108F2003708F3003508F4007524D9
:100808007008AC007108AD007208AE00080020083E
:10081800FB002108FC002208FD0003107C0D7D0D63
:10082800A6002608031D1C2CA001A101A201080096
:100838002308FB002408FC002508FD0003107C0D9C
:100848007D0DAB002B08031D2D2CA001A101A201D9
:1008580008002B087B3EA6072208AB002508AB063C
:100868008030AB05FF30A117A417A305A4050730F6
:10087800A501A701A801A901AA00201C492C230849
:10088800A7072408A83D2508A93DA236A10CA00C5D
:10089800A335A40DA50DAA0B412C0930AA00201CD4
:1008A8005B2C2308A7072408A83D2508A93DA236E4
:1008B800A10CA00CA936A80CA70CAA0B532C27082E
:1008C800F0002808F1002908F2002608F3002B0898
:1008D800F40075247008A0007108A1007208A20035
:1008E8000800730803197D2C720871047004031D35
:1008F800852CF001F101F2010800F30AF236F10C3F
:10090800F00CFE3072050319932C812CF30AF00ABF
:100918000319F10A0319F20AF236F10CF00CFF3050
:1009280072050319A02C8A2C02307302031CA22C16
:10093800F303F035F10DF20DF11F982C731CF11330
:10094800F3367308F700F601F5017508F004760828
:10095800F1047708F2047408031DF21708007808F8
:10096800F0007908F1008E30F201F300F4017524EB
:100978007008F8007108F9007208FA0008003808D1
:10098800BC003908BD003A08BE0003103D0D3E0DFD
:10099800C4004408031DD52CB801B901BA01BB0134
:1009A80008003808BC003908BD003A08BE001730F6
:1009B800BE36BD0CBC0C890BDC2C3C08BF00B9173B
:1009C800BA013808C0003908C1003A08C2008E30A0
:1009D800C301C402C41FFC2C4408803A8F3E031C88
:1009E800D02CC336C20CC10CC00CC40FF52C092D79
:1009F800183044020318D02C44080319092DC035B7
:100A0800C10DC20DC30DC403002D3F080319172DD6
:100A1800C009C109C209C309C00A0319C10A0319D7
:100A2800C20A0319C30A4308BB004208BA004108B6
:100A3800B9004008B8000800FB0003308F31D82700
:100A4800853122008C138D120C136630F0002B3088
:100A5800F100E52585317B08F000F101E5258531B8
:100A6800A32DB630F4009130F5002330F600913014
:100A7800F7008F315D2785316730F0002B30F100AA
:100A8800E52585316430F000F10112268531053005
:100A9800FA000F30F900F430F800F80B512DF90B7B
:100AA800512DFA0B512D6430F000F10112268531D9
:100AB80025008C1D5C2D0330FA000830F9007830D1
:100AC800F800F80B652DF90B652DFA0B652DA02D97
:100AD8006830F0002B30F100E525CC30F40092307E
:100AE800F5002F30F6009030F7008F315D27853103
:100AF8002930FA009630F900A630F800F80B822D5C
:100B0800F90B822DFA0B822D4830F4009030F50055
:100B1800DE30F6009230F7008F315D2785313D30A9
:100B2800FA00E130F9007A30F800F80B992DF90B4A
:100B3800992DFA0B992D0032FF30FB00AB2D7B0865
:100B4800013A0319352D033A03196C2DAB2D693081
:100B5800F0002B30F100E5252630F4009030F50048
:100B68001530F6009130F7008F315D27853125006B
:100B78008C19BB2D0330FA000830F9007830F800E2
:100B8800F80BC42DF90BC42DFA0BC42D2630F40034
:100B98009030F5008F30F6009130F7008F315D27E7
:100BA800853125008C1DD52D0330FA000830F90059
:100BB8007830F800F80BDE2DF90BDE2DFA0BDE2D60
:100BC800212D8B1322000F110000000000000000EF
:100BD80000000000000000000000F201701CF72D6A
:100BE80022000F15F92D22000F111030F136F00CEC
:100BF800F20A7202031CF22D00000000000000003F
:100C08000000000022000F15000000000000000096
:100C180000000000000000008B1708007108200089
:100C2800E8007008E70022008E1608008031A72827
:100C38008031A9288031AB288031AD288031AF2898
:100C48008031B1288031B3288031B5288031B72868
:100C58008031B9288031BB288031BD288031BF2838
:100C68008031C6288031C1288031C6288031C62805
:100C78008031C6288031C6288031C3288C160530BB
:100C8800F2000F30F100F430F000F00B492EF10BB8
:100C9800492EF20B492E21008E150E1624009417AA
:100CA80028309500143092000800063020009C007F
:100CB800FA309B002100911404302B009700FF307C
:100CC80096000C302C009C00013025009F002C0061
:100CD8009A01080080315F2880312E28803137281A
:100CE80080313E2880315B28803170288F31DA2F9F
:100CF8008F31DF2F8F31E42F8F31E92F640080018E
:080D08000131890B832E003438
:101016007A3021009900D0309500200095010B11FF
:101026008B160F3021008C00CF308D001A308E00C9
:101036008B308F00F63090002F3026008C00EF307A
:101046008D0020008C018D018E0140308F009001B3
:1010560025008C018D0124008D018F019001230054
:101066008C010C308D000F308F000430900028006A
:101076008C018D01F92786315926883105302000EB
:10108600E9008C12C830F000F10186311226883151
:1010960020008C168631422688313830F10008301F
:1010A6008131E2218831CC30F4009230F50059309C
:1010B600F6009030F7005D27883120000C168B175C
:1010C60022008E1703302000CB000830CA0078308B
:1010D600C900C90B6C28CA0B6C28CB0B6C28AA302C
:1010E600F000F1008531E525883185302000C90002
:1010F600C90B7B285530F000F1008531E525883194
:1011060085302000C900C90B86282100961D8F282E
:10111600023085312025883125008C1D9C28CC3055
:10112600F8009230F9001530FA009130FB00732771
:101136008831CB30F4009030F5008A30F6009030DC
:10114600F7005D270C30F400F5018031A6208831C8
:101156000030D827883102302000CB000430CA0086
:10116600BA30C900C90BB528CA0BB528CB0BB528B0
:1011760000005F30C6278831AF302000DB000E301C
:10118600DC00DD285F30C6278831003071027B30F5
:1011960003197002031CE7288331172388310030B6
:1011A60046021E30031945020318E7285B085C0453
:1011B6000319E7285F30C62788310030710268308E
:1011C60003197002031CC5285F30C627883100301A
:1011D60071026830031970020318F9283F30F800CD
:1011E6009130F9008230FA00913028295F30C62705
:1011F6008831003071027B3003197002031C0B2901
:101206003F30F8009130F9006830FA009130282913
:10121600833117238831003046021E3003194502F8
:10122600031C1D29FC30F8009030F9002530FA0027
:10123600923028295B085C04031D2B293F30F800F7
:101246009130F9001930FA009230FB00732788318B
:101256000130D8271030F400F5018031A6208831FE
:1012660004302000CB000C30CA003530C900C90B51
:101276003A29CA0B3A29CB0B3A290032AF30200063
:10128600DB000E30DC0073295F30C6278831003062
:1012960071027B3003197002031C7D296330C62757
:1012A600883100307102F5300319700203187D2968
:1012B6006330C62788310130710248300319700245
:1012C600031C7D29833117238831003046023230D2
:1012D6000319450203187D295B085C0403197D295F
:1012E6005F30C627883100307102683003197002FA
:1012F600031C47295F30C6278831003071026830E9
:101306000319700203188B294D30F8009130A62975
:101316005F30C6278831003071027B3003197002B6
:10132600031C99294D30F8009130B8296330C6273F
:10133600883100307102F530031970020318AB29A9
:10134600F830F8009030F9008230FA009130DA294E
:101356006330C627883101307102483003197002A4
:10136600031CBD29F830F8009030F9006830FA0007
:101376009130DA29833117238831003046023C3018
:1013860003194502031CCF294630F8009230F900B4
:101396002530FA009230DA295B085C04031DDD294A
:1013A6004D30F8009130F9001930FA009230FB0008
:1013B6007327883120000C1D222A0030D827883157
:1013C6001330F4009030F5008A30F6009030F700C4
:1013D6005D27883122008C1703302000CB000830AF
:1013E600CA007830C900C90BF629CA0BF629CB0BFF
:1013F600F62920000130E901E90AF4009230F500EF
:101406001930F6009030F7005D2788310E2A043037
:1014160069060319132A053020006906031D0A2AE6
:1014260004306906031D3A2A1A30F8009030F90094
:101436002A30FA009230FB00732788313A2A13309B
:10144600F4009030F500D530F6009230F7005D27B5
:10145600883107302000CB001730CA006F30C90032
:10146600C90B332ACA0B332ACB0B332A00000330AD
:101476002000CB000830CA007830C900C90B412AC9
:10148600CA0B412ACB0B412A9C30F4009130F5005F
:101496003530F6009230F7005D2788312000CC0108
:1014A600CD0100304D020A3003194C020318832A7D
:1014B60001301B2788313D278831AA3A0319832A30
:1014C60020004D08A1004C08A0000B30A200A3018B
:1014D600A401A5018031F720883102302000CB001D
:1014E6000430CA00BA30C900C90B772ACA0B772A5A
:1014F600CB0B772A00002000CC0A0319CD0A542A08
:10150600003020004D020A3003194C02031C952AB4
:101516000D30F8009230F9009330FA009230FB005B
:101526007327883120001030CE011B2788313D27D4
:1015360088312000CE00EE3A031DA92AA930F80012
:101546009130F900E930FA009130B42A1A304E068B
:101556000319B72A0D30F8009230F9009C30FA00D2
:101566009230FB00732788315B30F4009130F50030
:10157600FB30F6009130F7005D27883120301B27BD
:1015860088313D2788312000CE00203A0319D52A1C
:10159600F530F8009130F9008D30FA009230FB00FA
:1015A6007327883121301B2788313D278831200059
:1015B600CE004E080319E82AF530F8009130F900FC
:1015C6009630FA009230FB0073270C30F400F501D8
:1015D6008031A62088313B30F4009230F5008A3005
:1015E600F6009030F7005D27883125008C1E0C1D13
:1015F6005B2B30301B2788313D2788313A3A031D53
:10160600532B02302000CB000430CA00BA30C90088
:10161600C90B0B2BCA0B0B2BCB0B0B2B000025007E
:101626008C1A0C194B2B31301B2788313D278831FA
:101636003A3A031D432B02302000CB000430CA0087
:10164600BA30C900C90B252BCA0B252BCB0B252B72
:10165600000025008C1E0C1D3B2B3B30F400923005
:10166600F500BE30F6009130F7005D278831642B17
:101676000030F8009030F9009630FA009230622B74
:101686000D30F8009230F9001E30FA009330622BCC
:101696009B30F8009030F9002930FA009230622B26
:1016A6000D30F8009230F9002130FA009330622BA9
:1016B6000030F8009030F9008D30FA009230FB00CF
:1016C60073270F30F400F5018031A62088319F3052
:1016D600F4009230F5008A30F6009030F7005D276E
:1016E600883141301B2788313D2788314A3A031D0E
:1016F600742C34302000CA00F130C900C90B812B8C
:10170600CA0B812B003225008C180C1C6C2C403027
:101716001B2788313D2788314A3A031D642C343013
:101726002000CA00F130C900C90B972BCA0B972BB2
:10173600003225008C1C0C1C5C2C41301B27883188
:101746003D2788314A3A031D542C22008D1602305B
:101756002000CB000430CA00BA30C900C90BB12B37
:10176600CA0BB12BCB0BB12B000040301B278831A5
:101776003D2788314A3A031D4C2C02302000CB000D
:101786000430CA00BA30C900C90BC72BCA0BC72B15
:10179600CB0BC72B0000DC302000DD000530DE005F
:1017A600D72B25008C18DC2B20005D085E04031D5A
:1017B600D42B25008C180C1C412C22008D12413094
:1017C6001B2788313D27883104302000CB000C30A0
:1017D600CA003530C900C90BEE2BCA0BEE2BCB0B5A
:1017E600EE2B003240301B2788313D278831683088
:1017F6002000CA00E430C900C90BFF2BCA0BFF2B1F
:10180600000025008C1C0C1C392C41301B2788310C
:101816003D2788314A3A031D312C34302000CA0056
:10182600F130C900C90B152CCA0B152C0032250046
:101836008C180C1C292C9F30F4009230F5003330A4
:10184600F6009330F7005D2788317E2C6530F8006E
:101856009230F9009630FA0092307B2C0D30F80069
:101866009230F9002430FA0093307B2CBA30F8001D
:101876009230F900BB30FA0090307B2C833117236D
:101886008831BA30F8009230F900E930FA00903029
:101896007B2C0D30F8009230F9000E30FA009330B0
:1018A6007B2C0D30F8009230F9001630FA00933098
:1018B6007B2CBA30F8009230F9002930FA009230C9
:1018C6007B2C0D30F8009230F9002730FA00933067
:1018D6007B2C6530F8009230F9008D30FA0092309A
:1018E6007B2C0D30F8009230F9002A30FA00933044
:1018F600FB0073278831A830F4009230F5008A3057
:10190600F6009030F7005D27883151301B2788316B
:101916003D2788315A3A031D852D34302000CA00F0
:10192600F130C900C90B952CCA0B952C0032250045
:101936008C180C1C7D2D50301B2788313D27883193
:101946005A3A031D752D34302000CA00F130C90003
:10195600C90BAB2CCA0BAB2C003225008C180C180B
:101966006D2D51301B2788313D2788315A3A031D8A
:10197600652D22000C1702302000CB000430CA006F
:10198600BA30C900C90BC52CCA0BC52CCB0BC52C4C
:10199600000050301B2788313D2788315A3A031DF5
:1019A6005D2D02302000CB000430CA00BA30C900D9
:1019B600C90BDB2CCA0BDB2CCB0BDB2C0000DC3081
:1019C6002000DD000530DE00EB2C25000C18F02C85
:1019D60020005D085E04031DE82C25008C180C1CF5
:1019E600552D22000C1351301B2788313D27883195
:1019F60004302000CB000C30CA003530C900C90BBA
:101A0600022DCA0B022DCB0B022D003250301B27A4
:101A160088313D27883168302000CA00E430C9008B
:101A2600C90B132DCA0B132D000025008C180C189A
:101A36004D2D51301B2788313D2788315A3A031DD9
:101A4600452D34302000CA00F130C900C90B292DBC
:101A5600CA0B292D003225008C180C1C3D2DA830F0
:101A6600F4009230F5003330F6009330F7005D272E
:101A760088318F2D6F30F8009230F9009630FA00D9
:101A860092308C2D0D30F8009230F9002D30FA008E
:101A960093308C2DC330F8009230F900BB30FA0039
:101AA60090308C2DC330F8009230F900E930FA00FE
:101AB60090308C2D0D30F8009230F9001A30FA0073
:101AC60093308C2D0D30F8009230F9001230FA0068
:101AD60093308C2DC330F8009230F9002930FA008B
:101AE60092308C2D0D30F8009230F9003030FA002B
:101AF60093308C2D6F30F8009230F9008D30FA005B
:101B060092308C2D0D30F8009230F900EE30FA004C
:101B16009230FB0073278831E630F4009230F500EE
:101B2600E530F6009130F7005D27883170301B27CD
:101B360088313D2788312000CE0070301B27883140
:101B46003D2788312000CE004E08031DB22D0D30F2
:101B5600F8009230F900F230FA009230E02D4E0A89
:101B6600031DBD2D0D30F8009230F900F630FA0055
:101B76009230E02DB4304E02031CC92DDD30F80042
:101B86009130F9003130FA009130E02D99304E0253
:101B96000318D52DDD30F8009130F900AB30FA008E
:101BA6009030E02D9E304E020318E32DDD30F80014
:101BB6009130F900D030FA009130FB00732788315C
:101BC600E630F4009230F500B130F6009230F700BE
:101BD6005D278831200010140430CB000C30CA0079
:101BE6003530C900C90BF52DCA0BF52DCB0BF52DDC
:101BF6000032E630F4009230F5007D30F600913088
:101C0600F7005D27883160301B2788313D278831F2
:101C16002000CE0060301B2788313D278831200008
:101C2600CE004E08031D1F2E0D30F8009230F9002D
:101C3600FA30FA009230412E4E0A031D2A2E0D303C
:101C4600F8009230F900FE30FA009230412E7930D9
:101C56004E02031C362E7530F8009130F9003130F3
:101C6600FA009130412E5A304E020318442E753038
:101C7600F8009130F900D030FA009130FB0073275C
:101C86008831E630F4009230F5007930F600923073
:101C9600F7005D278831E630F4009230F500E23037
:101CA600F6009030F7005D2788312000CC01CD0189
:101CB6006C2E0530CB000F30CA00F430C900C90BBA
:101CC600622ECA0B622ECB0B622E2000CC0A0319A1
:101CD600CD0A00304D020A3003194C0203187C2E3F
:101CE60061301B2788313D2788312000CE004E0BFE
:101CF6005C2E4E03031D8A2EE630F4009230F5006A
:101D06008B30F6009030F7005D278831AC2E02301C
:101D16004E06031D962EE630F8009230F900373055
:101D2600FA009030A92E03304E06031DA22EE6308F
:101D3600F8009230F900DA30FA009030A92E0D3012
:101D4600F8009230F9000230FA009330FB00732756
:101D56008831200010100730F4009130F5008930EA
:101D6600F6009030F7005D27883182301B278831D6
:101D76003D2788312000CE008A3A0319CC2E0D303B
:101D8600F8009230F9000A30FA009330FB0073270E
:101D960088315B30F4009230F5008330F6009230E3
:101DA600F7005D27883181301B2788313D27883130
:101DB6002000CE008A3A0319EA2E0D30F800923040
:101DC600F9000630FA009330FB00732788317B3028
:101DD600F4009030F500C330F6009130F7005D272F
:101DE600883190301B27883126000D1403302000DF
:101DF600CB000830CA007830C900C90B002FCA0BC7
:101E0600002FCB0B002F25008D18062F5130F40024
:101E16009230F5003030F6009230F7005D27013041
:101E2600853120258831013085312025803195285E
:101E3600F10026000D1027000D108530F000F00B84
:101E4600222FF201711C2A2F27000D142C2F270098
:101E56000D108530F136F000F00B2F2F0830F20A06
:101E66007202031C252F27000D148530F000F00B9D
:101E76003A2F080025008D193D2FC730F000F00BD2
:101E8600422F0032F201F10125008D194C2FF23656
:101E96004E2F0314F20C8530F000F00B502F083053
:101EA600F10A7102031C472F8530F000F00B592F01
:101EB6007208080081319A2188318131892188315F
:101EC6007508F2007408F1008131C721883181312B
:101ED600782188317708F2007608F1008131C72928
:101EE6000330D82722008C138D120C1320001010FB
:101EF6003930F0003030F1008531E5258831E830A1
:101F0600F0000330F10086311226883181319A21A2
:101F160088318131892188317908F2007808F10009
:101F26008131C72188318131782188317B08F200DF
:101F36007A08F1008131C721883129302000A200BA
:101F46009630A100A630A000A00BA72FA10BA72FAB
:101F5600A20BA72F9030F4009130F5006A30F600FE
:101F66009030F7005D27883119302000A2005A30E2
:101F7600A100C830A000A00BBE2FA10BBE2FA20B44
:101F8600BE2F0032892FF3008B13730821009D00AA
:101F96009D18CB2F1C08F500F4011B08F4048B17C1
:101FA6007508F1007408F0000800F000EE2F22001A
:101FB6000F168F160F17080022000F168F120F1715
:101FC600080022000F128F120F13080022000F12B2
:101FD6008F120F17080070088400043004020318DB
:101FE6000800863104357A3E8200080083302200DC
:101FF6009700A33021009E000800523465346C34EB
:10200600613479342034643465342D3465346E3467
:1020160065347234673469347A3465346434003430
:102026005034693463346B34693474342034503436
:1020360072346F346734723461346D346D3469349C
:102046006E34673400344D3475346C34743469340A
:102056005F34523458342034543465347334743411
:102066006A346934673400344434653463346F3415
:102076006434653420344F346C34643420342D3465
:102086004634613469346C34003454346534733402
:1020960074346A3469346734203450346F34773496
:1020A600653472342D3475347034003454346534E8
:1020B600733474342D344A34693467347C3453347D
:1020C60074346134723474347534703400342034AA
:1020D60074346F3420347234653473347434613438
:1020E6007234743420347434653473347434003484
:1020F60037347334653467342C34203462347534A1
:102106007A347A34653472342C34203420340034F2
:102116004434653463346F346434653420344E3467
:102126006534773420342D3420344F344B34003426
:10213600523465346C3461347934203465346E3409
:1021460065347234673469347A34653464340034FF
:1021560020344534723472346F34723420342D3462
:1021660020344D3469346334723465346C3400344D
:1021760050345434433420344534723472346F341A
:1021860072342034723465347334653474340034F4
:1021960050346F3477346534723469346E3467344E
:1021A600203462346F34613472346434003445341C
:1021B600723472346F34723420342D342034443403
:1021C600653463346F3464346534003450345434C5
:1021D600433420344534723472346F3472342034CC
:1021E60074347234693470340034313436347634AD
:1021F6002D343134323476342034733475347034BB
:1022060070346C34793400344D346134733474343E
:102216006534723420344534723461347334653431
:10222600203400342D343E34203449346E34733433
:1022360065347234743420345034433442340034B8
:102246002034523465346D346F347634653420343A
:1022560062346F346134723464340034203445346B
:10226600723472346F34723420342D34203448344E
:1022760069346734683400343134323476342D347A
:1022860035347634203473347534703470346C34A9
:10229600793400343134363476342D34353476346A
:1022A600203473347534703470346C3479340034BB
:1022B60054346534733474342034453445345034DE
:1022C60052344F344D342034003456346F346C3429
:1022D600743420344534723472346F34723420349A
:1022E60048340034543465347334743420345234EE
:1022F600463420345234533453344934003456343B
:102306006F346C34743420344534723472346F3420
:10231600723420344C3400342034503472346534F2
:102326007334733420345334543441345234543473
:102336000034453473347434613462346C34693433
:102346007334683469346E34673400344534453444
:10235600503452344F344D34203465347234723430
:102366006F347234003454346534733474346A34DC
:102376006934673420345034613473347334003430
:10238600203462347534743474346F346E342034CB
:102396007434653473347434003420344534723400
:1023A60072346F34723420342D3420344C346F340C
:1023B60077340034543465347334743420345234EE
:1023C60046342034333476343334003420345234B3
:1023D6006534613464342F34573472346934743458
:1023E6006534003445344534503452344F344D341A
:1023F6002034733469347A346534003457346134A4
:102406006934743469346E346734203466346F3416
:102416007234003443346F346D346D347334203485
:102426004534723472346F347234003454342D347B
:102436006F347534743420344534723472346F34E6
:102446007234003443347534723472342034453473
:10245600723472346F3472340034203466346F341C
:102466007234203463346F346D346D347334003415
:1024760054346534733474342034523465346C34D3
:10248600613479340034313436347634203473345C
:102496007534703470346C34793400347734613484
:1024A6006934743469346E3467342034203400342B
:1024B6005334653474342034233420346F34663412
:1024C6002034003443344834323420342D3420341C
:1024D6004F3446344634003443344834333420349D
:1024E6002D3420344F344634463400345234533479
:1024F6005334493420342D3420344F344B34003493
:1025060020346334683461346E346E3465346C342C
:102516007334003420344534723472346F34723478
:1025260020343134003420344534723472346F34FC
:102536007234203432340034543465347334743491
:1025460020344334483432340034543465347334DC
:1025560074342034433448343334003433347634DA
:10256600333420342D3420344F344B340034433448
:102576004834323420342D3420344F344E34003431
:1025860043344834333420342D3420344F344E34DD
:1025960000344D3475346C34743469345F345234D9
:1025A60058340034203473346B34693470347034E6
:1025B60065346434003477346134693474342E34C9
:1025C6002E342E3400345434653473347434203449
:1025D600523446340034203431343034003420341C
:1025E6003134313400342034313432340034203440
:1025F600313433340034203431343434003420342C
:102606003134353400342034313436340034203417
:1026160031343734003420343634613400342034D5
:102626003834613400342034363462340034203493
:1026360038346234003420343334003420343434B3
:102646000034203435340034203436340034203419
:1026560037340034203438340034203439340034EC
:062666006F346B340034F8
:020000040001F9
:04000E004CCFFFDBF9
:00000001FF
