:04000000803195288E
:100008007E1480310B1D222820005B085C04031934
:1000180011280130DB020030DC3B5F086004031963
:100028001928FF30DF07031CE00357085804031999
:100038002128FF30D707031CD8030B112000911C7F
:10004800932859085A04031966280130D902003048
:10005800DA3B702822000E158E170A302000D900CE
:10006800DA0102306428E830D9000330DA002200CF
:100078000E17632822000E132000101B4A28653033
:10008800E20A6202031C4B28E9014B28E201901A9C
:1000980054280430E900E830D9000330DA00572842
:1000A800101A5728E9010130D900DA017028220016
:1000B8000E118E13702822000E118E1305302000A9
:1000C800E9007028690884000630040203187028C3
:1000D80085310435EA3E8200200067086804031968
:1000E8007A280130E7020030E83B7C2822008E1293
:1000F80020006A086B04031986280130EA020030E0
:10010800EB3B8A28E830EA000330EB005D085E0428
:10011800031992280130DD020030DE3B91107E1079
:10012800090080319728E830EA000330EB004F30AF
:10013800840000308500183086315B267E10200050
:1001480088310528CB281430C4282730C4283430F7
:10015800C4283E30C4284630C4284C30C428513006
:10016800C4285530C4285830C4285B30C4285E30B1
:10017800C4286030C4286230C4286630C42870306F
:10018800F600C728F601F701F801F901DD2875081E
:10019800003A0319D028C6287408FA3E031CC6285A
:1001A8008400143004020318C62886310435003E42
:1001B80082007608AF29F200F103262280317C30D4
:1001C8001A22803100301A2280317108F300CF30B2
:1001D800F305720BF128F317F328C030F304730802
:1001E8001A2280312B2A25082202013EF100023012
:1001F800DF20803120002108F7002008F600302297
:1002080080312508031913296408031D0D29241EAC
:1002180010296408303E112920306B2180312000DC
:10022800241E19292E306B21803120006608031DF9
:1002380024296408031D24292408183903192729A7
:100248006608303E282920306B2180312000A41D0B
:1002580030292E306B21803120006108031D3E2992
:100268006608031D3E296408031D3E2924081C391D
:10027800031941296108303E422920306B21803121
:100288002000241D4A292E306B218031200063086C
:10029800031D5B296108031D5B296608031D5B2993
:1002A8006408031D5B2924081E3903195E296308A5
:1002B800303E5F2920306B2180312000A41C672943
:1002C8002E306B21803120006508303E6B29F1000B
:1002D800262280317C301A22803140301A22803127
:1002E80071081A2280312B2A262280317C301A226A
:1002F800803100301A228031C0301A2280312330F8
:10030800F100F10B852900322B2A262280317C301E
:100318001A22803100301A22803180301A2280312E
:100328002330F100F10B962900322B2A2622803146
:100338007C301A22803100301A22803101301A2292
:1003480080310B30F2006230F100F10BA929F20B79
:10035800A92900002B2AF300262280315C301A22BA
:10036800803100301A22803173081A2280312B2202
:1003780080316830F200E430F100F10BC129F20B52
:10038800C12900000800262280317C301A228031E1
:1003980040301A22803171088400720885001200EA
:1003A8000319E129710884007208850000081A22DF
:1003B8008031F10A0319F20ACF292B2AF4002622E8
:1003C80080317C301A22803100301A228031393055
:1003D8001A2280311C301A228031740870381A228F
:1003E800803150301A2280316C301A228031710BE2
:1003F800002A38301A22803102307106031D072A7C
:1004080034301A2280310C301A22803106301A22F8
:10041800803101301A2280310B30F3006230F20053
:10042800F20B142AF30B142A00002B2AF000700890
:10043800910014181D2A16081F39031D1F2A141DA0
:1004480008001F2A24001614161C0800282A240055
:100458001615161D08002D2A7608E5001F30E5053B
:100468007708F9007608F8000530FA00790DF90CDC
:10047800F80CFA0B3A2A7808E3000F30E3057708FE
:10048800F9007608F8000930FA00790DF90CF80C33
:10049800FA0B492A7808E1000F30E1057708F900DE
:1004A8007608F8000D30FA00790DF90CF80CFA0B03
:1004B800582A7808E6000730E605660861076307EA
:1004C8000907E5076508F0006730F101F200F3015C
:1004D800022380317008F8007108F9000A30FA0028
:1004E800790DF90CF80CFA0B742A7808E400F63048
:1004F800F0006408DF228031E5070930F000660863
:10050800DF228031F8006308630763077807610713
:100518006407E300F0006730F101F200F301022301
:1005280080317008F8007108F9000A30FA00790D76
:10053800F90CF80CFA0B9B2A7808E400F630F00066
:100548006408DF228031E3070530F0006108DF220C
:10055800803166076407E100F0006730F101F200BE
:10056800F301022380317008F8007108F9000A309D
:10057800FA00790DF90CF80CFA0BBD2A7808E4009A
:10058800F630F0006408DF228031E10766080907C9
:10059800090709076407E600F0001A30F101F200C4
:1005A800F301022380317108E400F630F00064089A
:1005B800DF22E6070800F200F10170087218F1075F
:1005C800F0357008F218F107F03570087219F10764
:1005D800F0357008F219F107F0357008721AF10752
:1005E800F0357008F21AF107F0357008721BF10740
:1005F800F0357008F21BF10771080800F401F501E5
:10060800701C0A2B7208F4077308F53DF235F30DD8
:10061800F136F00C70087104031D042B7508F10005
:100628007408F00008002008FB002108FC002208DC
:10063800FD0003107C0D7D0DA6002608031D282B48
:10064800A001A101A20108002308FB002408FC0066
:100658002508FD0003107C0D7D0DAB002B08031D44
:10066800392BA001A101A20108002B087B3EA60797
:100678002208AB002508AB068030AB05FF30A11778
:10068800A417A305A4050730A501A701A801A9017E
:10069800AA00201C552B2308A7072408A83D2508D5
:1006A800A93DA236A10CA00CA335A40DA50DAA0B3B
:1006B8004D2B0930AA00201C672B2308A707240804
:1006C800A83D2508A93DA236A10CA00CA936A80C66
:1006D800A70CAA0B5F2B2708F0002808F1002908AF
:1006E800F2002608F3002B08F40035247008A00057
:1006F8007108A1007208A20008002C08B2002D0899
:10070800B3002E08B4000310330D340DB7002F08C2
:10071800B2003008B3003108B4000310330D340DB3
:10072800B60037080319A42B360837023608031811
:10073800AC2BB2003708B20219303202031CAB2BC3
:100748002F08AC003008AD003108AE0008003608AC
:1007580003190800370836020318BA2B3708B20005
:100768003608B20219303202031808000630B50004
:10077800AE1BB517B11B3517AD17AE01B017B101D8
:10078800360837020318DF2BAF35B00DB10DB603AD
:10079800360837060319DA2BB50335080739031964
:1007A800DA2BC82BAE36AD0CAC0CB70A37083606B8
:1007B8000319F92BD62B370836020318F92BAC3559
:1007C800AD0DAE0DB703360837060319F52BB50383
:1007D800350807390319F52BE32BB136B00CAF0CEC
:1007E800B60A37083606031DF12BB51F042CFF3057
:1007F800AC06AD06AE06AC0A0319AD0A0319AE0A7B
:10080800351F0F2CFF30AF06B006B106AF0A03192B
:10081800B00A0319B10AB5012C08AF072D08B03D7D
:100828002E08B13DB11F232CFF30AF06B006B1062C
:10083800AF0A0319B00A0319B10AB501B50A2F089E
:10084800F0003008F1003108F2003708F3003508ED
:10085800F40035247008AC007108AD007208AE00D1
:100868000800730803193D2C720871047004031DF5
:10087800452CF001F101F2010800F30AF236F10CFF
:10088800F00CFE3072050319532C412CF30AF00AC0
:100898000319F10A0319F20AF236F10CF00CFF30D1
:1008A80072050319602C4A2C02307302031C622C57
:1008B800F303F035F10DF20DF11F582C731CF113F1
:1008C800F3367308F700F601F5017508F0047608A9
:1008D800F1047708F2047408031DF2170800FB00FE
:1008E80003306C25843122008C138D120C13663072
:1008F800F0002B30F100372584317B08F000F1013E
:1009080037258431F52CB730F4009130F5002430C8
:10091800F6009130F7008F31312784316730F000CD
:100928002B30F100372584316430F000F101642563
:1009380084310530FA000F30F900F430F800F80B74
:10094800A32CF90BA32CFA0BA32C6430F000F101B3
:100958006425843125008C1DAE2C0330FA00083044
:10096800F9007830F800F80BB72CF90BB72CFA0B14
:10097800B72CF22C6830F0002B30F1003725C2304C
:10098800F4009230F5002F30F6009030F7008F31E8
:10099800312784312930FA009630F900A630F80062
:1009A800F80BD42CF90BD42CFA0BD42C4830F400C7
:1009B8009030F500D430F6009230F7008F313127AF
:1009C80084313D30FA00E130F9007A30F800F80B54
:1009D800EB2CF90BEB2CFA0BEB2C0032FF30FB0065
:1009E800FD2C7B08013A0319872C033A0319BE2C06
:1009F800FD2C6930F0002B30F10037252630F4004B
:100A08009030F5001630F6009130F7008F3131271D
:100A1800843125008C190D2D0330FA000830F900B7
:100A28007830F800F80B162DF90B162DFA0B162D49
:100A38002630F4009030F5009030F6009130F70041
:100A48008F313127843125008C1D272D0330FA0082
:100A58000830F9007830F800F80B302DF90B302DFC
:100A6800FA0B302D742C8B1322000F11000000009C
:100A78000000000000000000000000000000F2017B
:100A8800701C492D22000F154B2D22000F1110301C
:100A9800F136F00CF20A7202031C442D000000002B
:100AA800000000000000000022000F1500000000F8
:100AB8000000000000000000000000008B17080084
:100AC80071082000E8007008E70022008E16080070
:100AD800F000822D22000F168F160F170800220033
:100AE8000F168F120F17080022000F128F120F1304
:100AF800080022000F128F120F17080070088400D8
:100B0800043004020318080085310435F63E8200DB
:100B180008003808BC003908BD003A08BE000310B8
:100B28003D0D3E0DC4004408031D9F2DB801B901B9
:100B3800BA01BB0108003808BC003908BD003A08F2
:100B4800BE001730BE36BD0CBC0C890BA62D3C0868
:100B5800BF00B917BA013808C0003908C1003A08FF
:100B6800C2008E30C301C402C41FC62D4408803A97
:100B78008F3E031C9A2DC336C20CC10CC00CC40F87
:100B8800BF2DD32D1830440203189A2D4408031999
:100B9800D32DC035C10DC20DC30DC403CA2D3F08E6
:100BA8000319E12DC009C109C209C309C00A031903
:100BB800C10A0319C20A0319C30A4308BB00420841
:100BC800BA004108B9004008B800080080315F2821
:100BD80080312E288031372880313E2880315B28AB
:100BE8008031702885316E2D8531732D8531782DB2
:040BF80085317D2D99
:100C00008031A7288031A9288031AB288031AD28D8
:100C10008031AF288031B1288031B3288031B528A8
:100C20008031B7288031B9288031BB288031BD2878
:100C30008031BF288031C6288031C1288031C62844
:100C40008031C6288031C6288031C6288031C3282B
:100C50008C160530F2000F30F100F430F000F00B8C
:100C60002F2EF10B2F2EF20B2F2E21008E150E168C
:100C700024009417283095001430920008000630A4
:100C800020009C00FA309B002100911404302B00BE
:100C90009700FF3096000C302C009C00013025009E
:100CA0009F002C009A010800833022009700A33097
:100CB00021009E000800640080010131890B5C2E38
:020CC0000034FE
:10100A007A3021009900D0309500200095010B110B
:10101A008B160F3021008C00CF308D001A308E00D5
:10102A008B308F00F63090002F3026008C00EF3086
:10103A008D0020008C018D018E0140308F009001BF
:10104A0025008C018D0124008D018F019001230060
:10105A008C010C308D000F308F0004309000280076
:10106A008C018D0186315426883186313F2688319C
:10107A0005302000E9008C12C830F000F1018531FA
:10108A006425883120008C1686312826883138302C
:10109A00F10008308131E2218831C230F400923007
:1010AA00F5005930F6009030F700312788312000DA
:1010BA000C168B1722008E1703302000CB00083045
:1010CA00CA007830C900C90B6828CA0B6828CB0B3C
:1010DA006828AA30F000F10085313725883185303B
:1010EA002000C900C90B77285530F000F10085317E
:1010FA003725883185302000C900C90B8228250090
:10110A008C1D9128C230F8009230F9001630FA008E
:10111A009130FB0047278831DA30F4009030F5002F
:10112A008A30F6009030F70031270C30F400F501D0
:10113A008031A6208831003085316C258831023013
:10114A002000CB000430CA00BA30C900C90BAB2852
:10115A00CA0BAB28CB0BAB2800005F309C27883129
:10116A00AF302000DB000E30DC00D2285F309C2735
:10117A008831003071027B3003197002031CDC28AD
:10118A00AE278831003046021E3003194502031883
:10119A00DC285B085C040319DC285F309C27883153
:1011AA0000307102683003197002031CBB285F30DB
:1011BA009C278831003071026830031970020318C5
:1011CA00EE284030F8009130F9008330FA0091306F
:1011DA001C295F309C278831003071027B3003194B
:1011EA007002031C00294030F8009130F900693080
:1011FA00FA0091301C29AE278831003046021E3091
:10120A0003194502031C11294030F8009130F900F6
:10121A002630FA0092301C295B085C04031D1E2943
:10122A004030F8009130F9001A30FA009230FB0091
:10123A004727013085316C2588311030F400F501DB
:10124A008031A620883104302000CB000C30CA003F
:10125A003530C900C90B2F29CA0B2F29CB0B2F29CF
:10126A000032AF302000DB000E30DC0067295F302F
:10127A009C278831003071027B3003197002031CED
:10128A00712963309C27883100307102F5300319C7
:10129A0070020318712963309C278831013071026A
:1012AA00483003197002031C7129AE2788310030B7
:1012BA004602283003194502031871295B085C04A9
:1012CA00031971295F309C27883100307102683018
:1012DA0003197002031C3C295F309C2788310030B7
:1012EA00710268300319700203187F294E30F80022
:1012FA0091309A295F309C278831003071027B3007
:10130A0003197002031C8D294E30F8009130AC2964
:10131A0063309C27883100307102F530031970025E
:10132A0003189F290730F8009130F9008330FA003A
:10133A009130CD2963309C278831013071024830C1
:10134A0003197002031CB1290730F8009130F90023
:10135A006930FA009130CD29AE2788310030460233
:10136A00283003194502031CC2294E30F800913077
:10137A00F9002630FA009230CD295B085C04031D7F
:10138A00D0294E30F8009130F9001A30FA00923024
:10139A00FB004727883120000C1D162A00308531B2
:1013AA006C2588311330F4009030F5008A30F6004D
:1013BA009030F7003127883122008C170330200043
:1013CA00CB000830CA007830C900C90BEA29CA0B19
:1013DA00EA29CB0BEA2920000230E901E90AF400E4
:1013EA009230F5001930F6009030F7003127883135
:1013FA00022A043069060319072A05302000690603
:10140A00031DFE2904306906031D2E2A1A30F8002E
:10141A009030F9002B30FA009230FB0047278831D0
:10142A002E2A1330F4009030F500CB30F6009230BB
:10143A00F7003127883107302000CB001730CA0067
:10144A006F30C900C90B272ACA0B272ACB0B272AB8
:10145A00000003302000CB000830CA007830C900F1
:10146A00C90B352ACA0B352ACB0B352A9D30F40015
:10147A009130F5003630F6009230F7003127883186
:10148A002000CC01CD0100304D020A3003194C0274
:10149A000318772A0130EF26883111278831AA3AB2
:1014AA000319772A20004D08A1004C08A0000B3030
:1014BA00A200A301A401A5018031F72088310230DE
:1014CA002000CB000430CA00BA30C900C90B6B2A0D
:1014DA00CA0B6B2ACB0B6B2A00002000CC0A03191B
:1014EA00CD0A482A003020004D020A3003194C0266
:1014FA00031C892A0E30F8009230F9008930FA006C
:10150A009230FB004727883120001030CE01EF26A9
:10151A008831112788312000CE00EE3A031D9D2A1A
:10152A00AA30F8009130F900EA30FA009130A82A7E
:10153A001A304E060319AB2A0E30F8009230F90021
:10154A009230FA009230FB00472788315C30F40071
:10155A009130F500FC30F6009130F70031278831E0
:10156A002030EF268831112788312000CE00203A1A
:10157A000319C92AF630F8009130F9008330FA00CD
:10158A009230FB00472788312130EF268831112716
:10159A0088312000CE004E080319DC2AF630F80004
:1015AA009130F9008C30FA009230FB0047270C305A
:1015BA00F400F5018031A62088313C30F4009230E5
:1015CA00F5008A30F6009030F7003127883125007F
:1015DA008C1E0C1D4F2B3030EF2688311127883195
:1015EA003A3A031D472B02302000CB000430CA00D0
:1015FA00BA30C900C90BFF2ACA0BFF2ACB0BFF2A34
:10160A00000025008C1A0C193F2B3130EF26883147
:10161A00112788313A3A031D372B02302000CB00BC
:10162A000430CA00BA30C900C90B192BCA0B192BCE
:10163A00CB0B192B000025008C1E0C1D2F2B3C30C8
:10164A00F4009230F500BF30F6009130F7003127F0
:10165A008831592B0030F8009030F9008C30FA00AC
:10166A009230562B0E30F8009230F9001430FA00FE
:10167A009330562B9B30F8009030F9002A30FA004C
:10168A009230562B0E30F8009230F9001730FA00DB
:10169A009330562B0030F8009030F9008330FA006E
:1016AA009230FB00472788319530F4009230F500DC
:1016BA008A30F6009030F700312788314130EF2622
:1016CA008831112788314A3A031D622C34302000B0
:1016DA00CA00F130C900C90B702BCA0B702B00323B
:1016EA0025008C180C1C5A2C4030EF268831112703
:1016FA0088314A3A031D522C34302000CA00F13096
:10170A00C900C90B862BCA0B862B003225008C1CFC
:10171A000C1C4A2C4130EF268831112788314A3A6D
:10172A00031D422C22008D1602302000CB0004300B
:10173A00CA00BA30C900C90BA02BCA0BA02BCB0B0D
:10174A00A02B00004030EF268831112788314A3A11
:10175A00031D3A2C02302000CB000430CA00BA30F4
:10176A00C900C90BB62BCA0BB62BCB0BB62B000084
:10177A00E8302000DD000330DE00C62B25008C187F
:10178A00CB2B20005D085E04031DC32B25008C189B
:10179A000C1C302C22008D124130EF268831112783
:1017AA00883104302000CB000C30CA003530C90023
:1017BA00C90BDD2BCA0BDD2BCB0BDD2B00324030E6
:1017CA00EF2688311127883168302000CA00E430BA
:1017DA00C900C90BEE2BCA0BEE2B000025008C1C8E
:1017EA000C1C282C4130EF268831112788314A3ABF
:1017FA00031D202C34302000CA00F130C900C90B67
:10180A00042CCA0B042C003225008C180C1C182C32
:10181A009530F4009230F5002930F6009330F70045
:10182A00312788316C2C5B30F8009230F9008C300B
:10183A00FA009230692C0E30F8009230F9001A3012
:10184A00FA009330692CB030F8009230F900BB30BE
:10185A00FA009030692CAE278831B030F800923007
:10186A00F900F830FA009030692C0E30F800923006
:10187A00F9000430FA009330692C0E30F8009230E7
:10188A00F9000C30FA009330692CB030F80092302D
:10189A00F9002A30FA009230692C0E30F8009230A2
:1018AA00F9001D30FA009330692C5B30F800923051
:1018BA00F9008330FA009230692C0E30F800923029
:1018CA00F9002030FA009330FB00472788319E3018
:1018DA00F4009230F5008A30F6009030F700312794
:1018EA0088315130EF268831112788315A3A031D41
:1018FA00732D34302000CA00F130C900C90B832C83
:10190A00CA0B832C003225008C180C1C6B2D50300E
:10191A00EF268831112788315A3A031D632D343056
:10192A002000CA00F130C900C90B992CCA0B992CA6
:10193A00003225008C180C185B2D5130EF268831A7
:10194A00112788315A3A031D532D22000C170230F1
:10195A002000CB000430CA00BA30C900C90BB32C2E
:10196A00CA0BB32CCB0BB32C00005030EF268831B6
:10197A00112788315A3A031D4B2D02302000CB0023
:10198A000430CA00BA30C900C90BC92CCA0BC92C09
:10199A00CB0BC92C0000E8302000DD000330DE004C
:1019AA00D92C25000C18DE2C20005D085E04031DCE
:1019BA00D62C25008C180C1C432D22000C135130F8
:1019CA00EF2688311127883104302000CB000C30F3
:1019DA00CA003530C900C90BF02CCA0BF02CCB0B4E
:1019EA00F02C00325030EF268831112788316830C8
:1019FA002000CA00E430C900C90B012DCA0B012D11
:101A0A00000025008C180C183B2D5130EF26883128
:101A1A00112788315A3A031D332D34302000CA0069
:101A2A00F130C900C90B172DCA0B172D003225003A
:101A3A008C180C1C2B2D9E30F4009230F5002930A6
:101A4A00F6009330F700312788317D2D6530F80094
:101A5A009230F9008C30FA0092307A2D0E30F8006C
:101A6A009230F9002330FA0093307A2DB930F80019
:101A7A009230F900BB30FA0090307A2DB930F80074
:101A8A009230F900F830FA0090307A2D0E30F800D2
:101A9A009230F9001030FA0093307A2D0E30F800A7
:101AAA009230F9000830FA0093307A2DB930F800F4
:101ABA009230F9002A30FA0092307A2D0E30F8006E
:101ACA009230F9002630FA0093307A2D6530F8000A
:101ADA009230F9008330FA0092307A2D0E30F800F5
:101AEA009230F900E430FA009230FB00472788313F
:101AFA00DC30F4009230F500E630F6009130F70061
:101B0A00312788317030EF2688311127883120003B
:101B1A00CE007030EF268831112788312000CE00A0
:101B2A004E08031DA02D0E30F8009230F900E8305F
:101B3A00FA009230CE2D4E0A031DAB2D0E30F8005E
:101B4A009230F900EC30FA009230CE2DB4304E02C9
:101B5A00031CB72DDE30F8009130F9003230FA005C
:101B6A009130CE2D99304E020318C32DDE30F80085
:101B7A009130F900AB30FA009030CE2D9E304E02F3
:101B8A000318D12DDE30F8009130F900D130FA0077
:101B9A009130FB0047278831DC30F4009230F500A1
:101BAA00A730F6009230F700312788312000101450
:101BBA000430CB000C30CA003530C900C90BE32D04
:101BCA00CA0BE32DCB0BE32D0032DC30F40092304C
:101BDA00F5007E30F6009130F70031278831603009
:101BEA00EF268831112788312000CE006030EF2699
:101BFA008831112788312000CE004E08031D0D2E92
:101C0A000E30F8009230F900F030FA0092302F2EA0
:101C1A004E0A031D182E0E30F8009230F900F430E7
:101C2A00FA0092302F2E79304E02031C242E763081
:101C3A00F8009130F9003230FA0091302F2E5A30E4
:101C4A004E020318322E7630F8009130F900D13066
:101C5A00FA009130FB0047278831DC30F4009230DB
:101C6A00F5006F30F6009230F70031278831DC300A
:101C7A00F4009230F500F130F6009030F700312789
:101C8A0088316130EF268831112788312000CE0053
:101C9A004E03031D5B2EDC30F4009230F5008B30CE
:101CAA00F6009030F70031278831802E02304E0638
:101CBA00031D6A2EDC30F4009230F5003730F6004E
:101CCA009030F70031278831802E03304E06031DED
:101CDA00762EDC30F8009230F900E930FA009030C4
:101CEA007D2E0E30F8009230F900F830FA0092306A
:101CFA00FB004727883120001010CB30F4009030C9
:101D0A00F5008930F6009030F700312788318230AB
:101D1A00EF268831112788312000CE008A3A03192C
:101D2A00A02E0E30F8009230F9000030FA009330FD
:101D3A00FB00472788315130F4009230F5007930A2
:101D4A00F6009230F700312788318130EF2688314A
:101D5A00112788312000CE008A3A0319BE2E0E3090
:101D6A00F8009230F900FC30FA009230FB00472765
:101D7A0088317B30F4009030F500C430F6009130A1
:101D8A00F700312788319030EF26883126000D146C
:101D9A0003302000CB000830CA007830C900C90BD4
:101DAA00D42ECA0BD42ECB0BD42E25008D18DA2EA6
:101DBA004730F4009230F5003130F6009230F700E7
:101DCA0031270130843173248831013084317324FE
:101DDA0080319528F10026000D1027000D1085305E
:101DEA00F000F00BF62EF201711CFE2E27000D14E6
:101DFA00002F27000D108530F136F000F00B032F6D
:101E0A000830F20A7202031CF92E27000D148530DD
:101E1A00F000F00B0E2F080025008D19112FC73086
:101E2A00F000F00B162F0032F201F10125008D1996
:101E3A00202FF236222F0314F20C8530F000F00B1B
:101E4A00242F0830F10A7102031C1B2F8530F00081
:101E5A00F00B2D2F7208080081319A2188318131C7
:101E6A00892188317508F2007408F1008131C7218F
:101E7A0088318131782188317708F2007608F100BB
:101E8A008131C729033085316C25883122008C13B2
:101E9A008D120C13200010103930F0003030F10090
:101EAA00853137258831E830F0000330F10085317B
:101EBA006425883181319A2188318131892188319B
:101ECA007908F2007808F1008131C721883181311F
:101EDA00782188317B08F2007A08F1008131C72124
:101EEA00883129302000A2009630A100A630A00037
:101EFA00A00B7D2FA10B7D2FA20B7D2F9130F4001B
:101F0A009130F5006A30F6009030F70031278831B9
:101F1A0019302000A2005A30A100C830A000A00B3E
:101F2A00942FA10B942FA20B942F00325F2FF30052
:101F3A008B13730821009D009D18A12F1C08F50022
:101F4A00F4011B08F4048B177508F1007408F000FB
:101F5A00080053309C27883171082000C800700897
:101F6A00C70000304802053003194702031CEC2F52
:101F7A004808F9004708F800EF277808A30079080D
:101F8A00A4007A08A5009A30A0005930A100403078
:101F9A00A2008331172388312008AF002108B0003E
:101FAA002208B1008030AC01AD00C130AE008331EF
:101FBA00812388312C08B8002D08B9002E08BA00F0
:101FCA0085318D253908C6003808C5000800C501C5
:101FDA00C60108007808F0007908F1008E30F20195
:101FEA00F300F401843135247008F8007108F9000F
:101FFA007208FA000800523465346C34613479345A
:10200A002034643465342D3465346E346534723466
:10201A00673469347A34653464340034503469344A
:10202A0063346B34693474342034503472346F340A
:10203A006734723461346D346D3469346E346734A4
:10204A0000344D3475346C34743469345F3452342A
:10205A005834203454346534733474346A346934EB
:10206A00673400344434653463346F34643465341B
:10207A0020344F346C34643420342D344634613483
:10208A0069346C34003454346534733474346A34C7
:10209A0069346734203450346F3477346534723499
:1020AA002D347534703400345434653473347434D4
:1020BA002D344A34693467347C345334743461348B
:1020CA0072347434753470340034203474346F3498
:1020DA002034723465347334743461347234743431
:1020EA0020347434653473347434003437347334BC
:1020FA00653467342C342034623475347A347A3453
:10210A00653472342C342034203400344434653439
:10211A0063346F346434653420344E346534773430
:10212A0020342D3420344F344B3400345234653447
:10213A006C3461347934203465346E3465347234E5
:10214A00673469347A34653464340034203445346D
:10215A00723472346F34723420342D3420344D3456
:10216A0069346334723465346C3400345034543412
:10217A00433420344534723472346F347234203428
:10218A0072346534733465347434003446346134DB
:10219A00633474346F34723479342034723465346D
:1021AA007334653474342034003450346F347734E3
:1021BA006534723469346E346734203462346F346F
:1021CA0061347234643400344534723472346F3496
:1021DA00723420342D3420344434653463346F34FB
:1021EA006434653400345034543443342034453430
:1021FA00723472346F347234203474347234693401
:10220A00703400343134363476342D343134323447
:10221A007634203473347534703470346C347934D1
:10222A0000342D343E34203449346E3473346534EA
:10223A0072347434203450344334423400342034F9
:10224A00523465346D346F347634653420346234F4
:10225A006F34613472346434003420344534723457
:10226A0072346F34723420342D3420344834693453
:10227A006734683400343134323476342D343534AA
:10228A007634203473347534703470346C34793461
:10229A0000343134363476342D34353476342034BF
:1022AA0073347534703470346C3479340034543483
:1022BA0065347334743420344534453450345234DC
:1022CA004F344D342034003456346F346C34743403
:1022DA0020344534723472346F34723420344834C2
:1022EA0000345434653473347434203452344634EC
:1022FA0020345234533453344934003456346F340E
:10230A006C34743420344534723472346F34723419
:10231A0020344C34003420345034723465347334ED
:10232A0073342034533454344134523454340034E2
:10233A00453473347434613462346C3469347334BC
:10234A00683469346E346734003445344534503463
:10235A0052344F344D3420346534723472346F340D
:10236A007234003454346534733474346A346934DE
:10237A006734203450346134733473340034203475
:10238A0062347534743474346F346E342034743473
:10239A0065347334743400342034453472347234FE
:1023AA006F34723420342D3420344C346F34773403
:1023BA00003454346534733474342034523446341B
:1023CA002034333476343334003420345234653490
:1023DA00613464342F345734723469347434653454
:1023EA00003445344534503452344F344D3420345B
:1023FA00733469347A346534003457346134693457
:10240A00743469346E346734203466346F34723409
:10241A00003443346F346D346D34733420344534AE
:10242A00723472346F347234003454342D346F344D
:10243A007534743420344534723472346F347234DF
:10244A00003443347534723472342034453472346F
:10245A0072346F3472340034203466346F34723418
:10246A00203463346F346D346D347334003454342F
:10247A006534733474342034523465346C346134C2
:10248A0079340034773461346934743469346E349D
:10249A00673420342034003453346534743420349F
:1024AA00233420346F3466342034003443344834BF
:1024BA00323420342D3420344F34463446340034F8
:1024CA0043344834333420342D3420344F344634A2
:1024DA0046340034523453345334493420342D347E
:1024EA0020344F344B34003420346334683461343C
:1024FA006E346E3465346C347334003420344534AD
:10250A00723472346F3472342034313400342034EB
:10251A004534723472346F347234203432340034B5
:10252A005434653473347434203443344834323484
:10253A0000345434653473347434203443344834A6
:10254A003334003433347634333420342D34203465
:10255A004F344B34003443344834323420342D342D
:10256A0020344F344E340034433448343334203426
:10257A002D3420344F344E3400344D3475346C3499
:10258A00743469345F345234583400342034733428
:10259A006B3469347034703465346434003477349D
:1025AA006134693474342E342E342E340034543465
:1025BA00653473347434203452344634003420344D
:1025CA00313430340034203431343134003420345E
:1025DA00313432340034203431343334003420344A
:1025EA003134343400342034313435340034203436
:1025FA003134363400342034313437340034203422
:10260A0036346134003420343834613400342034B0
:10261A00363462340034203438346234003420349E
:10262A003334003420343434003420343534003424
:10263A0020343634003420343734003420343834EB
:0E264A0000342034393400346F346B340034E3
:020000040001F9
:04000E004CCFFFDBF9
:00000001FF
