:040000008031A4287F
:100008007E14803120007F08F1000B1D242857083A
:100018005804031913280130D7020030D83B5F0871
:10002800600403191B28FF30DF07FF30E03D5D083F
:100038005E0403192328FF30DD07FF30DE3D0B1176
:10004800911CA0285B085C04031973280130DB02AB
:100058000030DC3B7D2822000E158E170A30200068
:10006800DB000030DC000230F00070087128E83056
:10007800DB000330DC0022000E1703306E2822005C
:100088000E132000101B52280130F0007008E10701
:1000980065306102031C5328EC015328E101901AD2
:1000A8005E280430F0007008EC00E830DB00033014
:1000B800DC006128101A6128EC010130DB000030F7
:1000C800DC007D2822000E118E137D2822000E11DF
:1000D8008E130530F00070082000EC007D286C08B5
:1000E80084000630040203187D2888310435003E58
:1000F800820021006D086E04031987280130ED0283
:100108000030EE3B892822008E12200069086A041C
:10011800031993280130E9020030EA3B9728E830B8
:10012800E9000330EA005508560403199F280130F6
:10013800D5020030D63B91107108FF007E100900EF
:100148008031A6288930840088308500693086008F
:1001580000308700033088319C208031FD308400D6
:100168008A308500A0308600003087004030883112
:100178009C208031FA01FB01553084000030850055
:100188001430883196208031E030840000308500BA
:100198000D30883196207E1020008031D3287A30A7
:1001A80021009900D0309500200095010B118B1685
:1001B8000F3021008C00CF308D001A308E008B302C
:1001C8008F00F63090002F3026008C00EF308D0025
:1001D80020008C018D018E0140308F009001250098
:1001E8008C018D0124008D018F01900123008C0169
:1001F8000C308D000F308F000430900028008C01E7
:100208008D018831A2208031893108218031053063
:100218002000D3005308EC008C12C830F2000030E4
:10022800F3008831A920803120008C1689315E21A5
:10023800803138302000D3005308F30008308B3168
:100248003D238031E730F6009130F7004630F80062
:100258009030F90089314721803120000C168B1726
:1002680022008E1703302000D4000830D3007730E6
:10027800890B3C29D30B3C29D40B3C29AA30F2002A
:10028800AA30F3008A31C12280318530890B4A298E
:1002980000005530F2005530F3008A31C122803118
:1002A8008530890B552900002100961D6129200001
:1002B800A001023085319A25803125008C1D7029D6
:1002C800E7302000A0009130A100D430A200903087
:1002D800A3008B31CD2380319830F6009030F700A1
:1002E8002430F8009230F9008931472180310C30F0
:1002F800F5000030F6008E314726803100308A3113
:100308000E22803102302000D4000430D300BA30ED
:10031800890B8C29D30B8C29D40B8C2900005F30D6
:100328008831BE20803172082000D3005308E200D3
:10033800AF30D7000E30D8005F308831BE20803112
:10034800003073026830031972020318C5295F3040
:100358008831BE208031003073027B30031972026D
:10036800031CC5298B3184238031003020005002C2
:100378001E3003194F020318C52957085804031DD6
:10038800A0295F308831BE20803100307302683088
:10039800031972020318D9290C302000A0009130EB
:1003A800A1004230A20091300C2A5F308831BE2073
:1003B8008031003073027B3003197202031CED296F
:1003C8000C302000A0009130A1002830A20091300C
:1003D8000C2A8B31842380310030200050023C30BD
:1003E80003194F02031C002AC930A0009030A10055
:1003F800BE30A20091300C2A200057085804031D73
:10040800102A0C30A0009130A100A630A200913033
:10041800A3008B31CD23803101308A310E22803107
:100428001030F5000030F6008E3147268031043058
:100438002000D4000C30D3003330890B212AD30B91
:10044800212AD40B212A0032AF302000D7000E30E9
:10045800D8005F308831BE208031003073026830A8
:10046800031972020318682A5F308831BE20803170
:10047800003073027B3003197202031C682A633050
:100488008831BE20803100307302F53003197202C2
:100498000318682A63308831BE2080310130730226
:1004A800483003197202031C682A8B318423803177
:1004B800003020005002323003194F020318682A16
:1004C80057085804031D2D2A5F308831BE2080311B
:1004D800003073026830031972020318782A1A3040
:1004E8002000A0009130972A5F308831BE208031EB
:1004F800003073027B3003197202031C882A1A30F9
:100508002000A0009130AB2A63308831BE208031B2
:1005180000307302F5300319720203189C2AC530A3
:100528002000A0009030A1004230A2009130CF2AD4
:1005380063308831BE20803101307302483003199E
:100548007202031CB02AC5302000A0009030A10020
:100558002830A2009130CF2A8B318423803100309B
:10056800200050023C3003194F02031CC32AC93033
:10057800A0009130A100BE30A2009130CF2A200007
:1005880057085804031DD32A1A30A0009130A1003F
:10059800A630A2009130A3008B31CD2380312000FA
:1005A8000C1D3B2B00308A310E2280310030F600C2
:1005B8009030F7002430F8009230F9008931472153
:1005C800803122008C1703302000D4000830D3007B
:1005D8007730890BED2AD30BED2AD40BED2A8E3018
:1005E800F6009130F7000630F8009030F9008931B4
:1005F8004721803122000E158E1703302000D400C9
:100608000830D3007730890B072BD30B072BD40B7B
:10061800072B22000E1715302000D4004B30D300D2
:10062800BE30890B152BD30B152BD40B152B0000C3
:1006380022000E135C302000D4005130D30060300B
:10064800890B242BD30B242BD40B242B0000220042
:100658000E118E1303302000D4000830D3007730F9
:10066800890B342BD30B342BD40B342B532B003066
:10067800F6009030F700F030F8009130F900893139
:100688004721803107302000D4001730D3006A306A
:10069800890B4C2BD30B4C2BD40B4C2B0000270075
:1006A8000C1203302000D4000830D3007730890BB7
:1006B8005B2BD30B5B2BD40B5B2B27000C16033067
:1006C8002000D4000830D3007730890B692BD30B76
:1006D800692BD40B692B27000C125C30F600913083
:1006E800F7001A30F8009230F9008931472180313B
:1006F8002200A301A001A1010030210264300319E6
:1007080020020318DA2B01308A315F2280318A31C6
:100718008B2280312000D30053082200A200AA3087
:1007280022060319DA2BA13022060319DA2BA2308C
:1007380022060319DA2B21082000A700220020082E
:100748002000A6000B30A8000030A900AA01AB01C8
:100758008C3187248031220022082000D300D40164
:100768005308A6005408A7000530A8000030A900C7
:10077800AA01AB018C318724803102302000D400DB
:100788000430D300BA30890BC72BD30BC72BD40B3B
:10079800C72B000001302200A0070030A13D003027
:1007A8002102643003192002031C872B0030210228
:1007B8000A3003192002031CEE2B9A302000A000F7
:1007C8009130A1003930A2009230A3008B31CD23A3
:1007D80080311E2C220021082000A70022002008BA
:1007E8002000A6000B30A8000030A900AA01AB0128
:1007F8008C3187248031220022082000D300D401C4
:100808005308A6005408A7000530A8000030A90026
:10081800AA01AB018C318724803102302000D4003A
:100828000430D300BA30890B172CD30B172CD40BF8
:10083800172C0000AA30220022060319272CA13009
:100848002206031D852D1230F6009230F7007E3007
:10085800F8009130F90089314721803170308A31B0
:100868005F2280318A31332280312000D30053083F
:100878002200A30070308A315F2280318A3133220E
:1008880080312000D30053082200A3002308031D51
:10089800562C9A302000A0009130A1002530A200EB
:1008A80092308C2C2200230A031D632C9A302000DE
:1008B800A0009130A1002930A20092308C2CB430D5
:1008C80022002302031C712C76302000A0009130F6
:1008D800A100F030A20090308C2C99302200230225
:1008E80003187F2C76302000A0009130A1007830CA
:1008F800A20090308C2C9E30220023020318902CEA
:1009080076302000A0009130A1006930A20091301B
:10091800A3008B31CD2380311230F6009230F700DE
:10092800DE30F8009130F90089314721803120000C
:10093800101404302000D4000C30D3003330890B5D
:10094800A32CD30BA32CD40BA32C00321230F6000B
:100958009230F7003D30F8009130F9008931472195
:10096800803160308A315F2280318A313322803190
:100978002000D30053082200A30060308A315F2290
:1009880080318A31332280312000D300530822007D
:10099800A3002308031DD92C9A302000A000913011
:1009A800A1002D30A2009230012D2200230A031D40
:1009B800E62C9A302000A0009130A1003130A2002E
:1009C8009230012D793022002302031CF42C35309B
:1009D8002000A0009130A100F030A2009030012D3D
:1009E8005A30220023020318052D35302000A000BC
:1009F8009130A1006930A2009130A3008B31CD2342
:100A080080311230F6009230F700D430F80091307F
:100A1800F9008931472180311230F6009230F70011
:100A2800AF30F8009030F900893147218031220039
:100A3800A001A101003021020A3003192002031885
:100A48004C2D61308A315F2280318A3133228031E6
:100A58002000D30053082200A300230303194C2DC0
:100A680005302000D4000F30D300F130890B3A2D27
:100A7800D30B3A2DD40B3A2D01302200A0070030B9
:100A8800A13D003021020A3003192002031C252D44
:100A98002303031D5B2D1230F6009230F7006830F7
:100AA800F8009030F900893147218031832D0230D8
:100AB80022002306031D692D12302000A000923069
:100AC800A1002430A20090307F2D0330220023069D
:100AD800031D772D12302000A0009230A100A7300E
:100AE800A20090307F2D9A302000A0009130A10004
:100AF8003530A2009230A3008B31CD238031200005
:100B08001010220022082000D3005308A000013052
:100B180085319A258031220022082000D30053080D
:100B2800A000013085319A258031A4282000A30037
:100B380003308A310E22853122008C138D120C135A
:100B48006630F2002B30F3008A31C1228531200053
:100B58002308A100A2012108F2002208F3008A312B
:100B6800C1228531692EAA3020002006031DC02D20
:100B7800B230F6009130D52DA13020002006031D9B
:100B8800C92DF930F6009130D52DA230200020066D
:100B9800031DD22D8830F6009030D52DFE30F6009A
:100BA8009030F700E230F8009030F90089314721A1
:100BB80085316730F2002B30F3008A31C12285314C
:100BC8006430F2000030F3008831A9208531053007
:100BD8002000A2000F30A100F130890BF12DA10BEC
:100BE800F12DA20BF12D6430F2000030F3008831B2
:100BF800A920853125008C1DFE2D03302000A20080
:100C08000830A1007730890B072EA10B072EA20B05
:100C1800072E632E6830F2002B30F3008A31C12290
:100C28008531AA3020002006031D1E2E0230F60052
:100C380092302F2EA13020002006031D272E2030B1
:100C4800F60092302F2EA23020002006031D342EED
:100C58008830F6009030F7008530F80091303B2E50
:100C6800E730F6009130F7008630F8009130F9004F
:100C780089314721853129302000A2009630A10012
:100C88007F30890B452EA10B452EA20B452E353002
:100C9800F6009030F7000A30F8009230F9008931F8
:100CA800472185313D302000A200E130A1003F30CE
:100CB800890B5C2EA10B5C2EA20B5C2E0032FF3040
:100CC8002000A1002108A300722E20002308013A69
:100CD8000319B72D033A03190E2E722E6930F2004C
:100CE8002B30F3008A31C1228531AA30200020063A
:100CF800031D822EB630F6009030972EA1302000CA
:100D08002006031D8B2E8230F6009130972EA230DC
:100D180020002006031D942E8830F6009030972E70
:100D28001330F6009030F700D430F8009030F90016
:100D380089314721853125008C199F2E03302000E9
:100D4800A2000830A1007730890BA82EA10BA82E8D
:100D5800A20BA82EAA3020002006031DB72EB630FD
:100D6800F6009030CC2EA13020002006031DC02EA6
:100D78008230F6009130CC2EA23020002006031DD0
:100D8800C92E8830F6009030CC2E1330F600903003
:100D9800F7004F30F8009130F9008931472185314B
:100DA80025008C1DD42E03302000A2000830A1009D
:100DB8007730890BDD2EA10BDD2EA20BDD2E200056
:100DC8009C2D78081F392000A0002008E60079082B
:100DD800A1007808A0000530A200210DA10CA00CEC
:100DE800A20BF12E20080F39A3002308E700790889
:100DF800A1007808A0000930A200210DA10CA00CC8
:100E0800A20B012F20080F39A3002308E800790856
:100E1800A1007808A0000D30A200210DA10CA00CA3
:100E2800A20B112F20080739A3002308FB007B0819
:100E38006807670709076607A0002008E600660834
:100E4800A000A1012008F2002108F3006730F40097
:100E58000030F50089319021863172082000A20007
:100E68007308A3000A30A400230DA30CA20CA40B42
:100E7800382F2208A5002508FA000A30A00020080B
:100E8800F2007A088831CF208631FF3A013E2000EF
:100E98006607A1002108E6000330A0002008F20040
:100EA80067088831CF2086312000A1000930A200D0
:100EB8002208F2007B088831CF20863120002107E4
:100EC80068077A07A3002308E7006708A000A101C4
:100ED8002008F2002108F3006730F4000030F50024
:100EE80089319021863172082000A2007308A3007E
:100EF8000A30A400230DA30CA20CA40B7E2F2208F9
:100F0800A5002508FA000A30A0002008F2007A0897
:100F18008831CF208631FF3A013E20006707A100C3
:100F28002108E7000530A0002008F2006808883191
:100F3800CF2086317B077A072000A1002108E8002E
:100F48006808A000A1012008F2002108F30067301A
:100F5800F4000030F50089319021863172082000B4
:100F6800A2007308A3000A30A400230DA30CA20C4E
:100F7800A40BB92F2208A5002508FA000A30A00002
:100F88002008F2007A088831CF208631FF3A013EE6
:100F980020006807A1002108E8007B08A0000230B3
:100FA800A035FF3E031DD42F20357A07A100210864
:100FB800FB007B08A000A1012008F2002108F30033
:100FC8001A30F4000030F500893190218631730819
:100FD8002000A2002208FA000A30A0002008F2002F
:100FE8007A088831CF20FF3A013E7B072000A10014
:060FF8002108FB000800C7
:1010000080316A2880312F2880313B288031432865
:081010008031662880317D2843
:10111200E8340334023424001614161C08008E2806
:1011220024001615161D0800932864008001013161
:10113200890B97280034FE0012001E00FE0B9D282A
:101142000034833022009700A33021009E00080063
:1011520073082100EE007208ED0022008E160800CE
:10116200F2007208240091001418B52816081F39DD
:10117200031DB728141D0800B728F5008B13750846
:1011820021009D009D18C3281C08F7001B08F600CB
:101192008B177708F3007608F2000800F500F401D7
:1011A200751CD7287208F3007308F4070310F20DB8
:1011B2000310F50C7508031DD12874080800F3000C
:1011C20088318C2088317C308831B12088314030A0
:1011D2008831B120883173088831B1208831883153
:1011E2009120080020002008F2002108F300F401F9
:1011F2008E30A3002308F500F6018C3123247208F7
:101202002000A0007308A1007408A20008000630A4
:1012120020009C00FA309B002100911404302B0026
:101222009700FF3096000C302C009C000130250006
:101232009F002C009A01080088318C2089317C3073
:101242008831B120893100308831B1208931803034
:101252008831B12089312430890B2D2988319120A0
:10126200080088318C2089317C308831B120893165
:1012720000308831B1208931C0308831B1208931C4
:101282002430890B42298831912008008931762146
:10129200893189311D2189317708F4007608F300FC
:1012A2008931C72189318931322189317908F400A4
:1012B2007808F3008931C721080020008C16053018
:1012C200F3000F30F200F130890B6529F20B65292A
:1012D200F30B6529000021008E150E1624009417C9
:1012E2002830950014309200080088318C20893112
:1012F2007C308831B120893100308831B120893188
:1013020001308831B12089310B30F3006230890B12
:101312008829F30B88290032883191200800F601D0
:10132200F701721C98297408F6077508F73D013019
:10133200F435F50D890B99290130F336F20C890B3E
:101342009E2972087304031D92297708F300760818
:10135200F2000800F40088318C2089315C30883139
:10136200B120893100308831B12089317408883147
:10137200B12089318831912089316830F300E4301D
:10138200890BC129F30BC1290032080088318C2056
:1013920089317C308831B120893140308831B120A7
:1013A2008931730884007408850012000319E62944
:1013B200730884007408850000088831B1208931DF
:1013C2000130F3070030F43DD22988319120080022
:1013D200F500F601F60A0130F30288318C208931DA
:1013E2007C308831B120893100308831B120893197
:1013F2007308CF39F4007408F6007503031D032A3D
:10140200F617072AC030F4007408F604760888310B
:10141200B1208931883191200800F200242A22006B
:101422000F168F160F17080022000F168F120F17B4
:10143200080022000F128F120F13080022000F1251
:101442008F120F1708007208003A0319102A013A86
:101452000319152A033A03191A2A013A03191F2AF2
:10146200322A080025008D19332AC830890B372A01
:10147200F401F301083073020318592A27000C16ED
:1014820025008D19462A7436482A74368038F200AF
:101492007208F40027000C128530890B4E2A0000D6
:1014A2000130F2007208F30708307302031C3F2A6E
:1014B2008530890B5A2A000074080800F3002600C0
:1014C2000D1027000D108530890B652A0000F401EC
:1014D200083074020318842A731C722A27000D1420
:1014E200742A27000D107336F2007208F30085305B
:1014F200890B792A00000130F2007208F4070830E3
:101502007402031C6D2A27000D148530890B872A6B
:1015120000000800F4302000DF000130E000250068
:101522008D1D982A20005F086004031D902AC83090
:10153200890B992AF401F301083073020318BB2ABC
:1015420027000C1625008D19A82A7436AA2A74368B
:101552008038F2007208F40027000C128530890BE3
:10156200B02A00000130F2007208F307083073025B
:10157200031CA12A8530890BBC2A000074080800CC
:101582008B1322000F110000000000000000000079
:101592000000000000000000F6011030760203187F
:1015A200EB2A721CD72A22000F15D92A22000F110A
:1015B2007308F5007208F400F536F40C7408F200B2
:1015C2007508F3000130F4007408F6071030760253
:1015D200031CD22A000000000000000000000000EE
:1015E20022000F15000000000000000000000000B3
:1015F200000000008B1708001F341F341F341F34F3
:101602001F341F341F341F3400341F341F341F345F
:101612001F341F341F341F34003400341F341F346E
:101622001F341F341F341F340034003400341F347D
:101632001F341F341F341F3400340034003400348C
:101642001F341F341F341F3400340034003400347C
:1016520000341F341F341F3400340034003400348B
:10166200003400341F341F3400340034003400349A
:101672000034003400341F34F50088318C208B3163
:101682007C308831B1208B3100308831B1208B31F0
:1016920039308831B1208B311C308831B1208B3107
:1016A200750870388831B1208B3150308831B120C3
:1016B2008B316C308831B1208B317303031D652B64
:1016C20038308831B1208B3102307306031D6D2B07
:1016D20034308831B1208B310C308831B1208B31DC
:1016E20006308831B1208B3101308831B1208B3105
:1016F2000B30F4006230890B7C2BF40B7C2B003214
:1017020088319120080053308831BE208B31730814
:101712002000D2007208D1000030520205300319B5
:101722005102031CCA2B5208A1005108A0008831A3
:10173200F3208B3120002008A7002108A8002208EE
:10174200A9009A30A4005930A5004030A6008D317E
:1017520093258B3120002408B7002508B8002608FD
:10176200B9000030B4008030B500C130B6008F310E
:101772000A278B3120003408C1003508C200360820
:10178200C3008D310C2520004208D0004108CF0053
:101792000800CF01D001080003308A310E228B31BC
:1017A20022008C138D120C13200010103930F2001D
:1017B2003030F3008A31C1228B31E830F20003303D
:1017C200F3008831A9208B31893176218B3189311F
:1017D2001D218B3120002108F4002008F3008931FB
:1017E200C7218B31893132218B3120002308F4004B
:1017F2002208F3008931C7218B3129302000A5004E
:101802009630A4007F30890B042CA40B042CA50B6A
:10181200042C5030F6009130F7005730F800903029
:10182200F900893147218B3119302000A5005A3047
:10183200A400B130890B1B2CA40B1B2CA50B1B2C59
:101842000032E52B750803192B2C740873047204FB
:10185200031D3C2C0030F2000030F3000030F40095
:1018620008000130F7007708F5070130F436F30C71
:10187200F20C890B372CFE3074050319552C322CCF
:101882000130F7007708F5070130F207003003183E
:101892000130F307003003180130F4070130F43649
:1018A200F30CF20C890B502CFF3074050319622CD7
:1018B200412C0130F5020130F235F30DF40D890BA4
:1018C2005D2CF31B682C0230750203185A2C751814
:1018D200702CFF30F2057F30F305FF30F405031062
:1018E200F50C7508F700F801F9011030F735F80D1D
:1018F200F90D890B772C7708F2047808F30479083C
:10190200F404760803190800F417080020002B03DA
:10191200FF3A2807013EAC002C08F300023089315F
:10192200E9218C3120002708F9002608F8008631C9
:10193200E5268C3120002B080319AB2C7A08031DF5
:10194200A42C2A1EA72C7A08303EA82C20308831DD
:10195200E0208C3120002A1EB22C2E308831E0206B
:101962008C317B08031DBD2C7A08031DBD2C200081
:101972002A0818390319C02C7B08303EC12C2030AC
:101982008831E0208C312000AA1DCB2C2E308831EA
:10199200E0208C3120006808031DD92C7B08031D30
:1019A200D92C7A08031DD92C2A081C390319DC2CDE
:1019B2006808303EDD2C20308831E0208C31200058
:1019C2002A1DE72C2E308831E0208C312000670858
:1019D200031DF82C6808031DF82C7B08031DF82C46
:1019E2007A08031DF82C2A081E390319FB2C6708F4
:1019F200303EFC2C20308831E0208C312000AA1CA3
:101A0200062D2E308831E0208C3120006608303ED1
:101A12008831E020080020004108C5004208C600C5
:101A22004308C7000310460D470DC8004808CE0002
:101A32004E08031D252D0030C4000030C3000030C5
:101A4200C2000030C10008004108C5004208C600BB
:101A52004308C7001730C736C60CC50C890B2C2D9E
:101A62004508C8004808C900C217FF30C105FF3049
:101A7200C2050030C3054108CA004208CB00430832
:101A8200CC00CD018E30CE02CE1F632D4E08803A9F
:101A92008F3E0318552D0030C4000030C3000030C3
:101AA200C2000030C10008000130CD36CC0CCB0C96
:101AB200CA0C890B562D0130C5004508CE07031903
:101AC2007C2D552D18304E02031C792D0030C40098
:101AD2000030C3000030C2000030C10008000130F5
:101AE200CA35CB0DCC0DCD0D890B712D0130CE0237
:101AF2004E08031D702D490803198A2DCA09CB0906
:101B0200CC09CD09CA0A0319CB0A0319CC0A031955
:101B1200CD0A4D08C4004C08C3004B08C2004A0855
:101B2200C100080020002408AA002508AB002608EE
:101B3200AC0003102B0D2C0DAD002D08AE002E08AD
:101B4200031DAA2D0030A4000030A5000030A6001D
:101B520008002708AA002808AB002908AC000310D7
:101B62002B0D2C0DAD002D08B3003308031DC02D25
:101B72000030A4000030A5000030A60008003308A1
:101B82007B3EAA002A08AE072408AA002508AB005B
:101B92002608AC001030AC36AB0CAA0C890BCC2D4D
:101BA2002A08AD002D08B3002708AA002808AB00B8
:101BB2002908AC001030AC36AB0CAA0C890BDC2D1A
:101BC2002A08AD002D08B3068030AA002A08B30502
:101BD200A517A817FF30A705FF30A8050030A905F3
:101BE2000030AF000030B0000030B1000730AA0072
:101BF2002A08B200241C032E2708AF072808B03D8C
:101C02002908B13D0130A636A50CA40C890B042E7F
:101C12000130A735A80DA90D890B0A2E0130B20299
:101C2200031DFB2D0930AA002A08B200241C1F2E16
:101C32002708AF072808B03D2908B13D0130A63674
:101C4200A50CA40C890B202E0130B136B00CAF0CC0
:101C5200890B262E0130B202031D172E2F08F20027
:101C62003008F3003108F4002E08AA002A08F50013
:101C72003308AB002B08F6008C31232472082000B5
:101C8200A4007308A5007408A60008000030200014
:101C9200A3000030A2000030A1000030A000D22E2C
:101CA2000030A3000030A2000030A1001430D02E7A
:101CB2000030A3000030A2000030A1002730D02E57
:101CC2000030A3000030A2000030A1003430D02E3A
:101CD2000030A3000030A2000030A1003E30D02E20
:101CE2000030A3000030A2000030A1004630D02E08
:101CF2000030A3000030A2000030A1004C30D02EF2
:101D02000030A3000030A2000030A1005130D02EDC
:101D12000030A3000030A2000030A1005530D02EC8
:101D22000030A3000030A2000030A1005830D02EB5
:101D32000030A3000030A2000030A1005B30D02EA2
:101D42000030A3000030A2000030A1005E30D02E8F
:101D52000030A3000030A2000030A1006030D02E7D
:101D62000030A3000030A2000030A1006230D02E6B
:101D72000030A3000030A2000030A1006630D02E57
:101D82000030A3000030A2000030A1007030D02E3D
:101D92000030A3000030A2000030A1000030A000FB
:101DA200062F7608003A0319D72EC92E7508063A6F
:101DB2000319512E013A0319592E0F3A0319612EB4
:101DC200013A0319692E033A0319712E013A0319D4
:101DD200792E073A0319812E013A0319892E033A03
:101DE2000319912E013A0319992E1F3A0319A12EB4
:101DF200013A0319A92E033A0319B12E063A03191F
:101E0200B92E0D3A0319C12EC92E20088931AB21F2
:101E1200080020003408BA003508BB003608BC00B0
:101E220003103B0D3C0DBD003D08C0003708BA0051
:101E32003808BB003908BC0003103B0D3C0DBD0047
:101E42003D08BF0040080319322F3F084002031823
:101E5200392F4003FF3A3F07BA0019303A02031CF8
:101E6200392F3708B4003808B5003908B600080021
:101E72003F080319080040083F020318482F3F0398
:101E8200FF3A4007BA0019303A0203180800063038
:101E9200BA003A08BE00B61BBE17B91B3E17B517EB
:101EA200FF30B405FF30B5050030B605B817FF3076
:101EB200B705FF30B8050030B9053F0840020318E6
:101EC200842F0130B735B80DB90D890B632F01305E
:101ED200BF023F08400603197F2F0130BE023E08B1
:101EE200073903197F2F622F0130B636B50CB40CB7
:101EF200890B762F0130BA003A08C00740083F0626
:101F02000319A92F752F40083F020318A92F01308A
:101F1200B435B50DB60D890B892F0130C0023F08CB
:101F220040060319A52F0130BE023E0807390319E6
:101F3200A52F882F0130B936B80CB70C890B9C2F0E
:101F42000130BA003A08BF0740083F06031D9B2F25
:101F5200BE1FBB2FFF30B406FF30B506FF30B606FA
:101F62000130B407003003180130B5070030031800
:101F72000130B6073E1FCD2FFF30B706FF30B8063F
:101F8200FF30B9060130B707003003180130B80737
:101F9200003003180130B907BE013408B70735080D
:101FA200B83D3608B93DB91FE82FFF30B706FF30FC
:101FB200B806FF30B9060130B70700300318013008
:101FC200B807003003180130B907BE01BE0A37084E
:101FD200F2003808F3003908F4004008BA003A0861
:101FE200F5003E08BB003B08F6008C312324720842
:101FF2002000B4007308B5007408B600080050341D
:10200200693463346B346934743420345034723438
:102012006F346734723461346D346D3469346E34C4
:10202200673400344D3475346C34743469345F343D
:1020320052345834203454346534733474346A342A
:102042006934673400344434653463346F3464343F
:10205200653420344F346C34643420342D344634A7
:10206200613469346C3400345434653473347434F8
:102072006A3469346734203450346F3477346534C9
:1020820072342D34753470340034543465347334FE
:1020920074342D344A34693467347C3453347434A0
:1020A20061347234743475347034003420347434CE
:1020B2006F3420347234653473347434613472345E
:1020C20074342034743465347334743400344434D6
:1020D200653463346F346434653420344E3465348B
:1020E200773420342D3420344F344B3400342034B0
:1020F2004534723472346F34723420342D342034C7
:102102004D3469346334723465346C3400344D3484
:1021120065346D345F3443346F34703469346534FC
:102122007234203450346134733473340034503494
:102132006F3477346534723469346E3467342034E2
:1021420062346F346134723464340034453472342E
:1021520072346F34723420342D3420344434653474
:1021620063346F3464346534003443346F346E3412
:1021720064346F34333420345434653473347434F7
:102182006A346934673400343134363476342D3469
:1021920031343234763420347334753470347034DC
:1021A2006C34793400342D343E34203449346E3466
:1021B20073346534723474342034503443344234CA
:1021C20000342034523465346D346F3476346534DF
:1021D200203462346F346134723464340034203415
:1021E2004534723472346F34723420342D342034D6
:1021F200483469346734683400344D3475346C348F
:10220200743469345F345234583420345034613475
:102212007334733400343134323476342D343534FB
:102222007634203473347534703470346C347934C9
:1022320000343134363476342D3435347634203427
:1022420073347534703470346C34793400345634E9
:102252006F346C34743420344534723472346F34D5
:102262007234203448340034543465347334743452
:1022720020345234463420345234533453344934A3
:10228200003456346F346C34743420344534723430
:1022920072346F34723420344C340034203450346D
:1022A20072346534733473342034533454344134C7
:1022B20052345434003445347334743461346234E7
:1022C2006C3469347334683469346E34673400347E
:1022D20020344534723472346F34723420342D34E5
:1022E20020344C346F3477340034543465347334CE
:1022F2007434203452344634203433347634333414
:102302000034523458343334203454346534733402
:1023120074346A346934673400345734613469344C
:10232200743469346E346734203466346F347234F2
:10233200003443346F346D346D3473342034453497
:10234200723472346F347234003454342D346F3436
:102352007534743420344534723472346F347234C8
:10236200003443346F346E3464346F343334203485
:1023720050346134733473340034433475347234FA
:10238200723420344534723472346F34723400340F
:1023920031343634763420347334753470347034D6
:1023A2006C34793400345234533453344934203445
:1023B2002D3420344F344B340034333476343334B8
:1023C20020342D3420344F344B3400344D347534A2
:1023D2006C34743469345F345234583400342034E9
:1023E20073346B346934703470346534643400345B
:1023F20052345834333420345034613473347334A7
:10240200003443346F346E3464346F3433342034E4
:10241200003477346134693474342E342E342E34DB
:1024220000345434653473347434203452344634B2
:10243200003463346F346D346D3473340034523489
:1024420058343334203400342034313431340034BD
:1024520020343134323400342034313433340034D3
:1024620020343134343400342034313435340034BF
:0A2472002034313400340F340034FC
:020000040001F9
:04000E004CCFFFDBF9
:00000001FF
