:040000008031A02883
:100008007E1480310B1D2528200069086A04031915
:1000180012280130E9020030EA3B132810102100B1
:100028002E082F0403191C28FF30AE07031CAF034A
:100038002808290403192428FF30A807031CA9034A
:100048000B112000911C9E2821002A082B0403195B
:1000580070280130AA020030AB3B7A2822000E1526
:100068008E170A302100AA00AB0102306E28E83052
:10007800AA000330AB0022000E176D2822000E13D1
:100088002000101B4F2821006530B00A3002031CE5
:100098005128B30151282100B0012000901A5C2892
:1000A80004302100B300E830AA000330AB00602818
:1000B800101A60282100B30101302100AA00AB0109
:1000C8007A2822000E118E137A2822000E118E1320
:1000D80005302100B3007A28330884000630040272
:1000E80003187A2893310435DC3E82002100310858
:1000F8003204031984280130B1020030B23B86284B
:1001080022008E122100340835040319902801308A
:10011800B4020030B53B9428E830B4000330B50091
:100128002C082D0403199C280130AC020030AD3B8B
:10013800200091107E1009008031A22869308400C7
:10014800003085000730943190248031A03084003D
:10015800003085001130943190242100E830B4003B
:100168000330B5007E10200095317D2DA130670643
:100178000319FF28A23067060319FF286608A100A3
:100188006508A0000B30A200A301A401A5018831D5
:10019800FB20803120006708A0000530A101A200E3
:1001A800A301A401A5018831FB2080310230200081
:1001B800DD000430DC00BA30DB00DB0BE128DC0BAF
:1001C800E128DD0BE12800002000E50A0319E60A12
:1001D800003066026430031965020318FF280130F5
:1001E80088312E20803188317B2080312000E70043
:1001F800AA3A031DBA28003066020A3003196502BC
:10020800031C12297930F8009230F9001430FA00F2
:100218009330FB008A31F422803138296608A10026
:100228006508A0000B30A200A301A401A501883134
:10023800FB20803120006708A0000530A101A20042
:10024800A301A401A5018831FB20803102302000E0
:10025800DD000430DC00BA30DB00DB0B3129DC0BBD
:100268003129DD0B31290000AA3020006706031967
:100278004129A2306706031DB3290530F4009330E5
:10028800F5002630F6009030F7008A31D22280310E
:10029800103088312E208031883154208031200060
:1002A800E800EE3A031D60291630F8009230F90094
:1002B8004930FA0092306B291A30680603196F2901
:1002C8007930F8009230F9001D30FA009330FB00C5
:1002D8008A31F4228031BB30F4009130F5005B3074
:1002E800F6009230F7008A31D222803120308831EE
:1002F8002E2080318831542080312000E800E10030
:100308002130E00188312E2080318831542080311D
:100318002000E800E004AA306706031DA029203069
:10032800610660040319B3295530F8009230F900CA
:100338006730FA009130AF29A2306706031DB32950
:10034800600861040319B3295530F8009230F900A8
:100358003830FA009030FB008A31F4228031AA301C
:10036800200067060319BC29A1306706031D402A2F
:100378000C30F400F5018831AA208031B330F40044
:100388009230F500AE30F6009030F7008A31D22274
:10039800803125008C1E0C1D352A303088312E20E6
:1003A80080318831542080313A3A031D2D2A023099
:1003B8002000DD000430DC00BA30DB00DB0BE22972
:1003C800DC0BE229DD0BE229000025008C1A0C1950
:1003D800252A313088312E208031883154208031CF
:1003E8003A3A031D1D2A02302000DD000430DC00EB
:1003F800BA30DB00DB0BFE29DC0BFE29DD0BFE2906
:10040800000025008C1E0C1D152AB330F400923014
:10041800F5006330F6009330F7008A31D22280313C
:10042800402A0030F8009030F9001730FA00933075
:100438003C2A7930F8009230F900C430FA00933041
:100448003C2ABF30F8009030F900A130FA00923011
:100458003C2A7930F8009230F900C730FA0093301E
:100468003C2A0030F8009030F9000E30FA00933042
:10047800FB008A31F4228031AA3020006706031974
:10048800492AA1306706031D962C0F30F400F501A8
:100498008831AA2080312030F4009330F500AE3046
:1004A800F6009030F7008A31D2228031413088310D
:1004B8002E2080318831542080314A3A031D692B1F
:1004C80034302000DC00F130DB00DB0B692ADC0B68
:1004D800692A003225008C180C1C612B40308831A9
:1004E8002E2080318831542080314A3A031D592BFF
:1004F80034302000DC00F130DB00DB0B812ADC0B20
:10050800812A003225008C1C0C1C512B413088316B
:100518002E2080318831542080314A3A031D492BDE
:1005280022008D1602302000DD000430DC00BA30D5
:10053800DB00DB0B9D2ADC0B9D2ADD0B9D2A0000CE
:10054800403088312E2080318831542080314A3A19
:10055800031D412B02302000DD000430DC00BA30DE
:10056800DB00DB0BB52ADC0BB52ADD0BB52A000056
:10057800DC302100AC000530AD00C52A25008C1800
:10058800CA2A21002C082D04031DC22A25008C1814
:100598000C1C362B22008D12413088312E208031E0
:1005A80088315420803104302000DD000C30DC001C
:1005B8003530DB00DB0BDE2ADC0BDE2ADD0BDE2A26
:1005C8000032403088312E208031883154208031EB
:1005D80068302000DC00E430DB00DB0BF12ADC0BA8
:1005E800F12A000025008C1C0C1C2E2B4130883170
:1005F8002E2080318831542080314A3A031D262B21
:1006080034302000DC00F130DB00DB0B092BDC0B85
:10061800092B003225008C180C1C1E2B2030F400EE
:100628009330F500D930F6009330F7008A31D222A2
:100638008031742BDD30F8009230F9001730FA0061
:100648009330702B7930F8009230F900CA30FA00F4
:100658009330702B3B30F8009330F900EF30FA00FC
:100668009030702B8C31132480313B30F80093305C
:10067800F9002C30FA009130702B7930F800923064
:10068800F900B430FA009330702B7930F8009230CA
:10069800F900BC30FA009330702B3B30F8009330EF
:1006A800F900A130FA009230702B7930F8009230BE
:1006B800F900CD30FA009330702BDD30F80092301D
:1006C800F9000E30FA009330702B7930F800923030
:1006D800F900D030FA009330FB008A31F4228031DF
:1006E8002930F4009330F500AE30F6009030F70072
:1006F8008A31D2228031513088312E2080318831A0
:10070800542080315A3A031D8B2C34302000DC00F1
:10071800F130DB00DB0B8E2BDC0B8E2B003225003F
:100728008C180C1C832C503088312E208031883155
:10073800542080315A3A031D7B2C34302000DC00D1
:10074800F130DB00DB0BA62BDC0BA62B00322500DF
:100758008C180C18732C513088312E208031883138
:10076800542080315A3A031D6B2C22000C1702309A
:100778002000DD000430DC00BA30DB00DB0BC22BCC
:10078800DC0BC22BDD0BC22B0000503088312E2031
:1007980080318831542080315A3A031D632C02304D
:1007A8002000DD000430DC00BA30DB00DB0BDA2B84
:1007B800DC0BDA2BDD0BDA2B0000DC302100AC007F
:1007C8000530AD00EA2B25000C18EF2B21002C0872
:1007D8002D04031DE72B25008C180C1C5B2C220014
:1007E8000C13513088312E208031883154208031CB
:1007F80004302000DD000C30DC003530DB00DB0B82
:10080800032CDC0B032CDD0B032C00325030883119
:100818002E20803188315420803168302000DC005F
:10082800E430DB00DB0B162CDC0B162C000025005B
:100838008C180C18532C513088312E208031883177
:10084800542080315A3A031D4B2C34302000DC00F0
:10085800F130DB00DB0B2E2CDC0B2E2C00322500BC
:100868008C180C1C432C2930F4009330F500D93037
:10087800F6009330F7008A31D2228031962CE73087
:10088800F8009230F9001730FA009330922C793042
:10089800F8009230F900D330FA009330922C4430AB
:1008A800F8009330F900EF30FA009030922C443081
:1008B800F8009330F9002C30FA009130922C7930FE
:1008C800F8009230F900C030FA009330922C793059
:1008D800F8009230F900B830FA009330922C443086
:1008E800F8009330F900A130FA009230922C793058
:1008F800F8009230F900D630FA009330922CE730A5
:10090800F8009230F9000E30FA009330922C7930CA
:10091800F8009230F9009430FA009330FB008A31E5
:10092800F4228031AA302000670603199F2CA130D9
:100938006706031DBC2E7830F4009330F50045306F
:10094800F6009230F7008A31D22280317030883137
:100958002E2080318831542080312000E80070300A
:1009680088312E2080318831542080312000E800E1
:100978006808031DC72C7930F8009230F9009830C8
:10098800FA009330F52C680A031DD22C7930F80050
:100998009230F9009C30FA009330F52CB43068029C
:1009A800031CDE2C3D30F8009230F9009130FA003B
:1009B8009130F52C993068020318EA2C3D30F80084
:1009C8009230F900CF30FA009030F52C9E30680252
:1009D8000318F92C3D30F8009230F9003030FA0055
:1009E8009230FB008A31F42280317830F400933061
:1009F800F5003230F6009330F7008A31D222803188
:100A08001C302000E9005830EA0010140530DD00E1
:100A18000F30DC00F430DB00DB0B102DDC0B102D6D
:100A2800DD0B102D7830F4009330F500EA30F60035
:100A38009130F7008A31D2228031603088312E20FF
:100A480080318831542080312000E80060308831BE
:100A58002E2080318831542080312000E800101089
:100A68006808031D3F2D7930F8009230F900A03056
:100A7800FA009330932D680A031D4A2D7930F80047
:100A88009230F9008530FA009330932DEE306806E5
:100A9800031D562D7930F8009230F9008A30FA009B
:100AA8009330932DE7306802031C622D7930F800EB
:100AB8009230F9008F30FA009330932D7930680224
:100AC800031C882D6808A0000530A101A200A3011D
:100AD800A401A501A50A8831FB20803166302000D9
:100AE800DD007730DC002430DB00DB0B792DDC0BFC
:100AF800792DDD0B792D0000E230F8009130F900F6
:100B08009130FA009130932D5A3068020318972DCE
:100B1800E230F8009130F9003030FA009230FB00F2
:100B28008A31F42280317830F4009330F500F130C6
:100B3800F6009230F7008A31D2228031033020004B
:100B4800DD000830DC007830DB00DB0BA92DDC0B86
:100B5800A92DDD0BA92D7830F4009330F50016305F
:100B6800F6009130F7008A31D22280312000E80166
:100B7800E201E3016308803ADB0080305B02031D79
:100B8800C72D323062020318892E1C302000E9007C
:100B98005830EA0010140530DD000F30DC00F43066
:100BA800DB00DB0BD52DDC0BD52DDD0BD52D200087
:100BB800E501E601EF2D0530DD000F30DC00F430F3
:100BC800DB00DB0BE52DDC0BE52DDD0BE52D200037
:100BD800E50A0319E60A00306602053003196502C2
:100BE8000318012E613088312E208031883154203D
:100BF80080312000E800680BDF2D1010680B052EEF
:100C0800892E7830F4009330F5003B30F6009130AF
:100C1800F7008A31D222803103308B31F2238031C0
:100C280022008C138D120C1326000D145F308C31AA
:100C38005E248031003071021730031970020318E6
:100C48001A2E00308B31F223803105302000DD0070
:100C58000F30DC00F430DB00DB0B302EDC0B302EE9
:100C6800DD0B302E2000E501E601003066020A3077
:100C78000319650203187B2E013088312E2080313C
:100C880088317B2080312000E400AA3A03197B2EAA
:100C9800A130640603197B2E6608A1006508A00030
:100CA8000B30A200A301A401A5018831FB208031EB
:100CB80020006708A0000530A101A200A301A4013B
:100CC800A5018831FB20803102302000DD0004308E
:100CD800DC00BA30DB00DB0B6F2EDC0B6F2EDD0B7C
:100CE8006F2E00002000E50A0319E60A392EE20AF1
:100CF8000319E30A6308803ADB0080305B02031DB6
:100D0800872E32306202031CC92D20006803031DA0
:100D1800992E7830F4009330F500AF30F60090301B
:100D2800F7008A31D2228031BC2E02306806031DBA
:100D3800A52E7830F8009330F9005B30FA00903037
:100D4800B82E03306806031DB12E7830F8009330B2
:100D5800F9000E30FA009130B82E7930F800923050
:100D6800F900A430FA009330FB008A31F422803174
:100D7800A23020006706031DE32EC830F40091302E
:100D8800F500AD30F6009030F7008A31D22280317C
:100D9800A03088312E2080318831542080312000C5
:100DA800E800AA3A0319E32E7930F8009230F900E6
:100DB800B030FA009330FB008A31F4228031AA3037
:100DC800200067060319F02EA13067060319F02EDC
:100DD800A2306706031D122F5930F4009130F50038
:100DE800AD30F6009030F7008A31D222803182305F
:100DF80088312E2080318831542080312000E8004D
:100E08008A3A0319122F7930F8009230F900AC3081
:100E1800FA009330FB008A31F4228031AA30200096
:100E2800670603191B2FA1306706031D3D2FD3301A
:100E3800F4009230F500FB30F6009230F7008A316A
:100E4800D2228031813088312E208031883154205F
:100E580080312000E8008A3A03193D2F7930F800E4
:100E68009230F900A830FA009330FB008A31F4225E
:100E78008031AA302000670603194A2FA13067067F
:100E880003194A2FA2306706031D762F9F30F400FE
:100E98009030F5002330F6009230F7008A31D222E4
:100EA8008031903088312E20803126000D14033097
:100EB8002000DD000830DC007830DB00DB0B622F1F
:100EC800DC0B622FDD0B622F25008D18682FC930CF
:100ED800F4009230F500A830F6009230F7008A311D
:100EE800D222803120006708F800013089317C2146
:100EF800803120006708F800013089317C21803179
:100F0800A0284D08D1004E08D2004F08D300500841
:100F1800D4000310530D540DD6005608031D992F05
:100F2800CD01CE01CF01D00108004D08D1004E08F7
:100F3800D2004F08D3005008D4001F30D436D30C49
:100F4800D20CD10C890BA22F5108D5009630CF179F
:100F5800D001D602D61FBC2F5608803A973E031CF4
:100F6800942FD036CF0CCE0CCD0CD60FB52FC92F61
:100F7800203056020318942F56080319C92FCD356F
:100F8800CE0DCF0DD00DD603C02F5508031908007C
:100F9800CD09CE09CF09D009CD0A0319CE0A031904
:100FA800CF0A0319D00A08008831AB288831AD2848
:100FB8008831AF288831B1288831B3288831B528DD
:100FC8008831B7288831B9288831BB288831BD28AD
:100FD8008831BF288831C1288831C3288831CA2878
:100FE8008831C5288831CA288831CA288831CA2852
:080FF8008831CA288831C7289E
:10100400063020009C00FA309B002100911404302B
:101014002B009700FF3096000C302C009C00013010
:1010240025009F002C009A0108008C160530F20060
:101034000F30F100F430F000F00B1E28F10B1E28E5
:10104400F20B1E2821008E150E162400941728304A
:101054009500143092000800F10026000D108B1347
:1010640027000D108B30F000F00B36280032F2010F
:10107400711C3F2827000D14412827000D108B30C8
:10108400F136F000F00B442800320830F20A720204
:10109400031C3A2827000D148B178530F000F00B41
:1010A4005128080025008D1954288B13C730F000EF
:1010B400F00B5A280032F201F10127000C1625002A
:1010C4008D196628F23668280314F20C27000C12D6
:1010D4008B30F000F00B6C2800320830F10A7102FA
:1010E400031C5F288B178530F000F00B77287208FB
:1010F4000800F4302100AE000130AF008628210042
:101104002E082F040319892825008D198128C7303A
:10111400F000F00B8B280032F201F10127000C16CD
:1011240025008D199728F23699280314F20C27000C
:101134000C128530F000F00B9D280830F10A710282
:10114400031C90288530F000F00BA62872080800D4
:10115400CF281430C8282730C8283430C8283E3057
:10116400C8284630C8284C30C8285130C8285530C3
:10117400C8285830C8285B30C8285E30C82860307A
:10118400C8286230C8286630C8287030F600CB28DA
:10119400F601F701F801F901E1287508003A03198D
:1011A400D428CA287408FA3E031CCA2884001430C0
:1011B40004020318CA2887310435D83E8200760811
:1011C400692BF200F103E02388317C30D423883189
:1011D4000030D42388317108F300CF30F305720B4B
:1011E400F528F317F728C030F3047308D4238831A3
:1011F400E52B25082202013EF1000230E320200005
:101204002108F7002008F600943196248831250837
:10121400031917296D08031D1129241E14296D08AB
:10122400303E152920306F2188312000241E1D29CD
:101234002E306F21883120006F08031D28296D0886
:10124400031D28292408183903192B296F08303E57
:101254002C2920306F2188312000A41D34292E3000
:101264006F21883120006B08031D42296F08031D7C
:1012740042296D08031D422924081C3903194529F4
:101284006B08303E462920306F2188312000241D10
:101294004E292E306F21883120006C08031D5F29F0
:1012A4006B08031D5F296F08031D5F296D08031D6B
:1012B4005F2924081E39031962296C08303E63290A
:1012C40020306F2188312000A41C6B292E306F211F
:1012D400883120006E08303E6F29F100E023883108
:1012E4007C30D42388314030D42388317108D4230E
:1012F4008831E52BFC00200010100330F2238831E4
:1013040022008C138D120C1326000D146630F0008D
:101314002B30F100A52288317C08F000F101A522D0
:101324008831342AAA307806031D9C299130F400B0
:101334009230AF29A1307806031DA4295F30F40050
:101344009330AF29A2307806031DAC29DF30F400B6
:101354009030AF299F30F4009130F5008330F600CF
:101364009130F700D22288316730F0002B30F10041
:10137400A52288316430F000F101EA238831053078
:10138400FB000F30FA00F430F900F90BC729FA0B0F
:10139400C729FB0BC7296430F000F101EA23883127
:1013A40025008C1DD2290330FB000830FA00783068
:1013B400F900F90BDB29FA0BDB29FB0BDB29312ABA
:1013C4006830F0002B30F100A5228831AA3078066D
:1013D400031DF0296830F4009330FF29A13078060A
:1013E400031DF8298030F4009330FF29A2307806D9
:1013F400031D042ADF30F4009030F5006430F60059
:1014040092300B2A4D30F4009330F5006530F6002D
:101414009230F700D22288312930FB009630FA004E
:10142400A630F900F90B142AFA0B142AFB0B142A20
:101434006C30F4009030F5007030F6009330F70013
:10144400D22288313D30FB00E130FA007A30F900D5
:10145400F90B2A2AFA0B2A2AFB0B2A2A0032FF301C
:10146400FC003C2A7C08013A03199429033A031925
:10147400E2293C2A6930F0002B30F100A5228831A2
:10148400AA307806031D4A2A1D30F40091305D2AE3
:10149400A1307806031D522A6130F40092305D2A8F
:1014A400A2307806031D5A2ADF30F40090305D2AFA
:1014B4004A30F4009030F5007530F6009130F700B2
:1014C400D222883125008C19642A0330FB000830AD
:1014D400FA007830F900F90B6D2AFA0B6D2AFB0B30
:1014E4006D2AAA307806031D7B2A1D30F400913042
:1014F4008E2AA1307806031D832A6130F4009230CD
:101504008E2AA2307806031D8B2ADF30F400903037
:101514008E2A4A30F4009030F500FC30F600913009
:10152400F700D222883125008C1D952A0330FB0058
:101534000830FA007830F900F90B9E2AFA0B9E2A3B
:10154400FB0B9E2A7D298B1322000F110000000043
:101554000000000000000000000000000000F20194
:10156400701CB72A22000F15B92A22000F1110305F
:10157400F136F00CF20A7202031CB22A00000000D9
:10158400000000000000000022000F150000000011
:101594000000000000000000000000008B1708009D
:1015A40054238831432388317508F2007408F1000C
:1015B40081238831E32288317708F2007608F1002C
:1015C400812BE02388317C30D42388310030D4232C
:1015D4008831C030D42388312330F100F10BF02A54
:1015E4000032E52B0330F223883122008C138D1254
:1015F4000C1326000D14200010103930F000303088
:10160400F100A5228831E830F0000330F100EA232C
:10161400883154238831432388317908F2007808CB
:10162400F10081238831E32288317B08F2007A08B3
:10163400F1008123883129302000A2009630A100D6
:10164400A630A000A00B242BA10B242BA20B242B2F
:10165400FD30F4009130F5008E30F6009030F70044
:10166400D222883119302000A2005A30A100C8309B
:10167400A000A00B3B2BA10B3B2BA20B3B2B00325E
:101684000B2BE02388317C30D42388310030D423E1
:1016940088318030D42388312330F100F10B502B72
:1016A4000032E52BE02388317C30D42388310030AC
:1016B400D42388310130D42388310B30F2006230D6
:1016C400F100F10B632BF20B632B0000E52BF3000D
:1016D400E02388315C30D42388310030D42388312E
:1016E4007308D4238831E52388316830F200E4306C
:1016F400F100F10B7B2BF20B7B2B00000800E023A5
:1017040088317C30D42388314030D4238831710827
:10171400840072088500120003199B2B7108840051
:10172400720885000008D4238831F10A0319F20AEB
:10173400892BE52BF400E02388317C30D4238831D5
:101744000030D42388313930D42388311C30D42359
:10175400883174087038D42388315030D4238831C8
:101764006C30D4238831710BBA2B3830D4238831B0
:1017740002307106031DC12B3430D42388310C3060
:10178400D42388310630D42388310130D4238831DE
:101794000B30F3006230F200F20BCE2BF30BCE2BA6
:1017A4000000E52BF000700891001418D72B1608E0
:1017B4001F39031DD92B141D0800D92B240016141E
:1017C400161C0800E22B24001615161D0800E72B32
:1017D40071082100B2007008B10022008E160800C2
:1017E400F000082C22000F168F160F170800220095
:1017F4000F168F120F17080022000F128F120F13EB
:10180400080022000F128F120F17080070088400BE
:10181400043004020318080093310435E83E8200C2
:10182400080053305E248C3171082000DA007008FF
:10183400D90000305A02053003195902031C5B2CED
:101844005908F0005A08F1000030F201F3018C2726
:101854008C317308A7007208A6007108A5007008EF
:10186400A4004030A3005930A2009930A1009A305E
:10187400A000C1258C312308C0002208BF00210824
:10188400BE002008BD00C130BC008030BB00BA01DE
:10189400B90170243C08D0003B08CF003A08CE00C0
:1018A4003908CD00873185274E08D8004D08D70068
:1018B4000800D701D8010800F3008B137308210036
:1018C4009D009D18632C1C08F500F4011B08F4040A
:1018D4008B177508F1007408F00008003C08C90073
:1018E4008030C9053C35CB00BB1B4B144B08031996
:1018F400832C4B0F812CB901BA01BB01BC01BB176E
:10190400862CB901BA01BB01BC014008CA00803071
:10191400CA054A084906031D49174035CA00BF1BBA
:101924004A144A0803199E2C4A0F9C2CBD01BE017F
:10193400BF01C001BF17A12CBD01BE01BF01C00181
:101944004B084A020318C82C491FAA2C8030C90628
:101954004B08CC004A08CB004C08CA003908CC001C
:101964003D08B9004C08BD003A08CC003E08BA0056
:101974004C08BE003B08CC003F08BB004C08BF002D
:101984003C08CC004008BC004C08C000CC014A080C
:10199400C100C2014208C4004B084102C300031C39
:1019A400C4034408803AC50080304502031DDC2C82
:1019B4001A304302031CFE2C20003C083B043A046A
:1019C40039040319E72C0130E82C0030CC00B901AC
:1019D400BA01BB01BC014A08CB00032D4C1CF62CF8
:1019E4004C360138CC00F72CCC363918CC17BC3720
:1019F400BB0CBA0CB90CCB0A20004A084B02031CDE
:101A0400F02C491B272D4B08031D0D2DB901BA01DC
:101A1400BB01BC0108003D08B9073E08BA3D3F08B8
:101A2400BB3D4008BC3D3C1C8F2D4C1C1E2DCC36B0
:101A34004C080138CC001F2DCC363918CC17BC37D4
:101A4400BB0CBA0CB90CCB0A8F2D3C08803AC100F0
:101A54004008803A4102031D392D3F083B02031D13
:101A6400392D3E083A02031D392D3D083902031869
:101A7400682DFF30C100C200C300C40039083D0214
:101A8400C5003A083E3BC6003B083F3BC7003C0844
:101A9400403BC8004508C1074608C23D4708C33D4E
:101AA4004808C43D4408BC004308BB004208BA00CF
:101AB4004108B9008030C906CC09CC0F702D013023
:101AC400B9070030BA3DBB3DBC3D702D3D08B9029D
:101AD4003E08BA3B3F08BB3B4008BC3B3C083B04C8
:101AE4003A043904031D8D2D4C08031D8D2DB901B5
:101AF400BA01BB01BC010800B935BA0DBB0DBC0D60
:101B0400CC1B39144C1C892D0314CC0D8A2DCC35D7
:101B14004B08031DCB03BB1F7E2DCA01CC1F9A2D7E
:101B24004C087F3903193918982D9A2DCA01CA0A0D
:101B34004A080319AB2D0130B9070030BA3DBB3D4B
:101B4400BC3D3C1CAB2DBC37BB0CBA0CB90C4B0FC9
:101B5400CB0A4B0A031D4B08031DB72DB901BA016B
:101B6400BB01BC014B080319C9014B1CBB2DBB179E
:101B7400BC2DBB134B36BC00C91BBC170800230883
:101B8400AC008030AC052335B200A21B32143208FD
:101B94000319D42D320FD22DA001A101A201A3015A
:101BA400A217D82DA001A101A201A3012708803901
:101BB400AC062735AD00A61B2D142D080319EA2DFC
:101BC4002D0FE82DA401A501A601A701A617EE2D4E
:101BD400A401A501A601A7012D08031D3208031DB8
:101BE400F82DA001A101A201A30108002008F00022
:101BF400260843278C317108B8007008B700AE007E
:101C0400AF01B001B1013808B300B401B501B601A8
:101C14002108F000250843278C317108B8007008AA
:101C2400B700AE0701300318AF070318B007031855
:101C3400B1073808B30701300318B4070318B50710
:101C44000318B6072208F000240843278C317108D2
:101C5400B8007008B700AE0701300318AF070318C7
:101C6400B0070318B1073808B30701300318B407E5
:101C74000318B5070318B6073008B1002F08B000E1
:101C84002E08AF00AE012108F000240843278C3150
:101C94007108B8007008B700AE073808AF3D0030CF
:101CA400B03DB13D2008F000250843278C31710870
:101CB400B8007008B700AE073808AF3D0030B03D3B
:101CC400B13D3008B1002F08B0002E08AF00AE01BE
:101CD4002008F000240843278C317108B8007008EC
:101CE400B700AE073808AF3D0030B03DB13D210824
:101CF400F000260843278C317108B8007008B7003B
:101D0400B3073808B43D0030B53DB63D2208F000B5
:101D1400250843278C317108B8007008B700B30751
:101D24003808B43D0030B53DB63D2208F000260821
:101D340043278C317108B8007008B700A800380830
:101D4400A900AA01AB012A08AB002908AA002808A7
:101D5400A900A8012808B3072908B43D2A08B53DFD
:101D64002B08B63D3108B30701300318B407031834
:101D7400B5070318B6073008B1002F08B0002E08C5
:101D8400AF00AE013208B700B8012D08B707031839
:101D9400B80A8230B707031CB803B51BDD2EB33570
:101DA400B40DB50DB60DB11B3314FF30AE35AF0D08
:101DB400B00DB10DCC2EAD01B11FF22E2E08A8002E
:101DC4002F08A9003008AA007F303105AB002A048F
:101DD4002904280403193318F02EF22EAD01AD0A9C
:101DE4002D080319042F0130B3070030B43DB53D6D
:101DF400B63D361C042FB637B50CB40CB30CB70A79
:101E04000319B80A3808803AA80080302802031D54
:101E14000D2FFF303702031C172F7F302000B60030
:101E24008030B500B401B301382F20003808803A5F
:101E3400A80080302802031D212F01303702031827
:101E44002A2F2000B301B401B501B601AC01382F2B
:101E540020003708B200FF30B305B4057F30B50564
:101E64000030B6013218B5173236B6002C08B60465
:101E74003608A3003508A2003408A1003308A000E6
:101E84000800F500F301F4017008F600F701751C71
:101E94004F2F7608F3077708F43DF635F70DF51C58
:101EA400572F7608F3077708F43DF635F70D751DBF
:101EB4005F2F7608F3077708F43DF635F70DF51D27
:101EC400672F7608F3077708F43DF635F70D751E8E
:101ED4006F2F7608F3077708F43DF635F70DF51EF6
:101EE400772F7608F3077708F43DF635F70D751F5D
:101EF4007F2F7608F3077708F43DF635F70DF51FC5
:101F0400872F7608F3077708F43D7408F100730807
:101F1400F0000800F8007808031DF31FA12F7009D2
:101F2400FA007109FB007209FC007309FD00FA0A4A
:101F34000319FB0A0319FC0A0319FD0AA92F7308E4
:101F4400FD007208FC007108FB007008FA007308B9
:101F5400720471047004031DB42FF001F101F20145
:101F6400F30108009630F900FE307D050319CB2FEC
:101F7400F90AFD36FC0CFB0CFA0CB62F0130F90AF9
:101F8400FA070030FB3DFC3DFD3DFD36FC0CFB0C2F
:101F9400FA0CFF307D050319D92FC02F02307902C6
:101FA400031CDB2FF903FA35FB0DFC0DFD0DFC1FA3
:101FB400D02F7918E42FFF30FA05FB057F30FC059C
:101FC400FF30FD05F9367908F700F601F501F40153
:101FD4007408FA047508FB047608FC047708FD0409
:101FE4007808031DF31FF72FFD177D08F3007C0805
:101FF400F2007B08F1007A08F000080052346534DE
:102004006C34613479342034643465342D3465346B
:102014006E3465347234673469347A3465346434C4
:1020240000345034693463346B3469347434203488
:10203400503472346F346734723461346D346D34B7
:1020440069346E3467340034453445345034523482
:102054004F344D34203472346534613464342F3455
:10206400773472346934743465340034203445343C
:10207400723472346F34723420344D3465346D34B8
:102084005F3463346F3470346934653472340034CB
:102094004D3475346C34743469345F345234583488
:1020A400203454346534733474346A346934673492
:1020B40000344434653463346F3464346534203418
:1020C4004F346C34643420342D34463461346934F0
:1020D4006C34003454346534733474346A3469347D
:1020E4006734203450346F347734653472342D348B
:1020F40075347034003454346534733474342D348A
:102104004A34693467347C345334743461347234FB
:102114007434753470340034203474346F3420349F
:1021240072346534733474346134723474342034E6
:10213400743465347334743400343734733465342C
:1021440067342C342034623475347A347A34653408
:1021540072342C34203420340034443465346334F1
:102164006F346434653420344E3465347734203429
:102174002D3420344F344B340034523465346C34B1
:1021840061347934203465346E34653472346734A0
:1021940069347A3465346434003420344534723418
:1021A40072346F34723420342D3420344D34693415
:1021B4006334723465346C3400344D3465346D34B6
:1021C4005F3443346F34703469346534723420348A
:1021D40050346134733473340034503454344334DD
:1021E40020344534723472346F347234203472348F
:1021F4006534733465347434003450346F34773454
:102204006534723469346E346734203462346F3424
:1022140061347234643400344534723472346F344B
:10222400723420342D3420344434653463346F34B0
:1022340064346534003443346F346E3464346F343E
:102244003334203454346534733474346A34693424
:1022540067340034503454344334203445347234B5
:1022640072346F3472342034743472346934703498
:10227400003420346334793463346C3469346E3418
:102284006734203470346F347734653472340034F6
:102294003134363476342D34313432347634203497
:1022A40073347534703470346C34793400344D3490
:1022B4006134733474346534723420344534723484
:1022C400613473346534203400342034453472343A
:1022D40072346F347234203443346F346E34643463
:1022E4006F34333400342D343E34203449346E3466
:1022F4007334653472347434203450344334423487
:1023040000342034523465346D346F34763465349B
:10231400203462346F3461347234643400342034D1
:102324004534723472346F34723420342D34203492
:10233400483469346734683400344D3475346C344B
:10234400743469345F345234583420345034613432
:102354007334733400343134363476342D343534B4
:102364007634203473347534703470346C34793486
:10237400003454346534733474342034453445346F
:10238400503452344F344D342034003454343434C3
:102394002034623475347334203428344334413463
:1023A4004E342934003456346F346C34743420344D
:1023B4004534723472346F34723420344834003407
:1023C40054346534733474342034523446342034F1
:1023D4005234533453344934003456346F346C34E7
:1023E400743420344534723472346F34723420348B
:1023F4004C340034203450347234653473347334C0
:102404002034533454344134523454340034453435
:1024140073347434613462346C34693473346834BE
:1024240069346E346734003445344534503452349E
:102434004F344D3420346534723472346F34723412
:102444000034203462347534743474346F346E342C
:102454002034743465347334743400342034453493
:10246400723472346F34723420342D3420344C344A
:102474006F34773400345434653473347434203412
:1024840052344634203433347634333400342034F4
:1024940052346534613464342F34573472346934BB
:1024A40074346534003445344534503452344F3434
:1024B4004D342034733469347A34653400345234FE
:1024C40058343334203454346534733474346A34B3
:1024D400693467340034573461346934743469348A
:1024E4006E346734203466346F34723400344334C9
:1024F4006F346D346D347334203445347234723433
:102504006F347234003454342D346F34753474346D
:1025140020344534723472346F34723400344334AA
:102524006F346E3464346F34333420345034613453
:102534007334733400344334753472347234203455
:102544004534723472346F34723400342034663457
:102554006F347234203463346F346D346D347334B7
:102564000034543465347334743420345234653450
:102574006C34613479340034313436347634203474
:1025840073347534703470346C3479340034773483
:1025940061346934743469346E34673420342034DB
:1025A40000345334653474342034233420346F3489
:1025B40066342034003443344834323420342D34E7
:1025C40020344F34463446340034433448343334AE
:1025D40020342D3420344F344634463400345234BD
:1025E40053345334493420342D3420344F344B3451
:1025F400003420346334683461346E346E346534AA
:102604006C3473340034543465347334743469343E
:102614006E346734203400342034453472347234D8
:102624006F347234203431340034203445347234FD
:1026340072346F3472342034323400345434653498
:1026440073347434203443344834323400345434CE
:1026540065347334743420344334483433340034AC
:1026640033347634333420342D3420344F344B34E3
:10267400003443344834323420342D3420344F343D
:102684004E34003443344834333420342D3420342D
:102694004F344E3400344D3475346C3474346934EE
:1026A4005F34523458340034203473346B34693416
:1026B40070347034653464340034523458343334F0
:1026C40020345034613473347334003443346F34FD
:1026D4006E3464346F3433342034003477346134EA
:1026E400693474342E342E342E3400345434653426
:1026F40073347434203452344634003452345834ED
:1027040033342034003420343134343461340034EC
:1027140020343134343462340034203431343434A9
:1027240063340034203431343034003420343134D0
:1027340031340034203431343234003420343134F0
:1027440033340034203431343534003420343134DB
:1027540036340034203431343734003420343134C6
:10276400383400342034363461340034203438347E
:102774006134003420343634623400342034383444
:10278400623400342034333400342034343400349C
:102794002034353400342034363400342034373493
:1027A40000342034383400342034393400346F3465
:1027B4006B340034803169288031322880313B28E1
:1027C400803142288031652880317A288B31F42B7E
:0C27D4008B31F92B8B31FE2B8C31032C48
:1029140083309700A33021009E00080064008001EA
:102924000131890B912C00347608EE001F30EE053E
:102934007708F9007608F8000530FA00790DF90CEB
:10294400F80CFA0BA02C7808EC000F30EC05770893
:10295400F9007608F8000930FA00790DF90CF80C42
:10296400FA0BAF2C7808EB000F30EB057708F90071
:102974007608F8000D30FA00790DF90CF80CFA0B12
:10298400BE2C7808EF000730EF056F086B076C0763
:102994000907EE076E08F0006730F101F200F30159
:1029A400682594317008F8007108F9000A30FA00BB
:1029B400790DF90CF80CFA0BDA2C7808ED00F630E6
:1029C400F0006D0845259431EE070930F0006F08DA
:1029D40045259431F8006C086C076C0778076B0781
:1029E4006D07EC00F0006730F101F200F301682597
:1029F40094317008F8007108F9000A30FA00790D72
:102A0400F90CF80CFA0B012D7808ED00F630F00003
:102A14006D0845259431EC070530F0006B08452519
:102A240094316F076D07EB00F0006730F101F2009D
:102A3400F301682594317008F8007108F9000A3030
:102A4400FA00790DF90CF80CFA0B232D7808ED0037
:102A5400F630F0006D0845259431EB076F0809073F
:102A6400090709076D07EF00F0001A30F101F200C1
:102A7400F301682594317108ED00F630F0006D081B
:102A84004525EF070800F200F10170087218F107FC
:102A9400F0357008F218F107F03570087219F10773
:102AA400F0357008F219F107F0357008721AF10761
:102AB400F0357008F21AF107F0357008721BF1074F
:102AC400F0357008F21BF10771080800F401F501F4
:102AD400701C702D7208F4077308F53DF235F30D80
:102AE400F136F00C70087104031D6A2D7508F100AD
:102AF4007408F00008007A3021009900D030950065
:102B0400200095010B118B160F3021008C00CF3063
:102B14008D001A308E008B308F00F63090002F30ED
:102B240026008C00EF308D0020008C018D018E0179
:102B340040308F00900125008C018D0124008D010F
:102B44008F01900123008C010C308D000F308F0019
:102B54000430900028008C018D0122008E169431DF
:102B64008A24953188310220953105302100B30043
:102B740020008C12C830F000F1018B31EA2395312A
:102B840020008C168831172095313830F100083038
:102B94008B319C2395314D30F4009330F5007D301A
:102BA400F6009030F7008A31D222953120000C16BD
:102BB4008B1722008E1703302000DD000830DC0064
:102BC4007830DB00DB0BE42DDC0BE42DDD0BE42D96
:102BD400AA30F000F1008A31A52295318530200019
:102BE400DB00DB0BF32D5530F000F1008A31A52218
:102BF400953185302000DB00DB0BFE2D200010100A
:102C04002100961D0A2E0230F80189317C2195316C
:102C140025008C1D182E4D30F8009330F9007530C6
:102C2400FA009130FB008A31F4229531FF30F40030
:102C34009030F500AE30F6009030F7008A31D222A1
:102C440095310C30F400F5018831AA20953100301B
:102C54008B31F223953102302000DD000430DC009A
:102C6400BA30DB00DB0B342EDC0B342EDD0B342EC0
:102C740000005F308C315E249531AF302000E900D4
:102C84000E30EA005E2E5F308C315E2495310030C8
:102C940071027B3003197002031C692E8C311324DA
:102CA4009531003058021E30031957020318692E5B
:102CB40069086A040319692E5F308C315E249531EA
:102CC40000307102683003197002031C452E013074
:102CD4008B31F22395311030F400F5018831AA20AC
:102CE400953104302000DD000C30DC003530DB0091
:102CF400DB0B7A2EDC0B7A2EDD0B7A2E0032AF3012
:102D04002000E9000E30EA009631B72E5F308C3196
:102D14005E249631003071027B3003197002031C6B
:102D2400C22E63308C315E24963100307102F5304E
:102D3400031970020318C22E63308C315E2496315D
:102D440001307102483003197002031CC22E8C3109
:102D540013249631003058023C30031957020318EB
:102D6400C22E69086A040319C22E5F308C315E24B6
:102D7400963100307102683003197002031C882EEA
:102D84008C31132496315808DF005708DE005F3079
:102D94008C315E24963171082000A1007008A000D7
:102DA4000530A200A301A401A501A50A8831FB20D6
:102DB400963115302000DD004B30DC00D130DB00D3
:102DC400DB0BE22EDC0BE22EDD0BE22E0000633087
:102DD4008C315E24963100307102F5300319700293
:102DE4000318FC2E4A30F8009130F900EF30FA0055
:102DF4009130452F63308C315E249631013071025D
:102E0400483003197002031C0F2F4A30F800913028
:102E1400F900D530FA009130452F003020005F02D0
:102E24003C3003195E02031C3A2F5F08A1005E08C0
:102E3400A0000530A200A301A401A501A50A8831C0
:102E4400FB20963115302000DD004B30DC00D13002
:102E5400DB00DB0B2B2FDC0B2B2FDD0B2B2F0000D0
:102E6400BE30F8009230F9009D30FA009230452FC0
:102E740069086A04031D492FAD30F8009130F90048
:102E84008530FA009230FB008A31F422963120001A
:102E94000C1DB62F00308B31F22396311330F40021
:102EA4009030F500AE30F6009030F7008A31D2222F
:102EB400963122008C1703302000DD000830DC003E
:102EC4007830DB00DB0B642FDC0B642FDD0B642F0D
:102ED4006D30F4009230F5001930F6009030F700B0
:102EE4008A31D222963122000E158E17033020002B
:102EF400DD000830DC007830DB00DB0B7F2FDC0BDF
:102F04007F2FDD0B7F2F22000E1715302000DD00F0
:102F14004B30DC00D130DB00DB0B8E2FDC0B8E2F33
:102F2400DD0B8E2F000022000E135C302000DD002C
:102F34005130DC00BA30DB00DB0B9E2FDC0B9E2F04
:102F4400DD0B9E2F000022000E118E130330200093
:102F5400DD000830DC007830DB00DB0BAF2FDC0B4E
:102F6400AF2FDD0BAF2FCF2F1330F4009030F500CF
:102F74005630F6009330F7008A31D222963107306A
:102F84002000DD001730DC006F30DB00DB0BC82FC6
:102F9400DC0BC82FDD0BC82F000027000C120330F8
:102FA4002000DD000830DC007830DB00DB0BD82F9C
:102FB400DC0BD82FDD0BD82F27000C160330200094
:102FC400DD000830DC007830DB00DB0BE72FDC0BA6
:102FD400E72FDD0BE72F27000C120930F4009230A5
:102FE400F500AD30F6009230F7008A31D22220008D
:0C2FF4000030E801E501E6018031ED2825
:020000040001F9
:04000E00CCCFFFDB79
:00000001FF
