:040000008031A12882
:100008007E1480310B1D262821002E082F04031989
:1000180012280130AE020030AF3B14282000101027
:1000280021003208330403191D28FF30B207031CCE
:10003800B3032A082B0403192528FF30AA07031C39
:10004800AB030B112000911C9F2821002C082D04C4
:10005800031971280130AC020030AD3B7B28220027
:100068000E158E170A302100AC00AD0102306F2842
:10007800E830AC000330AD0022000E176E282200D5
:100088000E132000101B502821006530B50A3502D8
:10009800031C5228BB0152282100B5012000901AE8
:1000A8005D2804302100BB00E830AC000330AD000F
:1000B8006128101A61282100BB0101302100AC0021
:1000C800AD017B2822000E118E137B2822000E1111
:1000D8008E1305302100BB007B283B0884000630C6
:1000E800040203187B2888310435003E8200210071
:1000F80022082304031985280130A2020030A33BFB
:10010800872822008E12210039083A040319912801
:100118000130B9020030BA3B9528E830B900033005
:10012800BA003008310403199D280130B0020030AC
:10013800B13B200091107E1009008031A328A03027
:10014800EF018400003085001930883185202100B6
:10015800E830B9000330BA007E1020009431E42C56
:10016800A1306D060319F928A2306D060319F92884
:100178006C08DC006B08DB000B30DD00DE01DF0102
:10018800E0018831F520803120006D08DB00053062
:10019800DC01DD00DE01DF01E0018831F52080317E
:1001A80002302000E3000430E200BA30E100E10B45
:1001B800DB28E20BDB28E30BDB2800002000EB0A3E
:1001C8000319EC0A00306C02643003196B0203183F
:1001D800F92801308731DA27803187318427803147
:1001E8002000ED00AA3A031DB42800306C020A3042
:1001F80003196B02031C0C298730F8009230F900B0
:100208002230FA009330FB008A31F52280313229FE
:100218006C08DC006B08DB000B30DD00DE01DF0161
:10022800E0018831F520803120006D08DB000530C1
:10023800DC01DD00DE01DF01E0018831F5208031DD
:1002480002302000E3000430E200BA30E100E10BA4
:100258002B29E20B2B29E30B2B290000AA302000C5
:100268006D0603193B29A2306D06031DAD29133015
:10027800F4009330F5002630F6009030F7008A310C
:10028800D322803110308731DA2780318731B32784
:1002980080312000EE00EE3A031D5A292430F80080
:1002A8009230F9005730FA00923065291A306E06FC
:1002B800031969298730F8009230F9002B30FA00C9
:1002C8009330FB008A31F5228031C930F400913037
:1002D800F5006930F6009230F7008A31D322803178
:1002E80020308731DA2780318731B32780312000E9
:1002F800EE00E7002130E6018731DA2780318731C7
:10030800B32780312000EE00E604AA306D06031DF5
:100318009A292030670666040319AD296330F8006E
:100328009230F9006730FA009130A929A2306D06A1
:10033800031DAD29660867040319AD296330F80069
:100348009230F9003830FA009030FB008A31F522FB
:100358008031AA3020006D060319B629A1306D0638
:10036800031DEB290C30F400F5018831BE208031E3
:10037800C130F4009230F500AE30F6009030F7004E
:100388008A31D322803130308731DA2780311530F5
:100398002000E3004B30E200D130E100E10BD2292C
:1003A800E20BD229E30BD229000031308731DA275A
:1003B800803129302000E3009630E200A630E100C9
:1003C800E10BE429E20BE429E30BE429C729AA306D
:1003D8006D060319F329A1306D06031D402C0F305B
:1003E800F400F5018831BE2080312E30F4009330BE
:1003F800F500AE30F6009030F7008A31D322803114
:1004080041308731DA2780318731B32780314A3A42
:10041800031D132B34302000E200F130E100E10B22
:10042800132AE20B132A003225008C180C1C0B2B04
:1004380040308731DA2780318731B32780314A3A13
:10044800031D032B34302000E200F130E100E10B02
:100458002B2AE20B2B2A003225008C1C0C1CFB2AB1
:1004680041308731DA2780318731B32780314A3AE2
:10047800031DF32A22008D1602302000E300043009
:10048800E200BA30E100E10B472AE20B472AE30B0E
:10049800472A000040308731DA2780318731B32777
:1004A80080314A3A031DEB2A02302000E300043071
:1004B800E200BA30E100E10B5F2AE20B5F2AE30BAE
:1004C8005F2A0000DC302100B0000530B1006F2A3F
:1004D80025008C18742A210030083104031D6C2A69
:1004E80025008C180C1CE02A22008D12413087311F
:1004F800DA2780318731B327803104302000E300C8
:100508000C30E2003530E100E10B882AE20B882A42
:10051800E30B882A003240308731DA27803187316F
:10052800B327803168302000E200E430E100E10BBD
:100538009B2AE20B9B2A000025008C1C0C1CD82A45
:1005480041308731DA2780318731B32780314A3A01
:10055800031DD02A34302000E200F130E100E10B25
:10056800B32AE20BB32A003225008C180C1CC82AC7
:100578002E30F4009330F500E730F6009330F700A2
:100588008A31D32280311E2BEB30F8009230F900EB
:100598002530FA0093301A2B8730F8009230F90092
:1005A800D830FA0093301A2B4930F8009330F9000C
:1005B800EF30FA0090301A2B8C31132480314930F7
:1005C800F8009330F9002C30FA0091301A2B87305C
:1005D800F8009230F900C230FA0093301A2B8730B5
:1005E800F8009230F900CA30FA0093301A2B4930DB
:1005F800F8009330F900AF30FA0092301A2B8730A8
:10060800F8009230F900DB30FA0093301A2BEB3007
:10061800F8009230F9001C30FA0093301A2B87301A
:10062800F8009230F900DE30FA009330FB008A318E
:10063800F52280313730F4009330F500AE30F60003
:100648009030F7008A31D322803151308731DA2750
:1006580080318731B32780315A3A031D352C343025
:100668002000E200F130E100E10B382BE20B382BDF
:10067800003225008C180C1C2D2C50308731DA27BD
:1006880080318731B32780315A3A031D252C343005
:100698002000E200F130E100E10B502BE20B502B7F
:1006A800003225008C180C181D2C51308731DA27A0
:1006B80080318731B32780315A3A031D152C220027
:1006C8000C1702302000E3000430E200BA30E100E9
:1006D800E10B6C2BE20B6C2BE30B6C2B0000503006
:1006E8008731DA2780318731B32780315A3A031DA1
:1006F8000D2C02302000E3000430E200BA30E100A3
:10070800E10B842BE20B842BE30B842B0000DC3001
:100718002100B0000530B100942B25000C18992B4E
:10072800210030083104031D912B25008C180C1C66
:10073800052C22000C1351308731DA27803187319C
:10074800B327803104302000E3000C30E20035305C
:10075800E100E10BAD2BE20BAD2BE30BAD2B00322F
:1007680050308731DA2780318731B32780316830BC
:100778002000E200E430E100E10BC02BE20BC02BCB
:10078800000025008C180C18FD2B51308731DA2712
:1007980080318731B32780315A3A031DF52B343025
:1007A8002000E200F130E100E10BD82BE20BD82B5E
:1007B800003225008C180C1CED2B3730F4009330D8
:1007C800F500E730F6009330F7008A31D322803104
:1007D800402CF530F8009230F9002530FA009330BB
:1007E8003C2C8730F8009230F900E130FA00933061
:1007F8003C2C5230F8009330F900EF30FA0090307A
:100808003C2C5230F8009330F9002C30FA0091302B
:100818003C2C8730F8009230F900CE30FA00933043
:100828003C2C8730F8009230F900C630FA0093303B
:100838003C2C5230F8009330F900AF30FA00923077
:100848003C2C8730F8009230F900E430FA009330FD
:100858003C2CF530F8009230F9001C30FA00933047
:100868003C2C8730F8009230F900A230FA0093301F
:10087800FB008A31F5228031AA3020006D06031969
:10088800492CA1306D06031D682E8630F400933084
:10089800F5005330F6009230F7008A31D3228031C8
:1008A80070308731DA2780318731B32780312000D3
:1008B800EE0070308731DA2780318731B3278031F5
:1008C8002000EE006E08031D712C8730F80092306E
:1008D800F900A630FA0093309F2C6E0A031D7C2C79
:1008E8008730F8009230F900AA30FA0093309F2C34
:1008F800B4306E02031C882C4B30F8009230F9009B
:100908009130FA0091309F2C99306E020318942C84
:100918004B30F8009230F900CF30FA0090309F2C1D
:100928009E306E020318A32C4B30F8009230F90069
:100938003E30FA009230FB008A31F5228031863051
:10094800F4009330F5004030F6009330F7008A3118
:10095800D32280311C302100AE005830AF00200077
:1009680010140530E3000F30E200F430E100E10B31
:10097800BB2CE20BBB2CE30BBB2C8630F400933072
:10098800F500F830F6009130F7008A31D322803133
:1009980060308731DA2780318731B32780312000F2
:1009A800EE0060308731DA2780318731B327803114
:1009B8002000EE0010106E08031DEA2C8730F800A6
:1009C8009230F900AE30FA0093303E2D6E0A031DC6
:1009D800F52C8730F8009230F9009330FA00933004
:1009E8003E2DEE306E06031D012D8730F800923043
:1009F800F9009830FA0093303E2DE7306E02031C60
:100A08000D2D8730F8009230F9009D30FA009330B0
:100A18003E2D79306E02031C332D6E08DB00053045
:100A2800DC01DD00DE01DF01E001E00A8831F520AC
:100A3800803166302000E3007730E2002430E100A6
:100A4800E10B242DE20B242DE30B242D0000F030C4
:100A5800F8009130F9009130FA0091303E2D5A306B
:100A68006E020318422DF030F8009130F9003E3044
:100A7800FA009230FB008A31F52280318630F4008A
:100A88009330F500FF30F6009230F7008A31D32218
:100A9800803103302000E3000830E2007830E100C4
:100AA800E10B542DE20B542DE30B542D8630F4004A
:100AB8009330F5001630F6009130F7008A31D322D2
:100AC80080312000EE01E801E9016908803AE1007F
:100AD80080306102031D722D323068020318352EF2
:100AE8001C302100AE005830AF0020001014053033
:100AF800E3000F30E200F430E100E10B812DE20B5E
:100B0800812DE30B812D2000EB01EC019B2D05309D
:100B1800E3000F30E200F430E100E10B912DE20B2D
:100B2800912DE30B912D2000EB0A0319EC0A0030FC
:100B38006C02053003196B020318AD2D6130873143
:100B4800DA2780318731B32780312000EE006E0B21
:100B58008B2D10106E0BB12D352E8630F40093308E
:100B6800F5003B30F6009130F7008A31D32280310E
:100B780003308B31F323803122008C138D120C1338
:100B880026000D145F308C315E24803100307102F4
:100B98001730031970020318C62D00308B31F32368
:100BA800803105302000E3000F30E200F430E1002E
:100BB800E10BDC2DE20BDC2DE30BDC2D2000EB013F
:100BC800EC0100306C020A3003196B020318272E5F
:100BD80001308731DA27803187318427803120003E
:100BE800EA00AA3A0319272EA1306A060319272E0C
:100BF8006C08DC006B08DB000B30DD00DE01DF0178
:100C0800E0018831F520803120006D08DB000530D7
:100C1800DC01DD00DE01DF01E0018831F5208031F3
:100C280002302000E3000430E200BA30E100E10BBA
:100C38001B2EE20B1B2EE30B1B2E00002000EB0AE1
:100C48000319EC0AE52DE80A0319E90A6908803A4C
:100C5800E10080306102031D332E32306802031C2C
:100C6800742D20006E03031D452E8630F40093304A
:100C7800F500AF30F6009030F7008A31D32280318A
:100C8800682E02306E06031D512E8630F800933010
:100C9800F9005B30FA009030642E03306E06031DB5
:100CA8005D2E8630F8009330F9000E30FA0091304E
:100CB800642E8730F8009230F900B230FA00933091
:100CC800FB008A31F5228031A23020006D06031D19
:100CD8008F2ED630F4009130F500AD30F60090300C
:100CE800F7008A31D3228031A0308731DA2780316A
:100CF8008731B32780312000EE00AA3A03198F2EDE
:100D08008730F8009230F900BE30FA009330FB00CB
:100D18008A31F5228031AA3020006D0603199C2EF5
:100D2800A1306D0603199C2EA2306D06031DBE2E40
:100D38005930F4009130F500AD30F6009030F700EE
:100D48008A31D322803182308731DA278031873166
:100D5800B32780312000EE008A3A0319BE2E87306F
:100D6800F8009230F900BA30FA009330FB008A316B
:100D7800F5228031AA3020006D060319C72EA13054
:100D88006D06031DE92EE130F4009230F5000930BC
:100D9800F6009330F7008A31D322803181308731D1
:100DA800DA2780318731B32780312000EE008A3A74
:100DB8000319E92E8730F8009230F900B630FA00AE
:100DC8009330FB008A31F5228031AA3020006D066D
:100DD8000319F62EA1306D060319F62EA2306D0602
:100DE800031D222F9F30F4009030F5003130F600BB
:100DF8009230F7008A31D322803190308731DA2758
:100E0800803126000D1403302000E3000830E20092
:100E18007830E100E10B0E2FE20B0E2FE30B0E2FC3
:100E280025008D18142FD730F4009230F500B63015
:100E3800F6009230F7008A31D322803120006D0805
:100E4800F800013089317D21803120006D08F800DB
:100E5800013089317D218031A1284D08D1004E080B
:100E6800D2004F08D3005008D4000310530D540D7E
:100E7800D6005608031D452FCD01CE01CF01D00164
:100E880008004D08D1004E08D2004F08D300500882
:100E9800D4001F30D436D30CD20CD10C890B4E2F72
:100EA8005108D5009630CF17D001D602D61F682F2B
:100EB8005608803A973E031C402FD036CF0CCE0CF4
:100EC800CD0CD60F612F752F203056020318402FF6
:100ED80056080319752FCD35CE0DCF0DD00DD6037D
:100EE8006C2F550803190800CD09CE09CF09D00980
:100EF800CD0A0319CE0A0319CF0A0319D00A08002C
:100F0800F4302100B2000130B3008F2F21003208E5
:100F180033040319922F25008D198A2FC730F0004A
:100F2800F00B942F0032F201F10127000C16250076
:100F38008D19A02FF236A22F0314F20C27000C12E1
:100F48008530F000F00BA62F0830F10A7102031C5F
:100F5800992F8530F000F00BAF2F7208080025009C
:100F68008D19B32F8B13C730F000F00BB92F003257
:100F7800F201F10127000C1625008D19C52FF23654
:100F8800C72F0314F20C27000C128B30F000F00B63
:100F9800CB2F00320830F10A7102031CBE2F8B17C9
:100FA8008530F000F00BD62F72080800F1002600FB
:100FB8000D108B1327000D108B30F000F00BE22F73
:100FC8000032F201711CEB2F27000D14ED2F2700C2
:100FD8000D108B30F136F000F00BF02F0032083096
:100FE800F20A7202031CE62F27000D148B178530B6
:100FF800F000F00BFD2F080080316A28803133287B
:1010080080313C28803143288031662880317B2814
:101018008B31F52B8B31F92B8B31FE2B8C31032C3B
:10110A00640080010131890B862800348330220073
:10111A009700A33021009E000800063020009C00A2
:10112A00FA309B002100911404302B009700FF3005
:10113A0096000C302C009C00013025009F002C00EA
:10114A009A0108008C160530F2000F30F100F430D5
:10115A00F000F00BAE28F10BAE28F20BAE282100FE
:10116A008E150E162400941728309500223092000E
:10117A000800CB283430C4284B30C4287E30F6000F
:10118A00C728F601F701F801F901DB287508003ACA
:10119A000319D028C62874080C3A0319BF281C3A28
:1011AA000319C1280B3A0319C328C62876086A2BE3
:1011BA00F200F103E12388317C30D52388310030F5
:1011CA00D52388317108F300CF30F305720BEF286D
:1011DA00F317F128C030F3047308D5238831E62BBE
:1011EA0060085D02013EF1000230DD2020005C084B
:1011FA00F7005B08F6009331EC2388312000600881
:10120A00031912296F08031D0C295F1E0F296F0885
:10121A00303E102920307021883120005F1E1829A5
:10122A002E307021883121003808031D242920001E
:10123A006F08031D24295F0818390319282921007A
:10124A003808303E29292030702188312000DF1DDE
:10125A0031292E307021883121003408031D40299C
:10126A003808031D402920006F08031D40295F0824
:10127A001C390319442921003408303E45292030FD
:10128A007021883120005F1D4D292E307021883150
:10129A0021003608031D5F293408031D5F29380819
:1012AA00031D5F2920006F08031D5F295F081E398F
:1012BA000319632921003608303E64292030702141
:1012CA0088312000DF1C6C292E30702188312100E2
:1012DA003708303E7029F100E12388317C30D5236C
:1012EA0088314030D52388317108D5238831E62BDF
:1012FA00FC00200010100330F323883122008C13E5
:10130A008D120C1326000D146630F0002B30F100FC
:10131A00A62288317C08F000F101A6228831352AFC
:10132A00AA307806031D9D299F30F4009230B02917
:10133A00A1307806031DA5296D30F4009330B02939
:10134A00A2307806031DAD29DF30F4009030B029B1
:10135A009F30F4009130F5008330F6009130F700A9
:10136A00D32288316730F0002B30F100A622883171
:10137A006430F000F101EB2388310530FB000F30B7
:10138A00FA00F430F900F90BC829FA0BC829FB0B4B
:10139A00C8296430F000F101EB23883125008C1D47
:1013AA00D3290330FB000830FA007830F900F90B32
:1013BA00DC29FA0BDC29FB0BDC29322A6830F00025
:1013CA002B30F100A6228831AA307806031DF129B4
:1013DA007630F4009330002AA1307806031DF929EB
:1013EA008E30F4009330002AA2307806031D052AB5
:1013FA00DF30F4009030F5007230F60092300C2A9B
:10140A005B30F4009330F5007330F6009230F70049
:10141A00D32288312930FB009630FA00A630F90031
:10142A00F90B152AFA0B152AFB0B152A6C30F40056
:10143A009030F5007E30F6009330F700D3228831E1
:10144A003D30FB00E130FA007A30F900F90B2B2A23
:10145A00FA0B2B2AFB0B2B2A0032FF30FC003D2A09
:10146A007C08013A03199529033A0319E3293D2A0D
:10147A006930F0002B30F100A6228831AA307806B4
:10148A00031D4B2A1D30F40091305E2AA1307806E4
:10149A00031D532A6F30F40092305E2AA230780678
:1014AA00031D5B2ADF30F40090305E2A4A30F400D4
:1014BA009030F5007530F6009130F700D32288316C
:1014CA0025008C19652A0330FB000830FA007830B1
:1014DA00F900F90B6E2AFA0B6E2AFB0B6E2AAA3058
:1014EA007806031D7C2A1D30F40091308F2AA13022
:1014FA007806031D842A6F30F40092308F2AA230B6
:10150A007806031D8C2ADF30F40090308F2A4A3087
:10151A00F4009030F5000A30F6009230F700D3223A
:10152A00883125008C1D962A0330FB000830FA000A
:10153A007830F900F90B9F2AFA0B9F2AFB0B9F2A96
:10154A007E298B1322000F1100000000000000000A
:10155A0000000000000000000000F201701CB82A20
:10156A0022000F15BA2A22000F111030F136F00CA2
:10157A00F20A7202031CB32A0000000000000000F5
:10158A000000000022000F1500000000000000000B
:10159A0000000000000000008B1708005523883166
:1015AA00442388317508F2007408F10082238831D7
:1015BA00E42288317708F2007608F100822BE123D1
:1015CA0088317C30D52388310030D5238831C0302A
:1015DA00D52388312330F100F10BF12A0032E62BB2
:1015EA000330F323883122008C138D120C1326004A
:1015FA000D14200010103930F0003030F100A6220E
:10160A008831E830F0000330F100EB2388315523AC
:10161A008831442388317908F2007808F10082235E
:10162A008831E42288317B08F2007A08F1008223AB
:10163A00883129302000A2009630A100A630A000EF
:10164A00A00B252BA10B252BA20B252B0B30F4006D
:10165A009230F5008E30F6009030F700D3228831B0
:10166A0019302000A2005A30A100C830A000A00BF7
:10167A003C2BA10B3C2BA20B3C2B00320C2BE12365
:10168A0088317C30D52388310030D52388318030A9
:10169A00D52388312330F100F10B512B0032E62B90
:1016AA00E12388317C30D52388310030D523883135
:1016BA000130D52388310B30F2006230F100F10B92
:1016CA00642BF20B642B0000E62BF300E123883134
:1016DA005C30D52388310030D52388317308D5236F
:1016EA008831E62388316830F200E430F100F10BEA
:1016FA007C2BF20B7C2B00000800E12388317C3024
:10170A00D52388314030D523883171088400720886
:10171A008500120003199C2B710884007208850049
:10172A000008D5238831F10A0319F20A8A2BE62B1D
:10173A00F400E12388317C30D52388310030D52369
:10174A0088313930D52388311C30D5238831740843
:10175A007038D52388315030D52388316C30D52361
:10176A008831710BBB2B3830D52388310230710692
:10177A00031DC22B3430D52388310C30D523883150
:10178A000630D52388310130D52388310B30F30058
:10179A006230F200F20BCF2BF30BCF2B0000E62BBB
:1017AA00F000700891001418D82B16081F39031D71
:1017BA00DA2B141D0800DA2B24001614161C080054
:1017CA00E32B24001615161D0800E82B71082100CA
:1017DA00A3007008A20022008E160800F000082C50
:1017EA0022000F168F16080022000F168F120F17ED
:1017FA00080022000F128F120F13080022000F1286
:10180A008F120F17080070088400043004020318AE
:10181A000800883104350C3E8200080053305E24EB
:10182A008C3171082000DA007008D90000305A02A1
:10183A00053003195902031C5B2C5908F0005A0899
:10184A00F1000030F201F3018C278C317308A700F4
:10185A007208A6007108A5007008A4004030A30011
:10186A005930A2009930A1009A30A000C1258C31CC
:10187A002308C0002208BF002108BE002008BD00BE
:10188A00C130BC008030BB00BA01B90170243C08E9
:10189A00D0003B08CF003A08CE003908CD00873186
:1018AA0031274E08D8004D08D7000800D701D801C3
:1018BA000800F3008B13730821009D009D18632C08
:1018CA001C08F500F4011B08F4048B177508F100D5
:1018DA007408F00008003C08C9008030C9053C358E
:1018EA00CB00BB1B4B144B080319832C4B0F812CC9
:1018FA00B901BA01BB01BC01BB17862CB901BA01F7
:10190A00BB01BC014008CA008030CA054A08490622
:10191A00031D49174035CA00BF1B4A144A08031958
:10192A009E2C4A0F9C2CBD01BE01BF01C001BF17EE
:10193A00A12CBD01BE01BF01C0014B084A02031818
:10194A00C82C491FAA2C8030C9064B08CC004A086B
:10195A00CB004C08CA003908CC003D08B9004C0835
:10196A00BD003A08CC003E08BA004C08BE003B084D
:10197A00CC003F08BB004C08BF003C08CC00400824
:10198A00BC004C08C000CC014A08C100C201420890
:10199A00C4004B084102C300031CC4034408803A34
:1019AA00C50080304502031DDC2C1A304302031C9B
:1019BA00FE2C20003C083B043A0439040319E72CA6
:1019CA000130E82C0030CC00B901BA01BB01BC01DE
:1019DA004A08CB00032D4C1CF62C4C360138CC009F
:1019EA00F72CCC363918CC17BC37BB0CBA0CB90C4F
:1019FA00CB0A20004A084B02031CF02C491B272D56
:101A0A004B08031D0D2DB901BA01BB01BC01080029
:101A1A003D08B9073E08BA3D3F08BB3D4008BC3DFA
:101A2A003C1C8F2D4C1C1E2DCC364C080138CC008A
:101A3A001F2DCC363918CC17BC37BB0CBA0CB90CD5
:101A4A00CB0A8F2D3C08803AC1004008803A4102F7
:101A5A00031D392D3F083B02031D392D3E083A026A
:101A6A00031D392D3D0839020318682DFF30C100C6
:101A7A00C200C300C40039083D02C5003A083E3B13
:101A8A00C6003B083F3BC7003C08403BC80045082E
:101A9A00C1074608C23D4708C33D4808C43D44083B
:101AAA00BC004308BB004208BA004108B9008030B4
:101ABA00C906CC09CC0F702D0130B9070030BA3DE8
:101ACA00BB3DBC3D702D3D08B9023E08BA3B3F08FC
:101ADA00BB3B4008BC3B3C083B043A043904031DA9
:101AEA008D2D4C08031D8D2DB901BA01BB01BC0116
:101AFA000800B935BA0DBB0DBC0DCC1B39144C1CF2
:101B0A00892D0314CC0D8A2DCC354B08031DCB032C
:101B1A00BB1F7E2DCA01CC1F9A2D4C087F39031991
:101B2A003918982D9A2DCA01CA0A4A080319AB2DE9
:101B3A000130B9070030BA3DBB3DBC3D3C1CAB2D62
:101B4A00BC37BB0CBA0CB90C4B0FCB0A4B0A031DA2
:101B5A004B08031DB72DB901BA01BB01BC014B08E3
:101B6A000319C9014B1CBB2DBB17BC2DBB134B362C
:101B7A00BC00C91BBC1708002308AC008030AC05A8
:101B8A002335B200A21B321432080319D42D320FA6
:101B9A00D22DA001A101A201A301A217D82DA00153
:101BAA00A101A201A30127088039AC062735AD009F
:101BBA00A61B2D142D080319EA2D2D0FE82DA401BB
:101BCA00A501A601A701A617EE2DA401A501A6014C
:101BDA00A7012D08031D3208031DF82DA001A1013C
:101BEA00A201A30108002008F000260843278C312F
:101BFA007108B8007008B700AE00AF01B001B101BA
:101C0A003808B300B401B501B6012108F00025086F
:101C1A0043278C317108B8007008B700AE0701304D
:101C2A000318AF070318B0070318B1073808B3073A
:101C3A0001300318B4070318B5070318B6072208BA
:101C4A00F000240843278C317108B8007008B700E7
:101C5A00AE0701300318AF070318B0070318B1071E
:101C6A003808B30701300318B4070318B507031877
:101C7A00B6073008B1002F08B0002E08AF00AE0139
:101C8A002108F000240843278C317108B800700835
:101C9A00B700AE073808AF3D0030B03DB13D20086F
:101CAA00F000250843278C317108B8007008B70086
:101CBA00AE073808AF3D0030B03DB13D3008B10045
:101CCA002F08B0002E08AF00AE012008F00024084B
:101CDA0043278C317108B8007008B700AE0738087E
:101CEA00AF3D0030B03DB13D2108F0002608432742
:101CFA008C317108B8007008B700B3073808B43DD2
:101D0A000030B53DB63D2208F000250843278C3146
:101D1A007108B8007008B700B3073808B43D00303E
:101D2A00B53DB63D2208F000260843278C317108DC
:101D3A00B8007008B700A8003808A900AA01AB01CA
:101D4A002A08AB002908AA002808A900A80128081F
:101D5A00B3072908B43D2A08B53D2B08B63D31081A
:101D6A00B30701300318B4070318B5070318B607F9
:101D7A003008B1002F08B0002E08AF00AE013208BB
:101D8A00B700B8012D08B7070318B80A8230B70799
:101D9A00031CB803B51BDD2EB335B40DB50DB60D56
:101DAA00B11B3314FF30AE35AF0DB00DB10DCC2ED3
:101DBA00AD01B11FF22E2E08A8002F08A900300885
:101DCA00AA007F303105AB002A042904280403192C
:101DDA003318F02EF22EAD01AD0A2D080319042F87
:101DEA000130B3070030B43DB53DB63D361C042F73
:101DFA00B637B50CB40CB30CB70A0319B80A3808CD
:101E0A00803AA80080302802031D0D2FFF303702C8
:101E1A00031C172F7F302000B6008030B500B401B4
:101E2A00B301382F20003808803AA80080302802F1
:101E3A00031D212F0130370203182A2F2000B30176
:101E4A00B401B501B601AC01382F20003708B20041
:101E5A00FF30B305B4057F30B5050030B60132183E
:101E6A00B5173236B6002C08B6043608A300350872
:101E7A00A2003408A1003308A0000800F500F3010D
:101E8A00F4017008F600F701751C4F2F7608F30766
:101E9A007708F43DF635F70DF51C572F7608F3074A
:101EAA007708F43DF635F70D751D5F2F7608F307B1
:101EBA007708F43DF635F70DF51D672F7608F30719
:101ECA007708F43DF635F70D751E6F2F7608F30780
:101EDA007708F43DF635F70DF51E772F7608F307E8
:101EEA007708F43DF635F70D751F7F2F7608F3074F
:101EFA007708F43DF635F70DF51F872F7608F307B7
:101F0A007708F43D7408F1007308F0000800F8003F
:101F1A007808031DF31FA12F7009FA007109FB004D
:101F2A007209FC007309FD00FA0A0319FB0A031976
:101F3A00FC0A0319FD0AA92F7308FD007208FC00A8
:101F4A007108FB007008FA007308720471047004C7
:101F5A00031DB42FF001F101F201F30108009630DC
:101F6A00F900FE307D050319CB2FF90AFD36FC0C6A
:101F7A00FB0CFA0CB62F0130F90AFA070030FB3DC8
:101F8A00FC3DFD3DFD36FC0CFB0CFA0CFF307D05DB
:101F9A000319D92FC02F02307902031CDB2FF90352
:101FAA00FA35FB0DFC0DFD0DFC1FD02F7918E42F1F
:101FBA00FF30FA05FB057F30FC05FF30FD05F936D9
:101FCA007908F700F601F501F4017408FA047508B6
:101FDA00FB047608FC047708FD047808031DF31F48
:101FEA00F72FFD177D08F3007C08F2007B08F1004B
:101FFA007A08F0000800523465346C34613479345C
:10200A002034643465342D3465346E346534723466
:10201A00673469347A34653464340034503469344A
:10202A0063346B34693474342034503472346F340A
:10203A006734723461346D346D3469346E346734A4
:10204A00003445344534503452344F344D342034FE
:10205A0072346534613464342F34773472346934B9
:10206A0074346534003420344534723472346F3435
:10207A00723420344D3465346D345F3463346F34D4
:10208A00703469346534723400344D3475346C34C8
:10209A00743469345F3452345834203454346534D7
:1020AA00733474346A3469346734003444346534BC
:1020BA0063346F346434653420344F346C3464349C
:1020CA0020342D344634613469346C340034543449
:1020DA006534733474346A34693467342034503460
:1020EA006F347734653472342D3475347034003477
:1020FA0054346534733474342D344A34693467344F
:10210A007C345334743461347234743475347034B6
:10211A000034203474346F342034723465347334A8
:10212A0074346134723474342034743465347334DE
:10213A007434003437347334653467342C342034BF
:10214A00623475347A347A34653472342C342034F7
:10215A00203400344434653463346F346434653471
:10216A0020344E346534773420342D3420344F34BF
:10217A004B340034523465346C346134793420344D
:10218A0065346E3465347234673469347A3465344C
:10219A006434003420344534723472346F34723407
:1021AA0020342D3420344D34693463347234653428
:1021BA006C3400344D3465346D345F3443346F34D9
:1021CA007034693465347234203450346134733471
:1021DA007334003450345434433420344534723424
:1021EA0072346F3472342034723465347334653423
:1021FA007434003450346F3477346534723469344B
:10220A006E346734203462346F3461347234643427
:10221A0000344534723472346F34723420342D34BD
:10222A0020344434653463346F34643465340034A0
:10223A0043346F346E3464346F343334203454345A
:10224A006534733474346A3469346734003450340E
:10225A005434433420344534723472346F34723413
:10226A002034743472346934703400342034633462
:10227A00793463346C3469346E346734203470349E
:10228A006F3477346534723400343134363476340A
:10229A002D34313432347634203473347534703416
:1022AA0070346C34793400344D346134733474349A
:1022BA00653472342034453472346134733465348D
:1022CA002034003420344534723472346F3472341A
:1022DA00203443346F346E3464346F34333400340E
:1022EA002D343E34203449346E34733465347234B8
:1022FA007434203450344334423400342034523459
:10230A0065346D346F3476346534203462346F3416
:10231A006134723464340034203445347234723493
:10232A006F34723420342D3420344834693467349D
:10233A00683400344D3475346C34743469345F3421
:10234A005234583420345034613473347334003482
:10235A003134323476342D3435347634203473348F
:10236A007534703470346C34793400343134363422
:10237A0076342D34353476342034733475347034ED
:10238A0070346C34793400345434653473347434AE
:10239A00203445344534503452344F344D3420348B
:1023AA000034543434342034623475347334203471
:1023BA002834433441344E342934003456346F348B
:1023CA006C34743420344534723472346F34723459
:1023DA00203448340034543465347334743420342B
:1023EA00523446342034523453345334493400344A
:1023FA0056346F346C347434203445347234723445
:10240A006F34723420344C340034203450347234F3
:10241A00653473347334203453345434413452346D
:10242A0054340034453473347434613462346C3453
:10243A0069347334683469346E346734003445342B
:10244A004534503452344F344D3420346534723468
:10245A0072346F3472340034203462347534743414
:10246A0074346F346E342034743465347334743491
:10247A00003420344534723472346F347234203468
:10248A002D3420344C346F3477340034543465346A
:10249A00733474342034523446342034333476342A
:1024AA0033340034203452346534613464342F3484
:1024BA0057347234693474346534003445344534DD
:1024CA00503452344F344D342034733469347A34AE
:1024DA006534003452345834333420345434653437
:1024EA00733474346A346934673400345734613469
:1024FA006934743469346E346734203466346F3422
:10250A007234003443346F346D346D347334203490
:10251A004534723472346F347234003454342D3486
:10252A006F347534743420344534723472346F34F1
:10253A007234003443346F346E3464346F34333459
:10254A002034503461347334733400344334753472
:10255A007234723420344534723472346F347234C3
:10256A000034203466346F347234203463346F3468
:10257A006D346D34733400345434653473347434C4
:10258A002034523465346C34613479340034313453
:10259A0036347634203473347534703470346C3491
:1025AA0079340034773461346934743469346E347C
:1025BA00673420342034003453346534743420347E
:1025CA00233420346F34663420340034433448349E
:1025DA00323420342D3420344F34463446340034D7
:1025EA0043344834333420342D3420344F34463481
:1025FA0046340034523453345334493420342D345D
:10260A0020344F344B34003420346334683461341A
:10261A006E346E3465346C34733400345434653437
:10262A007334743469346E3467342034003420349B
:10263A004534723472346F34723420343134003495
:10264A0020344534723472346F3472342034323464
:10265A000034543465347334743420344334483485
:10266A00323400345434653473347434203443348B
:10267A0048343334003433347634333420342D340C
:10268A0020344F344B340034433448343234203409
:10269A002D3420344F344E340034433448343334E8
:1026AA0020342D3420344F344E3400344D347534B4
:1026BA006C34743469345F345234583400342034FE
:1026CA0073346B3469347034703465346434003470
:1026DA0052345834333420345034613473347334BC
:1026EA00003443346F346E3464346F3433342034FA
:1026FA00003477346134693474342E342E342E34F1
:10270A0000345434653473347434203452344634C7
:10271A0000345234583433342034003420343134C1
:10272A003434613400342034313434346234003483
:10273A002034313434346334003420343134303486
:10274A0000342034313431340034203431343234DA
:10275A0000342034313433340034203431343534C5
:10276A0000342034313436340034203431343734B0
:10277A00003420343134383400342034363461346F
:10278A00003420343834613400342034363462342E
:10279A000034203438346234003420343334003482
:1027AA002034343400342034353400342034363480
:1027BA0000342034373400342034383400342034A0
:0A27CA00393400346F346B340034EE
:1027D80076082100B7001F30B7057708F90076089A
:1027E800F8000530FA00790DF90CF80CFA0BF72B04
:1027F8007808B6000F30B6057708F9007608F800B3
:102808000930FA00790DF90CF80CFA0B062C780847
:10281800B4000F30B4057708F9007608F8000D30D9
:10282800FA00790DF90CF80CFA0B152C7808B80099
:102838000730B8053808340736070907B7073708D7
:10284800F0006730F101F200F301CF2493317008F2
:10285800F8007108F9000A30FA00790DF90CF80C43
:10286800FA0B312C78082000EF00F630F0006F08E2
:10287800AC2493312100B7070930F0003808AC24A4
:102888009331F800210036083607360778073407F1
:1028980020006F072100B600F0006730F101F20058
:1028A800F301CF2493317008F8007108F9000A3059
:1028B800FA00790DF90CF80CFA0B5D2C7808200059
:1028C800EF00F630F0006F08AC2493312100B60712
:1028D8000530F0003408AC2493312100380720007B
:1028E8006F072100B400F0006730F101F200F30136
:1028F800CF2493317008F8007108F9000A30FA0003
:10290800790DF90CF80CFA0B842C78082000EF00EC
:10291800F630F0006F08AC2493312100B407380872
:1029280009070907090720006F072100B800F00010
:102938001A30F101F200F301CF249331710820001D
:10294800EF00F630F0006F08AC242100B80708004B
:10295800F200F10170087218F107F0357008F218EA
:10296800F107F03570087219F107F0357008F2199F
:10297800F107F0357008721AF107F0357008F21A8D
:10298800F107F0357008721BF107F0357008F21B7B
:10299800F10771080800F401F501701CD72C7208C2
:1029A800F4077308F53DF235F30DF136F00C7008B5
:1029B8007104031DD12C7508F1007408F00008009B
:1029C8007A3021009900D0309500200095010B1134
:1029D8008B160F3021008C00CF308D001A308E00FE
:1029E8008B308F00F63090002F3026008C00EF30AF
:1029F8008D0020008C018D018E0140308F009001E8
:102A080025008C018D0124008D018F019001230088
:102A18008C010C308D000F308F000430900028009E
:102A28008C018D0188318B2094318831922094312A
:102A380005302100BB0020008C128C168831A7209D
:102A480094310830F101F10A8B319D2394315B30C8
:102A5800F4009330F5007D30F6009030F7008A31AD
:102A6800D322943120000C168B1722008E170330C6
:102A78002000E3000830E2007830E100E10B422D4D
:102A8800E20B422DE30B422DAA30F000F1008A310F
:102A9800A622943185302000E100E10B512D5530FC
:102AA800F000F1008A31A622943185302000E1003F
:102AB800E10B5C2D200010102100961D682D0230BE
:102AC800F80189317D21943125008C1D762D5B30EC
:102AD800F8009330F9007530FA009130FB008A3124
:102AE800F5229431FF30F4009030F500AE30F60056
:102AF8009030F7008A31D32294310C30F400F5017C
:102B08008831BE20943100308B31F3239431043066
:102B18002000E3000C30E2003530E100E10B922D9B
:102B2800E20B922DE30B922D00325F308C315E2444
:102B38009431AF30AE000E30AF00BC2D5F308C3119
:102B48005E249431003071027B3003197002031C3B
:102B5800C72D8C3113249431003058021E300319CC
:102B680057020318C72D21002E082F040319C72D5B
:102B78005F308C315E249431003071026830031963
:102B88007002031CA22D5F308C315E24943100301A
:102B980071026830031970020318DA2DAD30F8009D
:102BA8009130F900FD30FA009130292E5F308C31D8
:102BB8005E249431003071027B3003197002031CCB
:102BC800ED2DAD30F8009130F900E330FA00913086
:102BD800292E8C3113249431003058023C300319CB
:102BE8005702031C1D2E8C31132494315808DC0025
:102BF8005708DB000530DD00DE01DF01E001E00AF7
:102C08008831F520943115302000E3004B30E20084
:102C1800D130E100E10B0E2EE20B0E2EE30B0E2E4F
:102C280000004E30F8009130F900AB30FA009230D5
:102C3800292E21002E082F04031D2D2EAD30F8005B
:102C48009130F9009330FA009230FB008A31F52276
:102C580094311B30F400F5018831BE2094310030E6
:102C68008B31F323943129302000E3009630E200C1
:102C7800A630E100E10B3E2EE20B3E2EE30B3E2E8A
:102C8800AF302100AE000E30AF0096317B2E5F30A2
:102C98008C315E249631003071027B30031970024A
:102CA800031C862E63308C315E249631023071020B
:102CB8001330031970020318862E63308C315E249A
:102CC800963102307102C63003197002031C862E39
:102CD8008C3113249631003058023C3003195702C6
:102CE8000318862E21002E082F040319862E5F3024
:102CF8008C315E24963100307102683003197002FD
:102D0800031C4B2E8C31132496315808E5005708C4
:102D1800E4005F308C315E249631003071026830F7
:102D2800031970025F300318BA2E8C315E24963175
:102D380071082000DC007008DB000B30DD00DE01CC
:102D4800DF01E0018831F520963129302000E300C9
:102D58009630E200A630E100E10BB02EE20BB02E77
:102D6800E30BB02EBB30F8009130D62E8C315E24A8
:102D78009631003071027B3003197002031CC82E93
:102D8800BB30F8009130092F63308C315E249631C6
:102D9800023071021330031970020318DB2E4A3017
:102DA800F8009130F900FD30FA009130452F63307A
:102DB8008C315E24963102307102C63003197002DC
:102DC800031C0E2F63308C315E249631710820006D
:102DD800DC007008DB000530DD00DE01DF01E0010A
:102DE800E00A8831F520963115302000E3004B3099
:102DF800E200D130E100E10BFF2EE20BFF2EE30BE6
:102E0800FF2E00004A30F8009130F900E330FA0054
:102E18009130452F0030200065023C3003196402D0
:102E2800031C392F6508DC006408DB000530DD0071
:102E3800DE01DF01E001E00A8831F5209631153026
:102E48002000E3004B30E200D130E100E10B2A2FF3
:102E5800E20B2A2FE30B2A2F0000CC30F800923027
:102E6800F900AB30FA009230452F21002E082F04CC
:102E7800031D492FBB30F8009130F9009330FA0058
:102E88009230FB008A31F522963120000C1DB62FB6
:102E980000308B31F32396311330F4009030F50075
:102EA800AE30F6009030F7008A31D32296312200F6
:102EB8008C1703302000E3000830E2007830E1008E
:102EC800E10B642FE20B642FE30B642F7B30F400DB
:102ED8009230F5001930F6009030F7008A31D3228D
:102EE800963122000E158E1703302000E3000830BB
:102EF800E2007830E100E10B7F2FE20B7F2FE30B3C
:102F08007F2F22000E1715302000E3004B30E2001F
:102F1800D130E100E10B8E2FE20B8E2FE30B8E2FC9
:102F2800000022000E135C302000E3005130E20064
:102F3800BA30E100E10B9E2FE20B9E2FE30B9E2F90
:102F4800000022000E118E1303302000E300083029
:102F5800E2007830E100E10BAF2FE20BAF2FE30B7B
:102F6800AF2FCF2F1330F4009030F5006430F60007
:102F78009330F7008A31D322963107302000E300DE
:102F88001730E2006F30E100E10BC82FE20BC82FC9
:102F9800E30BC82F000027000C1203302000E300C9
:102FA8000830E2007830E100E10BD82FE20BD82F8F
:102FB800E30BD82F27000C1603302000E30008305D
:102FC800E2007830E100E10BE72FE20BE72FE30B9B
:102FD800E72F27000C121730F4009230F500BB30B1
:102FE800F6009230F7008A31D32220000030EE013B
:082FF800EB01EC018031E72838
:020000040001F9
:04000E00CCCFFFDB79
:00000001FF
