:0400000080314F28D4
:100008007E1480310B1D262821002E082F04031989
:1000180012280130AE020030AF3B14282000101027
:1000280021003208330403191D28FF30B207031CCE
:10003800B3032A082B0403192528FF30AA07031C39
:10004800AB030B112000911C4D282100220823042A
:10005800031933280130A2020030A33B35282200BF
:100068008E12210039083A0403193F280130B902D9
:100078000030BA3B4328E830B9000330BA003008F2
:10008800310403194B280130B0020030B13B200085
:1000980091107E10090080315128A030EF018400B2
:1000A8000030850019308731FA272100E830B9007F
:1000B8000330BA007E1020009631952E5F308C31C7
:1000C8005E248031003071027B3003197002031CFA
:1000D8009D2863308C315E248031023071021330E8
:1000E8000319700203189D2863308C315E24803117
:1000F80002307102C63003197002031C9D288C312E
:1001080013248031003058023C3003195702031879
:100118009D2821002E082F0403199D285F308C315B
:100128005E24803100307102683003197002031CAC
:1001380062288C31132480315808E5005708E40000
:100148005F308C315E2480310030710268300319D1
:1001580070020318B3280530F8009230D0285F30B9
:100168008C315E248031003071027B3003197002BB
:10017800031CC2280530F8009230E32863308C3124
:100188005E248031023071021330031970020318A3
:10019800D5289430F8009130F9004730FA009230B1
:1001A8001F2963308C315E24803102307102C630E1
:1001B80003197002031CE8289430F8009130F90004
:1001C8002D30FA0092301F290030200065023C30A3
:1001D80003196402031C13296508DC006408DB00AA
:1001E8000530DD00DE01DF01E001E00A8831F7209B
:1001F800803115302000E3004B30E200D130E100BF
:10020800E10B0429E20B0429E30B04290000163052
:10021800F8009330F900F530FA0092301F292100D8
:100228002E082F04031D23290530F8009230F90009
:10023800DD30FA009230FB008A31F622803120004E
:100248000C1D302A0C30F400F5018831C0208031B3
:1002580000308B31F32380313F30F4009030F500CB
:10026800DA30F6009030F7008A31D422803103303A
:100278002000E3000830E2007830E100E10B422979
:10028800E20B4229E30B4229C530F4009230F50015
:100298004530F6009030F7008A31D42280312500AD
:1002A8000C1C992922008C138D130E158E17033000
:1002B8002000E3000830E2007830E100E10B622919
:1002C800E20B6229E30B622922000E171530200089
:1002D800E3004B30E200D130E100E10B7129E20B81
:1002E8007129E30B7129000022000E135C302000F5
:1002F800E3005130E200BA30E100E10B8129E20B62
:100308008129E30B8129000022000E118E1303308E
:100318002000E3000830E2007830E100E10B922988
:10032800E20B9229E30B9229DD290C18DD29220022
:100338000E118E138C178D1703302000E300083040
:10034800E2007830E100E10BA729E20BA729E30BD3
:10035800A72922000E1715302000E3004B30E200D9
:10036800D130E100E10BB629E20BB629E30BB6293F
:10037800000022000E135C302000E3005130E20040
:10038800BA30E100E10BC629E20BC629E30BC62906
:10039800000022008C138D1303302000E300083086
:1003A800E2007830E100E10BD729E20BD729E30B13
:1003B800D72921002C082D040319252A0130AC0265
:1003C8000030AD3B492A22000E158E170A30210055
:1003D800AC00AD010230232AE830AC000330AD0098
:1003E80022000E17222A22000E132000101B042AB6
:1003F80021006530B50A3502031C062ABB01062A0E
:100408002100B5012000901A112A04302100BB00F8
:10041800E830AC000330AD00152A101A152A210067
:10042800BB0101302100AC00AD01492A22000E11A8
:100438008E13492A22000E118E1305302100BB00AD
:10044800492A3B088400063004020318492A9331DC
:100458000435DE3E8200492A3F30F4009030F50032
:100468006D30F6009330F7008A31D422803107309E
:100478002000E3001730E2006F30E100E10B422A70
:10048800E20B422AE30B422A000027000C12033039
:100498002000E3000830E2007830E100E10B522A46
:1004A800E20B522AE30B522A27000C1603302000D5
:1004B800E3000830E2007830E100E10B612AE20B4A
:1004C800612AE30B612A27000C126130F400923094
:1004D800F5000530F6009330F7008A31D4228031D8
:1004E8002000ED0122000E118E138D138C132000B5
:1004F8000030EB01EC016C02643003196B02031845
:10050800E42A0130953179258031883142208031C3
:100518002000EE00AA3A0319992AA1306E060319A1
:10052800992AA2306E06031DB32A6E08DB00053037
:10053800DC01DD00DE01DF01E0018831F7208031D8
:1005480015302000E3004B30E200D130E100E10B30
:10055800AB2AE20BAB2AE30BAB2A0000E42A6C08B7
:10056800DC006B08DB000B30DD00DE01DF01E001A1
:100578008831F720803120006E08DB000530DC016F
:10058800DD00DE01DF01E0018831F7208031023033
:100598002000E3000430E200BA30E100E10BD22A87
:1005A800E20BD22AE30BD22A00002000EB0A03193F
:1005B800EC0A00306C02643003196B02031C852AB4
:1005C800003020006C021E3003196B02031CF82A4D
:1005D800D130F8009230F900DB30FA009330FB009C
:1005E8008A31F62280311E2B6C08DC006B08DB0098
:1005F8000B30DD00DE01DF01E0018831F7208031BA
:1006080020006E08DB000530DC01DD00DE01DF01C3
:10061800E0018831F720803102302000E300043007
:10062800E200BA30E100E10B172BE20B172BE30BCA
:10063800172B0000AA3020006E060319272BA230C2
:100648006E06031D992B4930F4009330F5005230A3
:10065800F6009030F7008A31D4228031103095317D
:100668007925803188311C2080312000ED00EE3A58
:10067800031D462B6E30F8009230F900A130FA00C5
:100688009230512B1A306D060319552BD130F800D2
:100698009230F9005830FA009330FB008A31F62284
:1006A80080311330F4009230F500B330F600923008
:1006B800F7008A31D4228031203095317925803174
:1006C80088311C2080312000ED00E7002130E60150
:1006D80095317925803188311C2080312000ED004A
:1006E800E604AA306E06031D862B203067066604D2
:1006F8000319992BAD30F8009230F900B130FA00A7
:100708009130952BA2306E06031D992B660867045D
:100718000319992BAD30F8009230F9006430FA00D3
:100728009030FB008A31F6228031AA3020006E0614
:100738000319A22BA1306E06031D2B2D1B30F400CC
:10074800F5018831C02080310B30F4009330F5007A
:10075800DA30F6009030F7008A31D4228031313017
:1007680095317925803188311C2080313B3A031D31
:10077800262C03302000E3000830E2007830E10046
:10078800E10BC42BE20BC42BE30BC42B25008C1EFE
:100798001E2C303095317925803188311C208031EC
:1007A8003A3A031D262C03302000E3000830E2000B
:1007B8007830E100E10BDE2BE20BDE2BE30BDE2BC6
:1007C80025008C1A162C31309531792580318831E5
:1007D8001C2080313B3A031D262C02302000E30008
:1007E8000430E200BA30E100E10BF82BE20BF82B01
:1007F800E30BF82B000025008C1E0E2C0B30F400A8
:100808009330F5007A30F6009330F7008A31D4221D
:100818008031312C0030F8009030F9005230FA0065
:1008280093302D2CEB30F8009030F9005330FA005B
:1008380093302D2C2B30F8009130F9009730FA00C6
:1008480093302D2CD130F8009230F9005B30FA004B
:100858009330FB008A31F622803141309531792579
:10086800803188311C2080314B3A031DA32C033082
:100878002000E3000830E2007830E100E10B422C70
:10088800E20B422CE30B422C25000C1D9B2C403024
:1008980095317925803188311C2080314A3A031DF1
:1008A800A32C03302000E3000830E2007830E10098
:1008B800E10B5C2CE20B5C2CE30B5C2C25000C1987
:1008C800932C413095317925803188311C20803135
:1008D8004B3A031DA32C03302000E3000830E2004C
:1008E8007830E100E10B762CE20B762CE30B762CCA
:1008F80025000C1D8B2C9530F4009230F5007A30D1
:10090800F6009330F7008A31D4228031AE2C1530AE
:10091800F8009030F9005230FA009330AA2CFB30DE
:10092800F8009030F9005330FA009330AA2C3A308E
:10093800F8009130F9009730FA009330AA2CD130A2
:10094800F8009230F9005B30FA009330FB008A31EE
:10095800F6228031513095317925803188311C203B
:1009680080315B3A031D202D03302000E30008305E
:10097800E2007830E100E10BBF2CE20BBF2CE30B67
:10098800BF2C25008C1C182D5030953179258031CD
:1009980088311C2080315A3A031D202D0330200055
:1009A800E3000830E2007830E100E10BD92CE20BDB
:1009B800D92CE30BD92C25008C18102D51309531EA
:1009C8007925803188311C2080315B3A031D202D28
:1009D80003302000E3000830E2007830E100E10B4A
:1009E800F32CE20BF32CE30BF32C25008C1C082DC5
:1009F8000B30F4009330F5007A30F6009330F700AE
:100A08008A31D42280312B2D2A30F8009030F90019
:100A18005230FA009330272D0B30F8009130F9004E
:100A28005330FA009330272D4930F8009130F900FF
:100A38009730FA009330272DD130F8009230F90022
:100A48005B30FA009330FB008A31F6228031AA30FD
:100A580020006E060319342DA1306E06031D372FB2
:100A68001C302100AE005830AF00200010140530B3
:100A7800E3000F30E200F430E100E10B412DE20B1E
:100A8800412DE30B412D9F30F4009330F5004230A7
:100A9800F6009230F7008A31D422803160309531E7
:100AA8007925803188311C2080312000ED006030AC
:100AB80095317925803188311C2080312000ED0066
:100AC80010106D08031D702DD130F8009230F90018
:100AD800C730FA009330C42D6D0A031D7B2DD13029
:100AE800F8009230F900B830FA009330C42DEE3097
:100AF8006D06031D872DD130F8009230F900BD3006
:100B0800FA009330C42DE7306D02031C932DD130C9
:100B1800F8009230F900C230FA009330C42D7E30CC
:100B28006D02031CB92D6D08DB000530DC01DD000A
:100B3800DE01DF01E001E00A8831F720803166300C
:100B48002000E3007730E2002430E100E10BAA2D19
:100B5800E20BAA2DE30BAA2D00003A30F8009230E0
:100B6800F900DB30FA009130C42D5A306D020318B9
:100B7800C82D3A30F8009230F9008830FA009230E7
:100B8800FB008A31F62280319F30F4009330F50063
:100B98003530F6009330F7008A31D42280310330A3
:100BA8002000E3000830E2007830E100E10BDA2DA4
:100BB800E20BDA2DE30BDA2D9F30F4009330F500C9
:100BC8006F30F6009130F7008A31D422803120004E
:100BD800ED01E801E9016908803AE100803061022D
:100BE800031DF82D323068020318032F1C30210032
:100BF800AE005830AF00200010140530E3000F306D
:100C0800E200F430E100E10B072EE20B072EE30BC4
:100C1800072E2000EB01EC0100306C0205300319AF
:100C28006B0203185D2E613095317925803188314A
:100C38001C2080312000ED008B31552380318F300E
:100C4800F4009330F500DA30F6009030F7008A317E
:100C5800D422803120006D08DB00DC01DD01DE01DB
:100C6800DF01E0018831F720803115302000E300F2
:100C78004B30E200D130E100E10B402EE20B402E78
:100C8800E30B402E0000023020006D0603195D2E94
:100C98000530E3000F30E200F430E100E10B522EA2
:100CA800E20B522EE30B522E2000EB0A0319EC0A3A
:100CB800102E10108B3155238031023020006D0624
:100CC800031D802EAD30F4009330F500A730F600F8
:100CD8009330F7008A31D422803115302000E300A8
:100CE8004B30E200D130E100E10B782EE20B782E98
:100CF800E30B782E0000032F9F30F4009330F500AB
:100D08008530F6009130F7008A31D42280310330E3
:100D18008B31F323803122008D120C1326008D14A1
:100D28005F308C315E248031003071021730031936
:100D380070020318942E00308B31F3238031053074
:100D48002000E3000F30E200F430E100E10BAA2EAE
:100D5800E20BAA2EE30BAA2E2000EB01EC010030D7
:100D68006C020A3003196B020318F52E0130953115
:100D7800792580318831422080312000EA00AA3A62
:100D88000319F52EA1306A060319F52E6C08DC004C
:100D98006B08DB000B30DD00DE01DF01E00188318C
:100DA800F720803120006E08DB000530DC01DD0013
:100DB800DE01DF01E0018831F720803102302000B8
:100DC800E3000430E200BA30E100E10BE92EE20B67
:100DD800E92EE30BE92E00002000EB0A0319EC0AC8
:100DE800B32EE80A0319E90A6908803AE10080305D
:100DF8006102031D012F32306802031CFA2D0230F4
:100E080020006D06031D142F9F30F4009330F50069
:100E1800DB30F6009030F7008A31D4228031372F4A
:100E280002306D06031D202F9F30F8009330F90023
:100E38008730FA009030332F03306D06031D2C2FB6
:100E48009F30F8009330F9006730FA009130332F63
:100E5800D130F8009230F900CB30FA009330FB0023
:100E68008A31F6228031A23020006E06031D5E2FE3
:100E78002030F4009230F500D930F6009030F700B9
:100E88008A31D4228031A03095317925803188315A
:100E98001C2080312000ED00AA3A03195E2FD130C2
:100EA800F8009230F900D730FA009330FB008A310D
:100EB800F6228031AA3020006E0603196B2FA1306C
:100EC8006E0603196B2FA2306E06031D8D2FA330FB
:100ED800F4009130F500D930F6009030F7008A31EF
:100EE800D4228031823095317925803188311C2097
:100EF80080312000ED008A3A03198D2FD130F80097
:100F08009230F900D330FA009330FB008A31F62290
:100F18008031AA3020006E060319962FA1306E0684
:100F2800031DB82F2B30F4009330F5003F30F60046
:100F38009330F7008A31D422803181309531792578
:100F4800803188311C2080312000ED008A3A031955
:100F5800B82FD130F8009230F900CF30FA00933032
:100F6800FB008A31F6228031AA3020006E06031970
:100F7800C52FA1306E060319C52FA2306E06031DBA
:100F8800F22FCB30F4009030F5007B30F600923031
:100F9800F7008A31D422803190309531792580311B
:100FA80026008D1415302000E3004B30E200D130CC
:100FB800E100E10BDD2FE20BDD2FE30BDD2F00005D
:100FC80025008D1CE42F2130F4009330F50000300B
:100FD800F6009330F7008A31D422803120006E0861
:100FE800F800013089317F2180314F286400800169
:080FF8000131890BFB2F0034CD
:10100A008C160530F2000F30F100F430F000F00BCE
:10101A000C28F10B0C28F20B0C2821008E150E1649
:10102A0024009417283095002230920008002500E9
:10103A000D181C288B13C730F000F00B2228003241
:10104A00F201F10127000C1625000D182E28F236A0
:10105A0030280314F20C27000C128530F000F00B34
:10106A0034280830F10A7102031C27288B178530AF
:10107A00F000F00B3E2872080800F4302100B2009C
:10108A000130B3004D2821003208330403195028D7
:10109A0025000D184828C730F000F00B52280032FE
:1010AA00F201F10125000D185C28F2365E280314BE
:1010BA00F20C8530F000F00B60280830F10A71025A
:1010CA00031C57288530F000F00B692872080800C5
:1010DA004D08D1004E08D2004F08D3005008D40062
:1010EA000310530D540DD6005608031D8128CD0157
:1010FA00CE01CF01D00108004D08D1004E08D20020
:10110A004F08D3005008D4001F30D436D30CD20C69
:10111A00D10C890B8A285108D5009630CF17D001F7
:10112A00D602D61FA4285608803A973E031C7C286C
:10113A00D036CF0CCE0CCD0CD60F9D28B12820303E
:10114A00560203187C2856080319B128CD35CE0D4E
:10115A00CF0DD00DD603A828550803190800CD09CC
:10116A00CE09CF09D009CD0A0319CE0A0319CF0A2D
:10117A000319D00A0800CD283430C6284B30C628B7
:10118A007E30F600C928F601F701F801F901DD28D9
:10119A007508003A0319D228C82874080C3A0319AA
:1011AA00C1281C3A0319C3280B3A0319C528C828B1
:1011BA0076086A2BF200F103E12388317C30D523CB
:1011CA0088310030D52388317108F300CF30F30518
:1011DA00720BF128F317F328C030F3047308D523F0
:1011EA008831E62B60085D02013EF1000230DF2003
:1011FA0020005C08F7005B08F60095319D258831D0
:10120A0020006008031914296F08031D0E295F1EA8
:10121A0011296F08303E12292030722188312000AE
:10122A005F1E1A292E307221883121003808031DC9
:10123A00262920006F08031D26295F08183903197B
:10124A002A2921003808303E2B2920307221883182
:10125A002000DF1D33292E30722188312100340805
:10126A00031D42293808031D422920006F08031D67
:10127A0042295F081C390319462921003408303EE7
:10128A00472920307221883120005F1D4F292E30D6
:10129A007221883121003608031D61293408031D93
:1012AA0061293808031D612920006F08031D61297F
:1012BA005F081E390319652921003608303E662960
:1012CA002030722188312000DF1C6E292E307221D5
:1012DA00883121003708303E7229F100E123883134
:1012EA007C30D52388314030D52388317108D52305
:1012FA008831E62BFC00200010100330F3238831DC
:10130A0022008D120C1326008D146630F0002B304B
:10131A00F100A72288317C08F000F101A722883168
:10132A00362AAA307806031D9E29E930F400923045
:10133A00B129A1307806031DA6297630F40093302E
:10134A00B129A2307806031DAE291B30F400913072
:10135A00B129E930F4009130F500CD30F600913032
:10136A00F700D42288316730F0002B30F100A72231
:10137A0088316430F000F101EB2388310530FB003D
:10138A000F30FA00F430F900F90BC929FA0BC92910
:10139A00FB0BC9296430F000F101EB2388312500E9
:1013AA008C1DD4290330FB000830FA007830F9008C
:1013BA00F90BDD29FA0BDD29FB0BDD29332A68300D
:1013CA00F0002B30F100A7228831AA307806031DDD
:1013DA00F2297F30F4009330012AA1307806031DE8
:1013EA00FA29B330F4009330012AA2307806031D9B
:1013FA00062A1B30F4009130F500BC30F60092301A
:10140A000D2A6430F4009330F500BD30F6009230B6
:10141A00F700D42288312930FB009630FA00A63032
:10142A00F900F90B162AFA0B162AFB0B162A983022
:10143A00F4009030F5008730F6009330F700D4229C
:10144A0088313D30FB00E130FA007A30F900F90BBF
:10145A002C2AFA0B2C2AFB0B2C2A0032FF30FC0018
:10146A003E2A7C08013A03199629033A0319E4290A
:10147A003E2A6930F0002B30F100A7228831AA30C9
:10148A007806031D4C2A7630F40091305F2AA13089
:10149A007806031D542AB930F40092305F2AA2302C
:1014AA007806031D5C2A1B30F40091305F2A7630DF
:1014BA00F4009030F500BF30F6009130F700D422E6
:1014CA00883125008C19662A0330FB000830FA009F
:1014DA007830F900F90B6F2AFA0B6F2AFB0B6F2A87
:1014EA00AA307806031D7D2A7630F4009130902ABE
:1014FA00A1307806031D852AB930F4009230902A6B
:10150A00A2307806031D8D2A1B30F4009130902AF0
:10151A007630F4009030F5005430F6009230F7003F
:10152A00D422883125008C1D972A0330FB0008300D
:10153A00FA007830F900F90BA02AFA0BA02AFB0B63
:10154A00A02A80298B1322000F110000000000003E
:10155A00000000000000000000000000F201701C02
:10156A00B92A22000F15BB2A22000F111030F136BA
:10157A00F00CF20A7202031CB42A000000000000F8
:10158A0000000000000022000F150000000000000B
:10159A00000000000000000000008B17080055231F
:1015AA008831442388317508F2007408F1008223D7
:1015BA008831E52288317708F2007608F100822B1B
:1015CA00E12388317C30D52388310030D523883116
:1015DA00C030D52388312330F100F10BF22A0032D2
:1015EA00E62B0330F323883122008D120C132600D8
:1015FA008D14200010103930F0003030F100A7228D
:10160A008831E830F0000330F100EB2388315523AC
:10161A008831442388317908F2007808F10082235E
:10162A008831E52288317B08F2007A08F1008223AA
:10163A00883129302000A2009630A100A630A000EF
:10164A00A00B252BA10B252BA20B252B5530F40023
:10165A009230F500BA30F6009030F700D422883183
:10166A0019302000A2005A30A100C830A000A00BF7
:10167A003C2BA10B3C2BA20B3C2B00320C2BE12365
:10168A0088317C30D52388310030D52388318030A9
:10169A00D52388312330F100F10B512B0032E62B90
:1016AA00E12388317C30D52388310030D523883135
:1016BA000130D52388310B30F2006230F100F10B92
:1016CA00642BF20B642B0000E62BF300E123883134
:1016DA005C30D52388310030D52388317308D5236F
:1016EA008831E62388316830F200E430F100F10BEA
:1016FA007C2BF20B7C2B00000800E12388317C3024
:10170A00D52388314030D523883171088400720886
:10171A008500120003199C2B710884007208850049
:10172A000008D5238831F10A0319F20A8A2BE62B1D
:10173A00F400E12388317C30D52388310030D52369
:10174A0088313930D52388311C30D5238831740843
:10175A007038D52388315030D52388316C30D52361
:10176A008831710BBB2B3830D52388310230710692
:10177A00031DC22B3430D52388310C30D523883150
:10178A000630D52388310130D52388310B30F30058
:10179A006230F200F20BCF2BF30BCF2B0000E62BBB
:1017AA00F000700891001418D82B16081F39031D71
:1017BA00DA2B141D0800DA2B24001614161C080054
:1017CA00E32B24001615161D0800E82B71082100CA
:1017DA00A3007008A20022008E160800F000082C50
:1017EA0022000F168F16080022000F168F120F17ED
:1017FA00080022000F128F120F13080022000F1286
:10180A008F120F17080070088400043004020318AE
:10181A00080093310435EA3E8200080053305E2402
:10182A008C3171082000DA007008D90000305A02A1
:10183A00053003195902031C5B2C5908F0005A0899
:10184A00F1000030F201F3018C278C317308A700F4
:10185A007208A6007108A5007008A4004030A30011
:10186A005930A2009930A1009A30A000C1258C31CC
:10187A002308C0002208BF002108BE002008BD00BE
:10188A00C130BC008030BB00BA01B90170243C08E9
:10189A00D0003B08CF003A08CE003908CD00883185
:1018AA006D204E08D8004D08D7000800D701D8018E
:1018BA000800F3008B13730821009D009D18632C08
:1018CA001C08F500F4011B08F4048B177508F100D5
:1018DA007408F00008003C08C9008030C9053C358E
:1018EA00CB00BB1B4B144B080319832C4B0F812CC9
:1018FA00B901BA01BB01BC01BB17862CB901BA01F7
:10190A00BB01BC014008CA008030CA054A08490622
:10191A00031D49174035CA00BF1B4A144A08031958
:10192A009E2C4A0F9C2CBD01BE01BF01C001BF17EE
:10193A00A12CBD01BE01BF01C0014B084A02031818
:10194A00C82C491FAA2C8030C9064B08CC004A086B
:10195A00CB004C08CA003908CC003D08B9004C0835
:10196A00BD003A08CC003E08BA004C08BE003B084D
:10197A00CC003F08BB004C08BF003C08CC00400824
:10198A00BC004C08C000CC014A08C100C201420890
:10199A00C4004B084102C300031CC4034408803A34
:1019AA00C50080304502031DDC2C1A304302031C9B
:1019BA00FE2C20003C083B043A0439040319E72CA6
:1019CA000130E82C0030CC00B901BA01BB01BC01DE
:1019DA004A08CB00032D4C1CF62C4C360138CC009F
:1019EA00F72CCC363918CC17BC37BB0CBA0CB90C4F
:1019FA00CB0A20004A084B02031CF02C491B272D56
:101A0A004B08031D0D2DB901BA01BB01BC01080029
:101A1A003D08B9073E08BA3D3F08BB3D4008BC3DFA
:101A2A003C1C8F2D4C1C1E2DCC364C080138CC008A
:101A3A001F2DCC363918CC17BC37BB0CBA0CB90CD5
:101A4A00CB0A8F2D3C08803AC1004008803A4102F7
:101A5A00031D392D3F083B02031D392D3E083A026A
:101A6A00031D392D3D0839020318682DFF30C100C6
:101A7A00C200C300C40039083D02C5003A083E3B13
:101A8A00C6003B083F3BC7003C08403BC80045082E
:101A9A00C1074608C23D4708C33D4808C43D44083B
:101AAA00BC004308BB004208BA004108B9008030B4
:101ABA00C906CC09CC0F702D0130B9070030BA3DE8
:101ACA00BB3DBC3D702D3D08B9023E08BA3B3F08FC
:101ADA00BB3B4008BC3B3C083B043A043904031DA9
:101AEA008D2D4C08031D8D2DB901BA01BB01BC0116
:101AFA000800B935BA0DBB0DBC0DCC1B39144C1CF2
:101B0A00892D0314CC0D8A2DCC354B08031DCB032C
:101B1A00BB1F7E2DCA01CC1F9A2D4C087F39031991
:101B2A003918982D9A2DCA01CA0A4A080319AB2DE9
:101B3A000130B9070030BA3DBB3DBC3D3C1CAB2D62
:101B4A00BC37BB0CBA0CB90C4B0FCB0A4B0A031DA2
:101B5A004B08031DB72DB901BA01BB01BC014B08E3
:101B6A000319C9014B1CBB2DBB17BC2DBB134B362C
:101B7A00BC00C91BBC1708002308AC008030AC05A8
:101B8A002335B200A21B321432080319D42D320FA6
:101B9A00D22DA001A101A201A301A217D82DA00153
:101BAA00A101A201A30127088039AC062735AD009F
:101BBA00A61B2D142D080319EA2D2D0FE82DA401BB
:101BCA00A501A601A701A617EE2DA401A501A6014C
:101BDA00A7012D08031D3208031DF82DA001A1013C
:101BEA00A201A30108002008F000260843278C312F
:101BFA007108B8007008B700AE00AF01B001B101BA
:101C0A003808B300B401B501B6012108F00025086F
:101C1A0043278C317108B8007008B700AE0701304D
:101C2A000318AF070318B0070318B1073808B3073A
:101C3A0001300318B4070318B5070318B6072208BA
:101C4A00F000240843278C317108B8007008B700E7
:101C5A00AE0701300318AF070318B0070318B1071E
:101C6A003808B30701300318B4070318B507031877
:101C7A00B6073008B1002F08B0002E08AF00AE0139
:101C8A002108F000240843278C317108B800700835
:101C9A00B700AE073808AF3D0030B03DB13D20086F
:101CAA00F000250843278C317108B8007008B70086
:101CBA00AE073808AF3D0030B03DB13D3008B10045
:101CCA002F08B0002E08AF00AE012008F00024084B
:101CDA0043278C317108B8007008B700AE0738087E
:101CEA00AF3D0030B03DB13D2108F0002608432742
:101CFA008C317108B8007008B700B3073808B43DD2
:101D0A000030B53DB63D2208F000250843278C3146
:101D1A007108B8007008B700B3073808B43D00303E
:101D2A00B53DB63D2208F000260843278C317108DC
:101D3A00B8007008B700A8003808A900AA01AB01CA
:101D4A002A08AB002908AA002808A900A80128081F
:101D5A00B3072908B43D2A08B53D2B08B63D31081A
:101D6A00B30701300318B4070318B5070318B607F9
:101D7A003008B1002F08B0002E08AF00AE013208BB
:101D8A00B700B8012D08B7070318B80A8230B70799
:101D9A00031CB803B51BDD2EB335B40DB50DB60D56
:101DAA00B11B3314FF30AE35AF0DB00DB10DCC2ED3
:101DBA00AD01B11FF22E2E08A8002F08A900300885
:101DCA00AA007F303105AB002A042904280403192C
:101DDA003318F02EF22EAD01AD0A2D080319042F87
:101DEA000130B3070030B43DB53DB63D361C042F73
:101DFA00B637B50CB40CB30CB70A0319B80A3808CD
:101E0A00803AA80080302802031D0D2FFF303702C8
:101E1A00031C172F7F302000B6008030B500B401B4
:101E2A00B301382F20003808803AA80080302802F1
:101E3A00031D212F0130370203182A2F2000B30176
:101E4A00B401B501B601AC01382F20003708B20041
:101E5A00FF30B305B4057F30B5050030B60132183E
:101E6A00B5173236B6002C08B6043608A300350872
:101E7A00A2003408A1003308A0000800F500F3010D
:101E8A00F4017008F600F701751C4F2F7608F30766
:101E9A007708F43DF635F70DF51C572F7608F3074A
:101EAA007708F43DF635F70D751D5F2F7608F307B1
:101EBA007708F43DF635F70DF51D672F7608F30719
:101ECA007708F43DF635F70D751E6F2F7608F30780
:101EDA007708F43DF635F70DF51E772F7608F307E8
:101EEA007708F43DF635F70D751F7F2F7608F3074F
:101EFA007708F43DF635F70DF51F872F7608F307B7
:101F0A007708F43D7408F1007308F0000800F8003F
:101F1A007808031DF31FA12F7009FA007109FB004D
:101F2A007209FC007309FD00FA0A0319FB0A031976
:101F3A00FC0A0319FD0AA92F7308FD007208FC00A8
:101F4A007108FB007008FA007308720471047004C7
:101F5A00031DB42FF001F101F201F30108009630DC
:101F6A00F900FE307D050319CB2FF90AFD36FC0C6A
:101F7A00FB0CFA0CB62F0130F90AFA070030FB3DC8
:101F8A00FC3DFD3DFD36FC0CFB0CFA0CFF307D05DB
:101F9A000319D92FC02F02307902031CDB2FF90352
:101FAA00FA35FB0DFC0DFD0DFC1FD02F7918E42F1F
:101FBA00FF30FA05FB057F30FC05FF30FD05F936D9
:101FCA007908F700F601F501F4017408FA047508B6
:101FDA00FB047608FC047708FD047808031DF31F48
:101FEA00F72FFD177D08F3007C08F2007B08F1004B
:101FFA007A08F0000800523465346C34613479345C
:10200A00313420342134643465342D3465346E34EB
:10201A0065347234673469347A346534643400342C
:10202A00523465346C346134793432342034213496
:10203A00643465342D3465346E34653472346734EF
:10204A0069347A34653464340034523465346C3417
:10205A0061347934333420342134643465342D3492
:10206A0065346E3465347234673469347A3465346D
:10207A00643400345034693463346B3469347434EE
:10208A002034503472346F346734723461346D34AE
:10209A006D3469346E346734003445344534503411
:1020AA0052344F344D3420347234653461346434DC
:1020BA002F347734723469347434653400342034FC
:1020CA004534723472346F34723420344D3465348A
:1020DA006D345F3463346F34703469346534723408
:1020EA0000344D3475346C34743469345F3452348A
:1020FA005834203454346534733474346A3469344B
:10210A00673400344434653463346F34643465347A
:10211A0020344F346C34643420342D3446346134E2
:10212A0069346C34003454346534733474346A3426
:10213A0069346734203450346F34773465347234F8
:10214A002D34753470340034543465347334743433
:10215A002D344A34693467347C34533474346134EA
:10216A0072347434753470340034203474346F34F7
:10217A002034723465347334743461347234743490
:10218A00203474346534733474340034373473341B
:10219A00653467342C342034623475347A347A34B2
:1021AA00653472342C342034203400344434653499
:1021BA0063346F346434653420344E346534773490
:1021CA0020342D3420344F344B34003452346534A7
:1021DA006C34613479343134203421346C346134D0
:1021EA007434633468346534643400345234653486
:1021FA006C34613479343234203421346C346134AF
:10220A007434633468346534643400345234653465
:10221A006C34613479343334203421346C3461348D
:10222A007434633468346534643400344D3465344A
:10223A006D345F3443346F347034693465347234C6
:10224A002034503461347334733400345234653476
:10225A006C3461347934313420346C3461347434FC
:10226A0063346834653464340034523465346C340D
:10227A0061347934323420346C34613474346334E4
:10228A006834653464340034523465346C346134EF
:10229A007934333420346C346134743463346834BC
:1022AA0065346434003450346F34773465347234AE
:1022BA0069346E346734203462346F346134723472
:1022CA00643400344534723472346F3472342034D6
:1022DA002D3420344434653463346F3464346534C3
:1022EA00003443346F346E3464346F3433342034FE
:1022FA0054346534733474346A346934673400345A
:10230A0020346334793463346C3469346E3467341A
:10231A00203470346F347734653472340034313495
:10232A00363476342D3431343234763420347334BE
:10233A007534703470346C34793400344D3461340B
:10234A0073347434653472342034453472346134ED
:10235A007334653420340034203445347234723492
:10236A006F347234203443346F346E3464346F34CF
:10237A00333400342D343E34203449346E347334CB
:10238A006534723474342034503443344234003463
:10239A002034523465346D346F34763465342034E5
:1023AA0062346F3461347234643400342034453416
:1023BA00723472346F34723420342D3420344834F9
:1023CA0069346734683400344D3475346C34743489
:1023DA0069345F345234583420345034613473349D
:1023EA00733400343134323476342D34353476341F
:1023FA00203473347534703470346C347934003466
:10240A003134363476342D343534763420347334DA
:10241A007534703470346C3479340034543465341F
:10242A0073347434203445344534503452344F3480
:10243A004D34203400345434343420346234753406
:10244A00733420342834433441344E34293400342C
:10245A0056346F346C3474342034453472347234E4
:10246A006F3472342034483400345434653473344D
:10247A00743420345234463420345234533453346E
:10248A004934003456346F346C347434203445344F
:10249A00723472346F34723420344C340034203441
:1024AA0050347234653473347334203453345434AE
:1024BA0041345234543400344534733474346134FE
:1024CA0062346C3469347334683469346E34673412
:1024DA00003445344534503452344F344D3420346A
:1024EA006534723472346F34723400342034623496
:1024FA007534743474346F346E34203474346534FF
:10250A0073347434003420344534723472346F3482
:10251A00723420342D3420344C346F347734003400
:10252A0054346534733474342034523465346C341E
:10253A0061347934323400342034523465346134AD
:10254A0064342F3457347234693474346534003443
:10255A0045344534503452344F344D342034733476
:10256A0069347A346534003452345834333420347C
:10257A0054346534733474346A34693467340034D7
:10258A00573461346934743469346E3467342034AE
:10259A0066346F347234003443346F346D346D34BE
:1025AA00733420344534723472346F3472340034E4
:1025BA0054342D346F3475347434203445347234C1
:1025CA0072346F347234003443346F346E3464348A
:1025DA006F343334203450346134733473340034F8
:1025EA00433475347234723420344534723472345C
:1025FA006F3472340034203466346F3472342034C9
:10260A0063346F346D346D34733400345434653448
:10261A00733474342034523465346C34613479340C
:10262A0000343134363476342034733475347034AB
:10263A0070346C34793400347734613469347434E6
:10264A0069346E34673420342034003453346534AA
:10265A0074342034233420346F3466342034003404
:10266A00523453345334493420342D3420344F34C3
:10267A004B34003420346334683461346E346E343D
:10268A0065346C34733400345434653473347434BC
:10269A0069346E346734203400342034453472345B
:1026AA0072346F3472342034323400342034453476
:1026BA00723472346F3472342034333400344D340B
:1026CA0075346C34743469345F3452345834003499
:1026DA00203473346B346934703470346534643440
:1026EA00003452345834333420345034613473341F
:1026FA007334003443346F346E3464346F34333497
:10270A002034003477346134693474342E342E34EE
:10271A002E34003452345834203430347834363439
:10272A00313400344534723472346F3472342034A4
:10273A0034340034543465347334743420345234A9
:10274A004634003442347234653461346B340034B4
:10275A0062347234653461346B3400345234583420
:10276A003334203400342034313434346134003486
:10277A002034313434346234003420343134343443
:10278A006334003420343134333400342034313467
:10279A003534003420343134363400342034313482
:1027AA00373400342034313438340034203431346E
:1027BA00003482311E2A8131E7298131F0298131A1
:1027CA00F72982311A2A82312F2A8B31F52B8B3144
:0A27DA00F92B8B31FE2B8C31032C00
:102ABA00833022009700A33021009E0008000630D0
:102ACA0020009C00FA309B002100911404302B0056
:102ADA009700FF3096000C302C009C000130250036
:102AEA009F002C009A010800F10026008D108B131C
:102AFA0027008D108530F000F00B812DF201711C3A
:102B0A00892D27008D148B2D27008D108530F136E5
:102B1A00F000F00B8E2D0830F20A7202031C842D8D
:102B2A0027008D148B178530F000F00B9A2D0800C2
:102B3A0076082100B7001F30B7057708F900760834
:102B4A00F8000530FA00790DF90CF80CFA0BA82DEB
:102B5A007808B6000F30B6057708F9007608F8004D
:102B6A000930FA00790DF90CF80CFA0BB72D780830
:102B7A00B4000F30B4057708F9007608F8000D3074
:102B8A00FA00790DF90CF80CFA0BC62D7808B80082
:102B9A000730B8053808340736070907B707370872
:102BAA00F0006730F101F200F301802695317008D8
:102BBA00F8007108F9000A30FA00790DF90CF80CDE
:102BCA00FA0BE22D78082000EF00F630F0006F08CB
:102BDA005D2695312100B7070930F00038085D26D7
:102BEA009531F8002100360836073607780734078A
:102BFA0020006F072100B600F0006730F101F200F3
:102C0A00F301802695317008F8007108F9000A303E
:102C1A00FA00790DF90CF80CFA0B0E2E7808200040
:102C2A00EF00F630F0006F085D2695312100B607F7
:102C3A000530F00034085D26953121003807200060
:102C4A006F072100B400F0006730F101F200F301D0
:102C5A00802695317008F8007108F9000A30FA00E8
:102C6A00790DF90CF80CFA0B352E78082000EF00D4
:102C7A00F630F0006F085D2695312100B407380858
:102C8A0009070907090720006F072100B800F000AB
:102C9A001A30F101F200F301802695317108200003
:102CAA00EF00F630F0006F085D262100B807080033
:102CBA00F200F10170087218F107F0357008F21885
:102CCA00F107F03570087219F107F0357008F2193A
:102CDA00F107F0357008721AF107F0357008F21A28
:102CEA00F107F0357008721BF107F0357008F21B16
:102CFA00F10771080800F401F501701C882E7208AA
:102D0A00F4077308F53DF235F30DF136F00C70084F
:102D1A007104031D822E7508F1007408F000080082
:102D2A007A3021009900D0309500200095010B11CE
:102D3A008B160F3021008C00CF308D001A308E0098
:102D4A008B308F00F63090002F3026008C00EF3049
:102D5A008D0020008C018D018E0140308F00900182
:102D6A0025008C018D0124008D018F019001023014
:102D7A0029008D0023008C010C308D000F308F004C
:102D8A000430900028008C018D0195315D25963123
:102D9A0095316425963105302100BB0020008C1244
:102DAA008C168831052096310830F101F10A8B31F1
:102DBA009D2396316430F4009330F500A930F60073
:102DCA009030F7008A31D422963120000C168B17E6
:102DDA0022008E1703302000E3000830E20078302A
:102DEA00E100E10BF62EE20BF62EE30BF62EAA30EB
:102DFA00F000F1008A31A722963185302000E100E7
:102E0A00E10B052F5530F000F1008A31A7229631E7
:102E1A0085302000E100E10B102F20001010210066
:102E2A00961D1C2F0230F80189317F219631250029
:102E3A008C1D2A2F6430F8009330F900BF30FA0055
:102E4A009130FB008A31F62296315830F4009130E5
:102E5A00F500DA30F6009030F7008A31D422963144
:102E6A000C30F400F5018831C020963100308B31E6
:102E7A00F323963104302000E3000C30E2003530B1
:102E8A00E100E10B462FE20B462FE30B462F0032FF
:102E9A005F308C315E249631AF30AE000E30AF0019
:102EAA00702F5F308C315E249631003071027B3096
:102EBA0003197002031C7B2F8C31132496310030C6
:102ECA0058021E300319570203187B2F21002E08BF
:102EDA002F0403197B2F5F308C315E24963100302A
:102EEA007102683003197002031C562F5F308C314F
:102EFA005E2496310030710268300319700203189B
:102F0A008E2FF730F8009130F9004730FA009230EE
:102F1A00DD2F5F308C315E249631003071027B30B8
:102F2A0003197002031CA12FF730F8009130F90041
:102F3A002D30FA009230DD2F8C3113249631003077
:102F4A0058023C3003195702031CD12F8C31132429
:102F5A0096315808DC005708DB000530DD00DE0139
:102F6A00DF01E001E00A8831F720963115302000B0
:102F7A00E3004B30E200D130E100E10BC22FE20B5B
:102F8A00C22FE30BC22F00009830F8009130F900ED
:102F9A00F530FA009230DD2F21002E082F04031D90
:102FAA00E12FF730F8009130F900DD30FA00923065
:102FBA00FB008A31F62296311B30F400F501883184
:102FCA00C020963100308B31F32396310430200033
:102FDA00E3000C30E2003530E100E10BF22FE20BA6
:102FEA00F22FE30BF22F0032AF302100AE000E3089
:062FFA00AF0080319228B7
:020000040001F9
:04000E00CCCFFFDB79
:00000001FF
